:020000040800F2
:1000000000400020D10100087D5900087F590008F8
:1000100000000000000000000000000000000000E0
:1000200000000000000000000000000081590008EE
:1000300000000000000000008359000885590008F6
:100040001D3D00081D3D00081D3D00081D3D000828
:100050001D3D00081D3D00081D3D00081D3D000818
:100060001D3D0008D55900088D590008B5590008F4
:10007000C55900081D3D00081D3D00081D3D000834
:100080001D3D00081D3D00081D3D00080B5A0008DD
:100090001D3D00081D3D00081D3D0008E5590008F4
:1000A0001D3D00081D3D00081D3D0008A559000824
:1000B0001D3D00081D3D00081D3D0008095A0008AF
:1000C00073B500F0C9F83049304B081C0B600024B0
:1000D000191C2F4A13602F4B2F4DE318AB4204D24B
:1000E0002E4D2D5904341D60F5E700682C4B9842C5
:1000F00003D112682B4B9A4200D0FEE72A4A2B4BC1
:10010000116019602A492B48814202D2002001C1A6
:10011000F9E71268002A02D11D68002D00D0FEE721
:1001200000F09EF8684601A900F08EF8224A234BA1
:10013000161C9B1A9C10A54204DAAB00F358984792
:100140000135F8E71E4A0025161C1E4B9B1A9C1011
:10015000A54204DAAB00F35898470135F8E7009858
:10016000019904F005FF184B051C1E1C174CE41ADE
:10017000A410002C04DD013CA300F3589847F8E7D5
:10018000281C00F03FF8C04600000020BABADECAC2
:10019000D000002000000020D4000020AC70000837
:1001A0007856341232547698D4000020401800203B
:1001B000D4000020441800200402000804020008B3
:1001C00004020008040200080402000804020008F7
:1001D00008B5FFF775FF00BEFEE704207146084230
:1001E00002D0EFF3098001E0EFF308807146044A82
:1001F000104700BEFEE700BEFEE700BEFEE7704708
:04020000F3010008FE
:10020400FEE700000C4A08B51168031C002901D15F
:100214000A4911600321106803338B430849C3184A
:100224008B4206D905F0ECFE0C230360012040420A
:1002340000E0136008BDC046D80000204418002028
:10024400003C002001230360014B0B607047C04653
:100254000400002008B503F0F5FC08BD08B503F060
:1002640021FD08BD10B5041C02F02EF9FA21890005
:1002740005F0D4FB00F00AFC0120211C40420022BE
:1002840000F0BEFB002010BD1021064A08B513681B
:1002940003200B431360FFF7E5FF01F089FD002005
:1002A40008BDC04600200240024A136801331360AF
:1002B4007047C046E0000020014B18687047C046F4
:1002C400E000002013B50190FFF7F6FF041CFFF7D0
:1002D400F3FF019B001B9842F9D313BD032203686B
:1002E40070B599680A40012A01D0002030E01968ED
:1002F400114202D1DA681204F7D5052299680A403E
:10030400012A0AD102219A68051C0A439A60032231
:100314001A60FFF7D1FF061C08E010220124436C89
:1003240013434364836C2343836410E001242B68E8
:100334009B682342D9D0FFF7BFFF801B0228F5D961
:1003440010226B6C13436B64AB6C2343AB64201CB3
:1003540070BD00000023032273B5019303689968FC
:100364000A40012A07D11968114201D0002036E061
:10037400DA681204FAD49968194A114208D0102292
:100384000124436C13434364836C2343836425E057
:1003940001219A68051C0A439A60124B1249186895
:1003A40005F03CFB0190019B002B03D0019B013B1A
:1003B4000193F8E7FFF780FF061C01242B681B68F4
:1003C4002342D3D1FFF778FF801B0228F5D91022EE
:1003D4006B6C13436B64AB6C2343AB64201C76BD22
:1003E400170000801C00002040420F00042238B592
:1003F40003689968114201D100201EE099681142F6
:1004040006D09A68920703D410219A680A439A6026
:10041400041CFFF751FF051C23689B685B07EBD5A1
:10042400FFF74AFF401B0228F6D910220120636C13
:1004340013436364A36C0343A36438BDF8B5012379
:10044400002800D18DE0436C041C002B05D1021C54
:1004540040328364137005F071F9636CDB066DD46C
:10046400042223689868104068D1616C3E4A0A40AF
:1004740002210A436264032299680A40012A63D173
:100484001968114202D1DA6812045DD5D968374A75
:10049400266A0A40DA60A26977039103E269D2030B
:1004A4001143626B551E6A1E9541E2682D030A438F
:1004B40021693A43022900D10420216B49000A43EF
:1004C400616A2A430243012904D1002E02D180210A
:1004D40049020A43C220A16AFF30814202D0E06A85
:1004E40001430A43D968A56B1143D96080214905AA
:1004F4008D4202D0691E062907D80721586988430E
:1005040058615869294001435961D968184B0B4017
:10051400934208D100230321A364626C8A43023905
:100524000A4362641DE01222636C9343023A13434C
:1005340063640123A26C1A43A26412E01022636C68
:100544001343636401230CE01821DA688A43A16829
:100554000A43DA60196962688900890811431961DC
:1005640094E7181CF8BDC046FDFEFFFF1902FEFF0C
:10057400E7FF3F8338B5012500283BD00222436CB6
:10058400041C13434364FFF731FF051E08D1201CEC
:10059400FFF7A4FE051E012D29D00123636401E0A9
:1005A400012824D09F212368201C5A688A435A605A
:1005B4001960D968104A0A400721DA601A69920062
:1005C40092081A615A698A435A61196A0B4A0A40A5
:1005D4001A629A6AD20CD2049A62094A094B1168C7
:1005E4000B40136005F020F90023A3646364002327
:1005F40040342370281C38BD00023E8300F000F014
:1006040008270140FFFF3FFE38B50368051C9B68BF
:1006140002205B0720D42C1C40342378012B1BD0F0
:1006240001232370EB69012B11D16A6C0B4B002061
:10063400134080220421520013436B642B68E43A74
:10064400A86420701A609A680A439A6004E0281C1F
:10065400FFF780FE0028E8D038BDC046FEF0FFFF5B
:100664000368F7B59B6802255B0738D4061C40363F
:100674003378012B33D001233370C369171C0191E4
:10068400041C012B26D1626C164B002513408022DA
:10069400520013436364E06B134BA56435708362AB
:1006A400124B2168C362124BF03A03631C230B60A4
:1006B4004B6813434B60CB680F3A1343CB60019AEA
:1006C40040313B1C00F08EFB0421226893680B43ED
:1006D400936004E0FFF73EFE0028D4D0051C281CDC
:1006E400FEBDC046FEF0FFFFF906000869070008DA
:1006F40075070008502208B5436A596C11422AD183
:1007040080215A6C89000A43C0215A641A6809017D
:10071400D06808421BD1196A002918D11168090749
:1007240015D5916849070AD40C205168814351605A
:10073400596C0B4A0A4001210A435A6407E02021FC
:100744005A6C0A435A649A6C1F390A439A64181CF7
:1007540004F0ECFD02E0DB6B1B6B984708BDC04660
:10076400FEFEFFFF08B5406A04F0E6FD08BD7047D1
:100774004022406A08B5436C13434364836C3C3A9B
:100784001343836404F0D9FD08BD0000042238B586
:100794000368041C1968114202D05968114206D139
:1007A40008221968114231D0596811422ED0626C66
:1007B400D20604D48021626C89000A436264C02298
:1007C400D968120111421BD1226A002A18D11A6871
:1007D400120715D59A6852070AD40C215A688A431D
:1007E4005A60626C204B134001221343636407E098
:1007F4002022636C13436364A36C1F3A1343A36402
:10080400201C04F093FD0C2223681A6080252368C1
:100814001A682A420CD05B682B4209D08022636C90
:10082400520213436364201CFFF7A1FF23681D6079
:10083400102223681968114214D05968114211D04A
:10084400626B012A02D0DA68D20708D50221A26CB1
:10085400201C0A43A26410221A6004F06EFD1022C8
:1008640023681A6038BDC046FEFEFFFFF7B50023BB
:10087400041C019340342278866B0233012A62D02F
:100884000268013B956823706D0756D42F484F6862
:100894000D6887423AD0AB40976A3B43936280230A
:1008A4005B059E420FD0013E062E0CD907238868B3
:1008B40051691940884206D051699943516151697F
:1008C40003400B4353612B1C103B022B33D8204BAA
:1008D40080211A68102D03D0112D03D0490402E0A1
:1008E400090400E0C9030A431A60102D23D1194BEF
:1008F4001949186805F092F80A2358430190019B9E
:10090400002B18D0019B013B0193F8E7AB40916A9F
:1009140099432B1C103B9162022B0CD80C4A116892
:10092400102D03D0112D03D00C4B02E00C4B00E032
:100934000C4B0B401360002303E02021426C0A435C
:10094400426400222270181CFEBDC0460110000043
:10095400082701401C00002040420F00FFFFFFFE5B
:10096400FFFF7FFFFFFFBFFF70B5051C40352A78EE
:100974000223012A3FD00322013B2B7003689968AC
:100984000A40012A05D1196811422ED1DA681204ED
:100994002BD4416C194A041C0A4002210A438021C9
:1009A40042649A6809060A439A60FFF785FC061CAC
:1009B40023689B68002B0EDAFFF77EFC801B02285D
:1009C400F6D91222636C9343023A134363640023FF
:1009D4002B7001330FE00322636C9343023A1343F9
:1009E4006364002300222A7005E02022436C134331
:1009F40043640123F6E7181C70BDC046FDFEFFFFEB
:100A040070B58901002815DA0F23C0B20340083BF2
:100A1400124A9B0803249B009B18FF222040A040FD
:100A2400141C8440DD691140A54381402A1C0A43FB
:100A3400DA6112E084080A4B0326A400E418FF23B9
:100A44003040B0401E1CC0258640AD00625919409C
:100A5400B2438140131C0B43635170BD00ED00E0B1
:100A640000E100E01F2318401E3B8340181C014B8B
:100A74001860704700E100E01F2318401E3B8340CC
:100A8400181C014BD867704704E100E0094A431E73
:100A9400012093420DD8C020074A084953600B6ACD
:100AA40000061B021B0A03430B620020072390600D
:100AB40013607047FFFFFF0010E000E000ED00E06E
:100AC40070B59408A4000C1905688C420CD00B78FE
:100AD4001E064B781B043343CE7833438E7804319F
:100AE400360233432B60EFE703231A400ED02378FA
:100AF400012A0AD01B02022A03D1627813432B80F5
:100B040004E0627813432B80A3782B700368186881
:100B140070BD5308F0B59C460C1C00230568634562
:100B240007D02688678836043E432E600133043498
:100B3400F4E7D20702D59B005B5A2B802868F0BDEE
:100B440010B5002801D1012024E0437F041CDBB24E
:100B5400002B02D1037704F001FF0223201C6377EA
:100B640000F070F80028EED162792368002A01D1E0
:100B7400013A00E0226960211A619A688A43616936
:100B84000A4380219A609A688A43A1690A439A6059
:100B94000123637710BD38B50223057F041C181C9C
:100BA400012D20D06377236A01382077022B11D0DE
:100BB400032B05D0834211D1201CFFF781FF0EE0E7
:100BC40092008A182368914202D001C91860F9E79B
:100BD400186804E0201CFFF79CFF00E000200123BC
:100BE40063770023237738BD30B51F23041C01200D
:100BF400051C9D40294202D1013BF8D217E0102A7E
:100C040007D0182A02D0082A08D105E0062B05D9F6
:100C140016E0072B02D913E00F2B11D8206841618D
:100C2400182183688B431A438260002008E0102A4D
:100C340001D1012004E0182AFBD0082AEED1F8E7FC
:100C440030BD000008B50379002B08D102681820D4
:100C540007495161916881439160181C07E0031CA6
:100C64009968DA68FFF7C0FF431E9841C0B208BD17
:100C7400B71DC104031C30B50120002B1FD09C1CE0
:100C8400E27FD2B2002A01D11918CA770222186869
:100C9400E27701680A4A5D6811409A682A43DD6870
:100CA4002A431D692A435D692A439D692A43DD69F4
:100CB4002A430A430260002058630123E37730BDCE
:100CC4000FC0FFFF70B5012300287AD0841CE27F97
:100CD400191C022A75D003683B4D1A688A431A60AE
:100CE40000221A605A609A60DA600232AB421DD068
:100CF40036491E328B4219D0354A93420BD0354ABD
:100D040093420BD0344A93420BD0344A93420BD0D3
:100D1400802292040AE08022920007E0802292015D
:100D240004E08022920201E0802292032C494A606E
:100D34000822AB421DD0254E7832B34219D0244A42
:100D440093420BD0234A93420BD0234A93420BD0B5
:100D5400224A93420BD0802212050AE0802212011B
:100D640007E08022120204E08022120301E08022C4
:100D740012044A600422AB421DD0144D3C32AB42F3
:100D840019D0134A93420BD0124A93420BD0124A01
:100D940093420BD0114A93420BD08022D2040AE032
:100DA4008022D20007E08022D20104E08022D20215
:100DB40001E08022D20300234A6043630130E377D9
:100DC400C377181C70BDC046080002401C000240D6
:100DD4003000024044000240580002406C000240CF
:100DE40000000240F0B50225471CFE7F2C1C012E9A
:100DF40021D001264419FE77E57704682568B543B8
:100E0400256063604368102B02D1A260E16001E0B9
:100E1400A160E260022223681343236023689218CE
:100E24001343236023680432134323602368073A7F
:100E3400134323600024201CF0BD000070B5036838
:100E44008A4D8B4E041C29680822B3421DD0894860
:100E54007832834219D0884A93420BD0874A93420E
:100E64000BD0874A93420BD0864A93420BD0802200
:100E740012050AE08022120107E08022120204E037
:100E84008022120301E080221204114236D008228B
:100E94001968114232D0196891431960B3421DD0C8
:100EA400744978328B4219D0734A93420BD0734AF7
:100EB40093420BD0724A93420BD0724A93420BD0A6
:100EC400802212050AE08022120107E08022120229
:100ED40004E08022120301E0802212046A600122ED
:100EE400636B134363630332A31CDA770022631C2E
:100EF400DA77236B934201D0201C98472368296832
:100F04000422B3421DD05B483C32834219D05A4A72
:100F140093420BD0594A93420BD0594A93420BD077
:100F2400584A93420BD08022D2040AE08022D20095
:100F340007E08022D20104E08022D20201E0802274
:100F4400D203114233D004211A680A422FD01A68FE
:100F5400920602D41A688A431A600422B3421DD04E
:100F640044493C328B4219D0434A93420BD0434A02
:100F740093420BD0424A93420BD0424A93420BD045
:100F84008022D2040AE08022D20007E08022D2012B
:100F940004E08022D20201E08022D2036A6011229E
:100FA400A31CDA77E36A002B01D0201C984723683E
:100FB40029680222B3421DD02E481E32834219D022
:100FC4002D4A93420BD02D4A93420BD02C4A934284
:100FD4000BD02C4A93420BD0802292040AE0802248
:100FE400920007E08022920104E08022920201E054
:100FF40080229203114238D002211A680A4234D066
:101004001A68920602D41A688A431A600222B3420A
:101014001DD018491E328B4219D0174A93420BD067
:10102400164A93420BD0164A93420BD0154A934268
:101034000BD0802292040AE08022920007E08022F2
:10104400920104E08022920201E0802292036A600D
:101054000122636B6363A31CDA77A3180022DA7797
:10106400A36A934201D0201C984770BD000002403F
:10107400080002401C0002403000024044000240CC
:10108400580002406C000240F0B50B6887B0029330
:1010940000230191029ADA4000D19CE001229A4097
:1010A400029C1440009400D193E0019A54681022E9
:1010B400271C9743022F0ED107250F211D40AD0099
:1010C400A940DA0892008218166A8E4301990969C8
:1010D400A9400E43166202685E0094460322151C62
:1010E400B5406146ED432240B24029400A43013FE6
:1010F4000260012F0FD8019A8768D2682F40B2404E
:101104003A43826001229A4047689743E206D20F2D
:101114009A403A434260C2681540019A9268B240CC
:101124001543C560E20054D503210F1C1F408C46B3
:10113400B9000F2701268F40284A956935439561E8
:1011440092699D0832400592059A254AAD00AD1872
:10115400AA68BA4390270392FF050022B84211D02F
:10116400321C204EB0420DD01F4E9218B04209D00E
:101174001E4E6246B04205D01D4A8218574257415E
:101184000526F21B8A4003990A430099AA600E1CA3
:10119400184ACD4317683E43E10301D43E1C2E4058
:1011A40016605768009E3E43A10301D43E1C2E40A6
:1011B40056609768009E3E43E10201D43E1C2E40D7
:1011C4009660D668009F3743A10201D42E40371C95
:1011D400D76001335EE707B0F0BDC046001002409F
:1011E400000001400004004800080048000C0048CA
:1011F40000F0FFB7000401400023F0B585B0029170
:10120400029ADA4061D001229A4094466146029AD9
:101214000A40019257D00326341C5A009440E243FA
:101224000F250168DC081140A40001600419216A3B
:101234002F1C03910721194089008F40391C039FFB
:101244008F43276264468168114081604168A143ED
:101254001C1C3440A400A5404160C1680A40C2601F
:1012640099081B4A890089188F6800222F40BC46C0
:101274009027FF05B84211D0164F0132B8420DD065
:10128400154F0132B84209D0321C144EB04205D079
:10129400134A8218564272410526B21AA240944556
:1012A40011D18A68AA438A6001990E4AC943146815
:1012B4000C40146054680C40546094680C40946072
:1012C400D4682140D16001339AE705B0F0BDC0462F
:1012D400000001400004004800080048000C0048D9
:1012E40000F0FFB70004014000690840411E884136
:1012F400C0B27047002A01D0816100E0816270476A
:10130400436959404161704730B50468064D6068CF
:1013140089052840039D890D284303430B43120488
:101324001343636030BDC046009800FCF8B5041C4C
:101334000D1CFEF7C1FF2368061C9A690020D20623
:1013440037D5271C35373A78122A05D03A78522AED
:1013540002D03A78622A15D15A68920112D48021B7
:101364005A68C9010A435A600CE020229969114263
:1013740011D16A1CF9D0002D06D0FEF79DFF801B09
:10138400A84201D82368F0E701233B7000233434DA
:10139400237003200DE01021D961DA615968054AF0
:1013A40001200A405A600423A363002334343870B4
:1013B4002370F8BD00E800FEF7B51D1C041C0F1CCB
:1013C4000192FEF779FF019B061C002B2AD12268AB
:1013D400391C936999430B1CDB0311D06B1CF7D0A8
:1013E400002D11D0FEF768FF801BA842EFD90BE057
:1013F4006B1C07D1391C936999430B1CDB03F7D091
:10140400002011E0002D08D1231C012235331A706D
:10141400002334342370032006E0FEF74DFF801BC5
:10142400A842F1D82268E5E7FEBD70B5041C0D1C86
:10143400FEF742FF061C23689B699B071CD4201CF3
:10144400291CFFF773FF002818D16B1CF3D0002D63
:101454000CD12022A36B03201343A363231C1F3A44
:1014640035331A7000233434237008E0FEF724FF68
:10147400801BA842DFD9ECE7002000E0012070BD0A
:1014840070B5041C0D1CFEF717FF061C23689B692E
:101494009B061AD4201C291CFFF748FF002816D1EC
:1014A400002D0CD12022A36B03201343A363231C20
:1014B4001F3A35331A7000233434237008E0FEF7E2
:1014C400FBFE801BA842E1D9ECE7002000E00120EC
:1014D40070BD000038B50123002844D0051C353503
:1014E4002B78041CDBB2002B04D1021C34321370A1
:1014F40004F0BCF9022301212B7023681A688A4383
:101504001A606168194A0A401A619968184A0A40BF
:101514009A60A268E168002A0AD0012904D18021D6
:1015240009020A439A6008E08420000202439A6098
:10153400022902D1802212015A605A680D490A43D5
:101544005A60616922691143A26912020A43DA608E
:10155400E169226A0A4301211A601A680A431A607F
:101564000023A3632970181C38BDC046FFFFFFF099
:10157400FF7FFFFF00800002F0B51D1C031C85B037
:101584003533029203931A78041CD2B20F1C022042
:10159400012A7AD1029B002B01D1012075E0002D94
:1015A400FBD02368996980231B020B406DD1211C59
:1015B40034310E78012E68D00A70122203990A7011
:1015C400A36380239B01FF2D09D900938023201C52
:1015D400391CED325B04FFF797FEFF262AE00093E7
:1015E4008023EAB2201C391C9B04FFF78DFE2E1CBD
:1015F40020E0029A23681278013D013E9A62ADB25E
:10160400002E28D1002D28D0201C8021321C0A9BBA
:10161400FFF7D2FE002837D1FF2D12D98023009680
:10162400201C391CFF225B04FFF76EFEFF36029B71
:1016340001330293201C0A99FFF7F7FE0028D8D043
:1016440011E080230096EAB2201C391C9B04FFF7AA
:101654005BFE2E1CEBE7002DE9D1201C0A99FFF755
:101664000FFF002803D0A36B042B0DD195E7202294
:1016740023683434DA615968054A0A405A60012300
:10168400039A1370207000E0032005B0F0BDC0463B
:1016940000E800FEF0B5171C021C85B0039135323A
:1016A4001D1C1378041CDBB20220012B79D1002FFE
:1016B40001D1012075E0002DFBD021688E698021C5
:1016C40009020E40B4466CD1211C34310E78012E2F
:1016D40067D00B70222313706346A36390239B018E
:1016E400FF2D09D900938023201C0399FF225B045A
:1016F400FFF70AFEFF2627E000938023EAB2201CAE
:1017040003999B04FFF700FE2E1C1DE02368013D96
:101714005B6A013E3B70ADB2002E28D1002D28D06B
:10172400201C8021321C0A9BFFF746FE002829D189
:10173400FF2D12D980230096201C0399FF225B04FD
:10174400FFF7E2FDFF360137201C042100220A9B2B
:10175400FFF732FE0028D9D014E080230096EAB2C5
:10176400201C03999B04FFF7CFFD2E1CEBE7002DF3
:10177400E9D1201C1921FFF783FE002804D0A36BB4
:10178400042B96D003200CE020222368DA615968E8
:10179400054A0A405A60231C0122353334341A7036
:1017A400207005B0F0BDC04600E800FEF0B51D1C79
:1017B400002385B00393031C009235331E78041C68
:1017C400F6B20220012E7BD12768BA6980273F0236
:1017D4003A40944674D1271C34373A78012A6FD0A2
:1017E4003E70187063460191A363019BE1689B05F9
:1017F40022689B0D012901D1324901E0A021890110
:101804000B435360FEF758FD071C23689A69920640
:1018140004D510269A69324026D114E09A69D2067A
:10182400F7D4261C35363278032AF2D06A1CEDD060
:10183400002D02D1012333703EE0FEF73DFDC01BB5
:10184400A842E2D9F6E7201C20212B1CFFF7B4FDA7
:10185400002834D120222368DA61231C1F3A35334F
:1018640034341A7020702BE00022201C20212B1C01
:10187400FFF7A2FD021E22D12368DE612026DE616D
:101884000399481C0390009881420DD18020596827
:10189400C00101435960201C311C2B1CFFF78CFD37
:1018A40000280CD12368DE61039B009A93429CD3E9
:1018B400231C012235331A7000233434237003208F
:1018C40005B0F0BD002000027047704770477047B4
:1018D4000368F7B59A69041C92070ED49A69120634
:1018E4000BD49A69520608D49A69920605D49A6967
:1018F400D20602D49A69120750D57A2219680A408E
:101904007A2A4BD1251C35352A78322A46D1221C15
:1019140034321178012941D00121117010219869C4
:1019240008420DD0608DD961002833D00421A36B07
:10193400201C0B43A3630023137003F004FD29E070
:1019440008209969014001D0D86123E020279869D3
:10195400384210D0FE261868B043802618605868B4
:10196400360230435860DF610123201C2B70117054
:10197400FFF7AAFF0EE09A6992070BD5628D002A41
:1019840008D0626A511C616212789A62638D013BCD
:101994009BB26385231C002234331A7023689A692E
:1019A40092070CD49A69120609D49A69520606D48D
:1019B4009A69920603D49A69D20600D48CE0722202
:1019C40019680A40722A00D086E0201C353002785B
:1019D400122A03D00278522A00D07DE0221C34322D
:1019E4001178012900D177E00121117099698907E3
:1019F4000CD5626A511C616212789A62238D013B94
:101A04002385638D013B9BB2638561E080219D69E1
:101A1400294024D0208D00281CD1618D002919D0A3
:101A24005968638D8905890DFF2B08D9802300909F
:101A34005B04201CFF22FFF767FCFF2308E08023E0
:101A4400628D9B040090D2B2201CFFF75DFC638D75
:101A540023853DE000231370A36B402233E040272D
:101A64009D693D400CD0608D002805D180215A68C5
:101A7400C9010A435A602BE0A36B11703B4323E076
:101A840020279969394016D019680E1CF2218E431B
:101A94001E60DF615F689249394059600123037019
:101AA40015700378201C522B02D1FFF70FFF0FE0B3
:101AB40003F047FC0CE010209D69054208D0D86172
:101AC40011700422A36B1343A363201C03F03BFC9B
:101AD400231C002234331A7023689A6952070ED4E7
:101AE4009A6912060BD49A69520608D49A69920626
:101AF40005D49A69D20602D49A6912074ED57C227B
:101B040019680A407C2A49D1251C35352A78422A8D
:101B140044D1221C3432117801293FD001211170A3
:101B24001021986908420AD0D96100231370042255
:101B3400A36B201C1343A36303F005FC2AE00821D4
:101B44009869084201D0D96124E0042198690140D0
:101B54000CD0626A5B6A511C61621370238D013B75
:101B64002385638D013B9BB2638513E0202798692D
:101B740038420FD0FC261868B04380261860586895
:101B8400360230435860DF610123201C2B70117032
:101B9400FFF79BFE231C002234331A7023689A69D2
:101BA40052070CD49A69120609D49A69520606D4CB
:101BB4009A69920603D49A69D20600D48EE07422FC
:101BC40019680A40742A00D088E0201C3530027855
:101BD400222A03D00278622A00D07FE0221C343209
:101BE4001178012900D179E001270425996917703A
:101BF40029420CD0626A5B6AD11961621370238D29
:101C0400013B2385638D013B9BB2638563E08021A7
:101C14009D69294024D0208D00281CD1618D002984
:101C240019D05968638D8905890DFF2B08D9802344
:101C340000905B04201CFF22FFF766FBFF2308E0F3
:101C44008023628D9B040090D2B2201CFFF75CFBC2
:101C5400638D23853FE000231370A36B402235E09E
:101C640040269D6935400ED0608D002805D1802125
:101C74005A68C9010A435A602DE01170321CA36BE3
:101C84001A43131C23E020269969B446314015D029
:101C94001968D436B14319606146D9615E68104948
:101CA40031405960077015700378201C622B02D1F3
:101CB400FFF70DFE0FE003F045FB0CE010209D69DB
:101CC400054208D0D86111700422A36B1343A363A7
:101CD400201C03F038FB002334342370F7BDC046C6
:101CE40000E800FE8021036849009A6910B50A42A1
:101CF40007D01A68120604D50124826B224382633A
:101D0400D96180219A69C9000A4207D01A6812066B
:101D140004D50824826B22438263D96180219A69A5
:101D240089000A4207D01A68120604D50224826B7D
:101D340022438263D9610B23826B1A4205D0031CB0
:101D4400012235331A7003F0FEFA10BD806B704720
:101D5400021C031C022070B535321478844223D04F
:101D64001478122C20D01478222C1DD01478322C04
:101D74001AD01478422C17D01D1C34352C78012C21
:101D840012D01B6810701C68013884431C601E68E4
:101D9400064C34401C601C682143196019680143D7
:101DA400196010700020287070BDC046FFEFFFFF5F
:101DB400704700008021034A490013680B431360F5
:101DC4007047C04600700040F0B5036885B0041C3D
:101DD400DB0703D423689B075ED4A8E00C23C14D22
:101DE4006A681A40042A0BD06A681340082B0ED183
:101DF400C0236A685B02134080225202934206D1D8
:101E04002B689B03E6D56368002BE3D191E12B6833
:101E1400B54FB64E3B402B602B6833402B60FEF72A
:101E24004BFA01902A68AF4B920308D5FEF744FAA7
:101E3400019BC01AAE4B9842F4D90320FAE16268C0
:101E4400012A12D0002A09D11A6817401F601A68A3
:101E540016401E60FEF730FA061C19E0052A0AD166
:101E640080211A68C9020A431A6080211A6849024B
:101E74000A431A60CCE11A6817401F601A681640BA
:101E84001E60C5E1FEF718FA994B801B9842D4D81E
:101E94002B689B03F6D49DE70C23924D6A681A4283
:101EA4000BD06A681340082B16D1C0236A685B0202
:101EB40013408022120293420ED12B689B0703D554
:101EC400E368012B00D034E1F8212B6822698B43AD
:101ED400D20013432B602AE0E3680122002B17D0C1
:101EE4002B6813432B60FEF7E7F9061C2B687D492A
:101EF4009B0705D4FEF7E0F9801B6428F6D99CE71C
:101F0400F8200B6822698343D20013430B600EE070
:101F14002B6893432B60FEF7CFF9061C2B689B07B5
:101F240005D5FEF7C9F9801B6428F7D985E723682E
:101F34001B0703D423685B072DD530E0236A0122F5
:101F4400684D002B0ED06B6A13436B62FEF7B4F935
:101F5400061C6B6A9B07EDD4FEF7AEF9801B642860
:101F6400F7D96AE76B6A93436B62FEF7A5F9061C1F
:101F74006B6A9B07DED5FEF79FF9801B6428F7D9AF
:101F84005BE7FEF799F95A4B801B984200D954E756
:101F94002B6A9B07F5D52368DB0663D4ACE080236A
:101FA400504D5B05EA69534E1A43EA61EA691340EE
:101FB40080220393039B3368520013433360FEF77C
:101FC4007BF9071C3368DB0505D4FEF775F9C01BE4
:101FD4006428F7D931E701222B6A93432B622B6AD9
:101FE400033293432B62FEF767F9061C2A6A3D4BC2
:101FF400920706D5FEF760F93D4B801B9842F5D950
:102004001BE7A268012A02D1196A0A431DE00121D3
:10201400002A0AD11A6A8A431A621A6A03318A4365
:102024001A62FEF749F9061C18E0052A07D10420B4
:102034001A6A02431A621A6A11431962F6E01A6AAA
:102044008A4304211A621A6A8A431A62EEE0FEF78E
:1020540033F9274B801B984200D9EEE62B6A9B0785
:10206400F5D498E762691F4D0423012A1AD1696BDC
:102074000B436B636B6B1A436A63FEF71DF9061C13
:102084006B6B18499B0705D4FEF716F9801B64286F
:10209400F6D9D2E6F8204B6BA2698343D2001343EE
:1020A4004B6329E005320AD1F8216A6B9A436A63CB
:1020B4006B6BA2698B43D20013436B631CE06A6BA6
:1020C400134301226B636B6B93436B63FEF7F4F86A
:1020D400061C6B6B9B070FD5FEF7EEF8801B64287C
:1020E400F7D9AAE600100240FFFFFEFFFFFFFBFF47
:1020F400881300000070004023689B0603D4626AC2
:10210400002A3CD167E00C234B4D6A681A409A427E
:1021140009D06A681340082B0DD1C0226B685202A3
:102124001340934207D16B6BDB03E8D5E369012BC2
:10213400E5D001207EE0E369002B10D080226B6B98
:10214400520213436B63FEF7B7F8061C6B6BDB0399
:10215400D5D4FEF7B1F8801B6428F7D96DE66A6B15
:10216400364B13406B63FEF7A7F8061C6B6BDB035F
:10217400C5D5FEF7A1F8801B6428F7D95DE60C23CA
:102184002D4D69680B40082BD3D02D4B022A30D13A
:102194002A6813402B60FEF78FF8061C2A68264B2A
:1021A40092011AD40F21DA6A8A43216B0A43DA6254
:1021B400E16AA06A5A68084322490A40802102431E
:1021C4005A601A6849040A431A60FEF775F8041C39
:1021D4002B689B0107D500202CE0FEF76DF8801BCF
:1021E4006428DBD929E6FEF767F8001B6428EFD9D9
:1021F40023E62A6813402B60FEF75EF8041C2B6864
:102204009B01E8D5FEF758F8001B6428F7D914E6BB
:10221400FEF752F8061C2B689B0300D5DAE5FEF79F
:102224004BF8094B801B9842F5D906E6FEF744F8B3
:10223400061CADE605B0F0BD00100240FFFFFEFF36
:10224400FFFFFFFEFF7FC2FF881300000123F7B5E5
:102254007B4A0E1C1168041C1940171C8E4277D946
:10226400116899433143116012681340B34201D09D
:102274000120E3E00268930706D5F02071494B681A
:102284008343A06803434B60D3070BD423685B07E5
:1022940000D4CFE06B496C4B4A681340E2681343A7
:1022A4004B60C7E06368674D012B03D12A68920332
:1022B4000FD4DDE7022B03D12A68920109D4D7E7B2
:1022C400032B03D16A6BD20303D4D1E72A689207A4
:1022D400CED503216A688A4313436B60FDF7ECFF94
:1022E4006368061C012B0CD10C236A681340042B71
:1022F400CCD0FDF7E1FF554B801B9842F4D9032065
:102304009CE0022B0BD10C236A681340082BBDD030
:10231400FDF7D2FF4D4B801B9842F4D9EFE7032B16
:1023240011D10C236A6813400C2BAFD0FDF7C4FF06
:10233400464B801B9842F4D9E1E7FDF7BDFF434BC0
:10234400801B9842DBD80C236A681A42F5D19DE7BA
:102354000268930706D5F0203A494B688343A06886
:1023640003434B60D3070AD401223B6893433343AE
:102374003B603B681A40B24200D079E786E7636865
:10238400304D012B03D12A68920310D470E7022B3D
:1023940003D12A6892010AD46AE7032B03D16A6B3A
:1023A400D20304D464E72A68920700D460E70321C7
:1023B4006A688A4313436B60FDF77EFF636801908C
:1023C400012B0CD10C236A681340042BCCD0FDF7ED
:1023D40073FF019BC01A1D4B9842F3D98FE7022B60
:1023E4000CD10C236A681340082BBDD0FDF764FFA1
:1023F400019BC01A154B9842F3D980E7032B14D1E3
:102404000C236A6813400C2BAED0FDF755FF019BDB
:10241400C01A0E4B9842F3D971E7FDF74DFF019BAB
:10242400C01A0A4B984200D969E70C236A681A4219
:10243400F3D199E70320FDF715FF0020FEBDC04648
:102444000020024000100240FFF8FFFF8813000044
:1024540030B5194C89B0211C1022684603F0E0FD08
:10246400211C04AD10311022281C03F0D9FD0C22CC
:1024740012494B681A40082A03D00C2A19D1104873
:1024840018E068469A02120F845C0F22C96A802001
:102494000A40A95CC022520213404002834206D083
:1024A400934204D1064803F0B9FA604302E00548B8
:1024B400F9E7044809B030BDC06A000800100240C2
:1024C400006CDC0200127A0008B5FFF7C1FF054B6F
:1024D400054A5B681B061B0FD35CD840034B18608E
:1024E40008BDC04600100240E06A00081C0000203D
:1024F40008B5FFF7E9FF044B044A5B685B055B0F13
:10250400D35CD84008BDC04600100240E06A000811
:102514003F230360284B1A68520301D5052205E0C6
:102524008022196852020A4000D00122012142602F
:102534001A680A4001D0C16000E0C2601A6812063D
:10254400D20E02611A6A520701D5052206E0012162
:10255400194A126A0A4001D0816000E082600121B8
:102564005A6A0A4001D0016200E002621A68D2018C
:1025740001D5022200E001224262C02259685202BF
:102584000A408262F022596892030A40C2620F2212
:10259400D96A0A40012102635A6B0A4001D04161A1
:1025A40000E042615A6B1206D20E82611B6BDB03A0
:1025B400DB0FC3617047C046001002400368F7B5E3
:1025C400051CDB0346D53B4C4268236A5340C022BA
:1025D400920013423ED08023E2695B051A43E26114
:1025E400E269354E134080220193019B3368520007
:1025F40013433360FDF760FE071C3368DB0506D424
:10260400FDF75AFEC01B6428F7D9032051E080204F
:10261400226A236A111C400203432362206A274E64
:10262400274B3140034023622162930705D4236A78
:102634001E406B681E4326620CE0FDF73DFE071C3E
:10264400236A9B07F3D4FDF737FE1E4BC01B984249
:10265400F6D9DAE72B68DA0706D5032015490A6BA1
:102664008243A86802430A639A0706D51149164AA9
:10267400086B0240E86802430A639A0606D51020F4
:102684000C490A6B8243286902430A639A0306D5FC
:10269400802008490A6B8243A86902430A63002028
:1026A4005B0506D5402203490B6B93436A691343C8
:1026B4000B63FEBD0010024000700040FFFCFFFFF2
:1026C400FFFFFEFF88130000FFFFFCFFA02102684C
:1026D40038B5D368041C8B43D360FDF7EDFD051CAE
:1026E4002368DB689B0608D4FDF7E6FDFA23401B4C
:1026F4009B009842F4D9032000E0002038BD38B58F
:102704000368DA68520601D5002012E00122524221
:10271400DA60041CFDF7D0FD051C2368DB685B064A
:10272400F2D4FDF7C9FDFA22431B92009342F4D977
:10273400032038BD10B5041C0120002C3DD0637F5C
:10274400DBB2002B03D12377201C03F0D5F802233E
:10275400CA2263772368201C5A62773A5A62FFF7C9
:10276400CEFF2368002805D0FF225A6204230120EB
:10277400637722E09968114A0A409A609A6861680E
:102784000A4321690A4361690A439A60E268A168BD
:102794001A611A6909040A4380211A61DA688A43B2
:1027A400DA60196C064A0A401A641A6CA1690A4371
:1027B4001A64FF225A620123637710BDBFFF8FFFA3
:1027C400FFFFFBFF0023092803D90A380133C0B2F5
:1027D400F9E71B011843C0B2704700000223F7B5A4
:1027E400047F1F1C012C67D00D1C01214377036853
:1027F40001779B683F31041C6E782878AF780B40D2
:10280400002A15D1002B00D12B72FFF7DBFF0190BA
:10281400301CFFF7D7FF061C381CFFF7D3FF2B7AB9
:1028240036021B041843019B1F043843064309E086
:10283400002B00D12B7200043602064337432E7A54
:1028440036043E43CA222368201C5A62773A5A62ED
:10285400FFF755FF2368071E06D0FF225A620423A0
:102864006377002323771EE01448154A06401E6050
:1028740099680A409A609A68E9680A4329690A4390
:1028840080219A60DA688A43DA609B689B060CD4DC
:10289400201CFFF71BFF002807D0FF2223685A6281
:1028A400042327776377012706E0FF2223685A620F
:1028B4000123637700232377381CFEBD7F7F7F00CD
:1028C400FFFFFBFF0223F7B5047F1E1C012C5AD027
:1028D4000D1C012143770177041C6B78E878AF78ED
:1028E4002E78002A48D11032134203D093431A1C85
:1028F4000A326A70FFF766FF01906878FFF762FF9B
:10290400051C381CFFF75EFF019B770307431E0479
:102914003E432F023743CA222368201C5A62773A67
:102924005A62FFF7ECFE2268061E06D0FF235362AC
:10293400FB3B63770023237714E08021134B1F4074
:102944005760D3688B43D36093689B060CD4201CD8
:10295400FFF7BCFE002807D0FF2223685A62042335
:102964002677637701260EE0FF2223685A6201234B
:1029740063770023237706E000041B0203431F430D
:1029840075032F43C7E7301CFEBDC0463FFFFF0061
:10299400036889005033C9180A60704703688900C6
:1029A4005033C91808687047F0B585B0041C0E1C74
:1029B400171C1D1CFDF780FC0190226893683340AE
:1029C400BB4242D0C023DB009E4206D1002F04D17B
:1029D400137B02A9DBB2CB71CB796B1CEED0002D3B
:1029E4000AD1E02123685A688A435A6082226168C6
:1029F4005200914214D106E0FDF75EFC019BC01A1F
:102A0400A842DAD3EDE78021A26809028A4203D002
:102A14008021C9008A4203D140211A688A431A607E
:102A24008022A06A9201904206D11A680849114096
:102A340019601A6802431A60231C01225D331A705C
:102A440000235C342370032000E0002005B0F0BDB7
:102A5400FFDF0000F7B5041C0E1C01921D1CFDF7DE
:102A64002BFC071C22689368019933408B4236D0B3
:102A74006B1CF8D0002D0AD1E02123685A688A43E0
:102A84005A60822261685200914213D105E0FDF739
:102A940013FCC01BA842E5D3EEE78021A26809021B
:102AA4008A4203D08021C9008A4203D140211A6896
:102AB4008A431A608022A06A9201904206D11A6861
:102AC4000849114019601A6802431A60231C012244
:102AD4005D331A7000235C342370032000E000206F
:102AE400FEBDC046FFDF000038B50D1CC02100222A
:102AF40049012B1C041CFFF757FF021E06D1201CA2
:102B040080212B1CFFF7A6FF002804D020230320DC
:102B1400226E1343236638BDF8B5012300285DD027
:102B2400051C5D352B78041CDBB2002B04D1021C80
:102B34005C32137002F0B6FD022340212B7023682F
:102B4400E0681A6800268A43E0211A60C9008842B6
:102B540005D9F0221201904206D1321C06E08022EF
:102B64005201884201D101E0321CA662266B002E7C
:102B740005D1884201D9022100E00121216367685F
:102B8400A668A1693E4327693E4367693E43E769F6
:102B94003E43276A3E43A76A3E438027BF000F4057
:102BA4003E431E60266B022E04D180271E683F011F
:102BB4003E431E60666A090C3043666B064304207C
:102BC400014031430A435A60E26A1A61D969044AEE
:102BD4000A40DA610023012223662A70181CF8BD1A
:102BE400FFF70000F0B5041C87B01F1C029103928C
:102BF4000C9EFDF761FB231C5C33019000931B7852
:102C04000220012B00D131E10123009A051C13702D
:102C1400221C5D321378DBB2012B00D01FE1029934
:102C24001D1C002900D11AE10399002900D116E1E5
:102C3400002F00D113E10433137000232366231CF7
:102C4400802208332164DF87A31DDF87A06A029BEB
:102C5400E787A363A78723689201904206D11A6885
:102C64008349114019601A6802431A60E022E1683E
:102C7400D200914201D8012F03D958687D4A0240FD
:102C840003E080205A684001024340205A601A68D9
:102C9400024202D11A6802431A60251CE023083557
:102CA400DB00994246D9E38F002B30D0226891682B
:102CB400890714D5A16B013B09889BB2D160A16B34
:102CC400E3870231A163002B09D18023A16A9B0110
:102CD400994204D18021136849010B431360EB8F9F
:102CE400002B0BD022689368DB0707D5236CD268CE
:102CF4001A8002332364EB8F013BEB87731CD2D021
:102D0400FDF7DAFA019BC01AB042CCD36CE0EB8F2A
:102D1400002BE4D18023A26A9B019A4200D086E072
:102D240056E021688A68920708D4E98F002925D1E2
:102D3400731C42D1E38F002BF3D145E0A26B012B2E
:102D440006D91288023BCA60A26B0232A26305E074
:102D5400531CA36313780B73E38F013BE387E38F67
:102D6400002BE2D18023A26A9B019A42DDD180210B
:102D74002268490113680B431360D6E722689368FD
:102D8400DB07D5D5236C01290FD9D168198002330B
:102D94002364EB8F023B9BB2EB87012BC8D88021C5
:102DA400536849010B435360C2E7591C2164127BE9
:102DB4001A70EB8F013BEB87BAE7FDF77DFA019BB5
:102DC400C01AB042B6D30FE0EB8F002BADD1A1E710
:102DD4000121201C0A1C331CFFF73CFE002805D0EF
:102DE4000223226E13432366032538E004AA951DAB
:102DF400F022E16823681201914202D1DB689BB2A0
:102E040013E01B7B276B2B802B88022F0FD1012112
:102E1400201C0A1C331CFFF71DFE002803D0236E60
:102E24001F432766E0E723681B7B2B802B882268DF
:102E340000259368DB0606D50223216E01350B437A
:102E440023660D4B9360201C311CFFF74DFE0028B8
:102E540001D020232366236E002B00D001250123FB
:102E64005D3423700023281C009A137007B0F0BD52
:102E7400FFDF0000FFEFFFFFEFFF0000012270B54E
:102E84007324036A93430362036A42688569A54312
:102E94000C6825430224A3438C682343144CA042AA
:102EA40008D0144EB04205D0134EB04202D0134E97
:102EB400B04216D10826B343CE6833430426B34345
:102EC400A04208D00B4CA04205D00B4CA04202D02B
:102ED4000A4CA04205D10A4C4E6922408C69344305
:102EE400224342604A6885614263036270BDC04602
:102EF400002C0140004001400044014000480140D2
:102F0400FFFCFFFF026A194B30B5134003627323C1
:102F1400046A4268C5699D430B681D43144B2340F2
:102F24008C6824022343134CA04207D1124C234043
:102F3400CC6824022343114C234005E0104CA042EA
:102F440002D0104CA0420DD10F4C22404C692401F8
:102F540022438C692401224342604A68C561C263EA
:102F6400036230BD094CA042F6D1EDE7FFFEFFFF3E
:102F7400FFFDFFFF002C0140FFF7FFFFFFFBFFFFFA
:102F84000040014000440140FFCFFFFF00480140E2
:102F9400026A144B70B513400362066A124C0A6845
:102FA4004368C569254014022543104A8C683240A1
:102FB400240322430E4CA04208D00E4CA04205D05C
:102FC4000D4CA04202D00D4CA04204D10C4C234025
:102FD4004C69A401234343604B68C56103640262E6
:102FE40070BDC046FFEFFFFFFF8CFFFFFFDFFFFF59
:102FF400002C0140004001400044014000480140D1
:10300400FFBFFFFF704710B5446A0123221C393209
:103014001370226A90420DD0636A984201D1022350
:1030240008E0A36A984201D1042303E0E36A9842CA
:1030340001D108232376201CFFF7E4FF0023237625
:1030440010BD7047406A08B5031C012239331A7059
:10305400FFF7F7FF08BD00001E4A10B50368904251
:1030640006D08024E405A04202D01B4CA0420CD11F
:103074007024A3434C682343904212D08024E40577
:10308400A0420ED0144CA0420BD0144CA04208D045
:10309400134CA04205D0134CA04202D0124CA042C3
:1030A40003D1124C2340CC68234303608B68C36272
:1030B4000B688362904208D0094B984205D0094BB3
:1030C400984202D0084B984201D10B690363012353
:1030D400436110BD002C014000040040002000406A
:1030E400004001400044014000480140FFFCFFFF54
:1030F40038B50123002814D0051C39352B78041C5D
:10310400DBB2002B04D1021C3832137002F02EFA09
:103114000223211D2B702068FFF79EFF01232B70D3
:103124000023181C38BD00001022036A30B59343F5
:103134000362036A174C426885692C400D682D02AE
:103144002C432025AB438D682D012B43124DA842FF
:1031540007D18025AB43CD682D012B434025AB43DC
:1031640005E00E4DA84202D00D4DA8420DD10D4DE3
:103174002A404D69AD002A438D69AD002A4342605F
:103184004A6884618263036230BD074DA842F6D168
:10319400EDE7C046FF8CFFFF002C014000400140DA
:1031A40000440140FFF3FFFF00480140F8B5061C4E
:1031B400022438363578231C012D59D0071C013BD5
:1031C400393733703C700C2A4ED8041C101C0D1C6B
:1031D40002F01AFC074A4A4A164A4A4A294A4A4A03
:1031E40038002068FFF74AFE082123689A690A43D9
:1031F4009A619A6904398A439A6199692A690FE044
:103204002068FFF791FF8021236809019A690A4326
:103214009A619969174A0A409A612A69996912025E
:103224000A439A6120E02068FFF76CFE08212368B6
:10323400DA690A43DA61DA6904398A43DA61D969F5
:103244002A690FE02068FFF7A3FE802123680901A3
:10325400DA690A43DA61D969064A0A40DA612A69F5
:10326400D96912020A43DA6101233B7000233370E7
:10327400181CF8BDFFFBFFFF10B501248C408A40E9
:10328400036AA3430362036A1A43026210BD000087
:1032940010B5041C01220068FFF7EEFF23680B4AF7
:1032A400934208D00A4A934205D00A4A934202D074
:1032B400094A934204D180215A6C09020A435A6490
:1032C40001211A6800200A431A6010BD002C014035
:1032D40000400140004401400048014070B5061C14
:1032E400041C022039360D1C317881426DD03078AF
:1032F400C0B2012805D1002A01D1002B65D10221D9
:103304003170111C0C2D42D8281C02F07DFB0740A3
:10331400404015404040234040403100206A2B4A41
:1033240082622B4A026322683432FDF75BFD8021FE
:1033340022688900D36828E0606A244A8262244AA9
:10334400026322683832FDF74DFD80212268C900EE
:10335400D3681AE0A06A1D4A82621D4A0263226889
:103364003C32FDF73FFD802122680901D3680CE05F
:10337400E06A164A8262164A026322684032FDF706
:1033840031FD802122684901D3680B43D3600122B7
:103394002068291CFFF770FF23680E4A93420ED061
:1033A4000D4A93420BD00D4A934208D00C4A9342E3
:1033B40005D001211A6800200A431A6005E0802123
:1033C4005A6C09020A435A64F3E770BD0B300008D3
:1033D40049300008002C01400040014000440140F5
:1033E4000048014070B50124002812D0061C0223B5
:1033F400693633700368051C1A686835A2430024D3
:103404001A601C605C609C6002F062F86C6034704E
:103414002C70201C70BD0000131C021C70B5693296
:10342400041C1078012803D015780220222D2ED1F7
:10343400012000292BD0002B29D0251C68352E789B
:103444000018012E23D001382870201C5030E1646C
:10345400038043800020E0661078222801D11030D8
:1034640000E012201070206E094A8262094AC2628A
:10347400094A026322682832FDF7B4FC4022802105
:10348400002023681A629A680A439A60287070BD03
:103494002535000857350008A7350008131C021C01
:1034A40070B569320E1C1178041C012903D01178FF
:1034B400022012292CD10120002E29D0002B27D044
:1034C400251C683529780018012921D0012129708B
:1034D400211C583166650B800021E16611781229A0
:1034E40001D1203100E022211170606E094A216867
:1034F4008262094A2431C262084A0263321CFDF71F
:1035040071FC40210020226893680B43936028706B
:1035140070BDC046613500089B350008A73500081A
:1035240008B50368426A196820230B400CD1111CAA
:1035340052310B80802113689A688A439A601A6812
:1035440040390A431A6002E0101C01F0C7FE08BDAE
:10355400704708B5406AFFF7FBFF08BD026808B56D
:1035640011682022436A0A4010D1191C40205A31A4
:103574000A8019688A6882438A601A1C6932117841
:10358400322901D1203900E001211170181C01F009
:10359400ABFE08BD704708B5406AFFF7FBFF08BDE6
:1035A4007047406A08B5021C00235A321380083A57
:1035B4001380031C012269331A70C36E0F32134344
:1035C400C366FFF7EDFF08BD70B5041C0568C36949
:1035D400A16800692A680843616908434949184396
:1035E4000A4002432A606968474A206A0A40E1683F
:1035F4000A43A1696A60AA68084344490A4002432D
:10360400AA60434A95420AD1424A116B03220A40F6
:103614004149885C80221202934253D11FE03F4A01
:10362400954215D1C020802680213A4A8002126B2F
:10363400760202400902B24225D002D8002A17D0ED
:1036440031E08026B602B24223D0824217D02AE06B
:10365400334A95420CD0334A954224D108E00828D5
:1036640025D802F0D1F909240E24122424241800A8
:103674008022120293422ED1FEF73AFF07E08B42DA
:103684002CD1294809E08B422AD1FEF7E1FE400003
:1036940003E08B422BD180204002616802F0BEF926
:1036A40083B2002005E080221202934227D1012038
:1036B40000230F221D1C1340954321685B102B43EC
:1036C400CB601DE008281AD802F09EF905190819E4
:1036D4000A1919191100FEF70BFF03E0134801E062
:1036E400FEF7B6FE616802F099F980B204E080202A
:1036F4006168000202F092F9E860002000E0012015
:1037040070BDC046F369FFEFFFCFFFFFFFF4FFFF7B
:103714000038014000100240F06A000800440040F4
:1037240000480040004C00400024F40000127A00DD
:10373400436A30B5DA0706D50168284A4C68224046
:10374400846A22434A609A0706D50168244A4C6871
:103754002240C46A22434A605A0706D50168214AB6
:103764004C682240046B22434A601A0706D501685C
:103774001D4A4C682240446B22434A60DA0606D54F
:1037840001681A4A8C682240846B22438A609A0634
:1037940006D50168164A8C682240C46B22438A60AD
:1037A4005A0610D50168134A4D68046C2A40224316
:1037B4004A6080225203944205D14C680E4A22404A
:1037C400446C22434A601B0606D501680B4B4A68C9
:1037D4001340826C13434B6030BDC046FFFFFDFFB6
:1037E400FFFFFEFFFFFFFBFFFF7FFFFFFFEFFFFF7A
:1037F400FFDFFFFFFFFFEFFFFFFF9FFFFFFFF7FF6D
:10380400F7B51D1C041C0E1C0192FCF755FD019B11
:10381400071C002B36D12268D3693340B3420FD042
:103824006B1CF9D0002D0FD0FCF746FDC01BA8423D
:10383400F1D909E06B1C05D1D3693340B342F9D007
:10384400002021E0002D18D18021236803201A686C
:103854008A431A601A6860398A431A6019680B4AE5
:103864000A4001211A609A688A439A60231C6933CA
:10387400197000236834237006E0FCF71DFDC01B9B
:10388400A842E1D82268D7E7FEBDC046FFFEFFFF8D
:10389400F7B5051C019369352B78041C0E1C012B0C
:1038A40003D02B780220222B4DD10120002E4AD0A8
:1038B400002A48D0271C68373B780018012B42D0D7
:1038C40001233B700023E3662B78222B01D11033B4
:1038D40000E012232B70231C50331A805A80231CBF
:1038E40052331A88002A1ED0013A1A80201C8021E3
:1038F4000022019BFFF784FF002801D0032022E06F
:103904008023A16822685B01994208D12369002BB6
:1039140005D133880236DB05DB0D1385DFE7337809
:1039240001361385DBE7201C4021019BFFF768FF6C
:103934000028E3D12B78322B01D1103B00E0012386
:103944002B7000233B70FEBD002310B5184AC366DC
:103954000368041C93420AD0164A934207D0231CDE
:1039640001220020693368341A7020701EE01B683D
:103974001B0704D423681B685B07F0D50BE0802188
:10398400FA23201C890300229B00FFF739FF00283B
:10399400F0D003200AE08021FA23201CC90300226E
:1039A4009B00FFF72DFF0028F3D1D8E710BDC046D8
:1039B400003801400044004038B5002801D10120FE
:1039C4002DE0051C69352B78041CDBB2002B04D1D7
:1039D400021C6832137001F0BBFC0223012122682F
:1039E4002B701368201C8B431360FFF7EDFD012837
:1039F400E5D0636A002B02D0201CFFF799FE2368F0
:103A0400074A5968201C0A402A215A609A688A4346
:103A14009A601A6829390A431A60FFF795FF38BD7E
:103A2400FFB7FFFF031C70B569331978021C122914
:103A340003D01B780220322B25D1151C52352B883C
:103A44001168002B08D180200A6882430A600A6842
:103A5400403802430A6015E080249668D06C640103
:103A6400A64209D11469002C06D104880230E40569
:103A7400E40D0C85D06403E0441CD46402780A8508
:103A8400581E2880002070BD4021036810B51A68B4
:103A94008A431A60021C69321178322902D1222326
:103AA400137004E001249968A1439960147001F033
:103AB40015FC002010BD0000031C021C70B55C3313
:103AC400693219881378222B03D013780224322BFD
:103AD40034D180258668436D04686D01AE4208D1F7
:103AE4000569002D05D1A48C21401980023343655A
:103AF40004E05D1C4565A48C21401970011C002460
:103B04005A310B88013B9BB20B80A34216D1036848
:103B140020341968A14319601178322902D1122383
:103B2400137008E01C680649214001241960996853
:103B3400A1439960147001F0D7FB0024201C70BDD0
:103B4400FFFEFFFF70470122036810B5D969041C0A
:103B5400114209D01968C90506D51A62C16E11430C
:103B6400C166011C69310A700222D96911420BD065
:103B740001219868084207D004201A62E26E0243C9
:103B8400E266221C693211700422D96911420BD0F9
:103B940001219868084207D002201A62E26E0243AB
:103BA400E266221C693211700822D96911420AD0D6
:103BB40001219868084206D01A62E36E1343E36653
:103BC400231C69331970E36E002B02D0201CFFF70D
:103BD400E7FC802223685203D96911420AD099680C
:103BE400490207D51A62231C012269331A70201C6A
:103BF400FFF7A8FF20232268D16919420AD012686E
:103C04001A4207D0201CFFF757FF08212268936946
:103C14000B43936180232268D169194205D012684D
:103C24001A4202D0201CFFF7FDFE40232268D1690E
:103C3400194205D012681A4202D0201CFFF724FF53
:103C440010BD00000121114B1A680A431A6058681C
:103C54000F4A02405A6018680E4A02401A601868F7
:103C64000D4A02401A6058680C4A02400F205A60FC
:103C7400DA6A8243DA62186B094A02401A635A6BA1
:103C84008A435A6300229A607047C046001002407B
:103C94000CB8FF08FFFFF6FEFFFFFBFFFFFFC0FFAE
:103CA4002CFEFCFFF8B50C23164E174D726813401A
:103CB400042B01D0082B02D0144B2B6018E00F23E7
:103CC40074687268F16AC02719408023A4027F02D5
:103CD400240F3A40023401315B029A4203D0BA42C3
:103CE40001D10B4800E0094801F098FE44432C60E0
:103CF4007368084A1B061B0FD35C2A68DA402A60E3
:103D0400F8BDC046001002401C00002000127A00DA
:103D1400006CDC020C000020FEE708B589B2052324
:103D24000222FDF743FD43425841C0B208BDFA23C5
:103D340013B59B00009389B20123041CFDF7AAFC70
:103D4400002802D0201CFEF701F813BD13B5041C93
:103D5400FA208000009089B29BB2201CFDF79AFCE7
:103D6400002802D0201CFDF7F1FF13BD7FB50F24FE
:103D7400051C0E1C6C442270FA239B000093B1B204
:103D8400281C221C0123FDF7F7FB002803D0281C64
:103D9400FDF7DCFFF0E77FBD07B5074A031C106899
:103DA400002808D064220092044A9BB21168044A95
:103DB4001268FEF717FF07BD00010020FC00002079
:103DC400F800002008B5044B01221978034B186849
:103DD400FDF790FA08BDC046F0000020E80000207E
:103DE400014B18607047C046E400002010B5041C65
:103DF400064B00221978064B1868FDF77BFA201C45
:103E0400FFF7CAFFFFF7DEFF10BDC046F000002039
:103E1400E800002008B5034B1B68002B00D098472E
:103E240008BDC046E4000020F8B50C1C144E154D26
:103E34003460154C2B602260144B069A08A91A6052
:103E4400079A134B134F1A600978134B3860197093
:103E5400101C89B20122FDF74DFA3B680B4F002B71
:103E640002D10E48FFF7D6FF2A683068002102F01D
:103E7400E0F83A682068002102F0DBF8F8BDC0469B
:103E8400FC000020F4000020F8000020EC000020DA
:103E9400E800002000010020F0000020F46A00087F
:103EA40007B5064A031C1068002806D06422009255
:103EB400034A9BB21268FEF795FE07BD000100207D
:103EC400F8000020062208B5034B01201B681A7075
:103ED400FFF78CFF08BDC046FC000020052208B592
:103EE400044B03201B681A70FFF780FF024B1B680A
:103EF400587808BDFC000020F8000020032208B513
:103F0400074B1B681A70020C5A70020AD8709A7018
:103F1400081DFFF76BFF034B1868043008BDC0464B
:103F2400FC000020F8000020AB2208B5034B012060
:103F34001B681A70FFF75AFF08BDC046FC0000203A
:103F44000123021C13B5440881061A4023401B02B6
:103F5400090F09041A43C0090A430306101C184335
:103F640016BD07B5FFF7BAFFFFF7EAFFC0B2002896
:103F7400F8D107BD13B5041CFFF7A4FFFFF7AEFF8C
:103F8400FFF7DEFF000AC0B2002803D10648FFF79E
:103F940041FFF1E70122054B02201B681A705C7097
:103FA400FFF724FF13BDC046186B0008FC00002077
:103FB40013B5041CFFF786FFFFF790FFFFF7C0FF60
:103FC400000AC0B20028F5D02022094B04201B6847
:103FD4001A70220C5A70220A9A70DC70FFF706FFDE
:103FE400FFF77CFFFFF7ACFFC0B20028F8D113BD88
:103FF400FC00002073B5041C0E1C151CFFF762FFA7
:10400400FFF76CFFFFF79CFF000AC0B20028F5D051
:10401400201CFFF7CDFFFFF755FFFFF75FFFFFF70A
:104024008FFF000AC0B20028F5D002220C4B1B6897
:104034001A70220C5A70220A9A70DC70094B002202
:104044001978094B1868FDF755F90420FFF7A4FE09
:10405400301C291CFFF724FFFFF7B4FE73BDC046D4
:10406400FC000020F0000020E8000020002370B5D0
:10407400061C0D1C0B4CE3730F34301C291C0A2244
:10408400002301F05DFD013C30322270301C291CFC
:104094000A22002301F054FD061C0D1C0843ECD138
:1040A400201C70BD0701002010B5044C031C032123
:1040B400201C034A02F090F8201C10BD04010020CB
:1040C400B06B0008F0B587B00392019102F0B8F824
:1040D4000421071C012001F087FF0199051C05AA92
:1040E400381C02F01BF90123061C00240093002E47
:1040F40019D0009B9C4206D16300281CE100009368
:1041040002F04CF8051CA300EB18301C029302F0DB
:1041140097F8029B0199186005AA002002F0FEF8A6
:104124000134061CE3E7002C04D1281C01F06EFFC7
:10413400251C04E0281CA10002F030F8051C039B98
:10414400381C1C6001F062FF281C07B0F0BD0000A1
:1041540030B5364C364B85B0201C2360FCF70AFA88
:10416400002801D000F0D6FA042201236261C222A1
:10417400002523616362FF322363201C06336560DC
:10418400A560E560A561E5612562A262E5626563FB
:10419400A363FCF753F9A84201D000F0BBFA8023D3
:1041A400201C5B0101A901950293FCF75FFB002829
:1041B40001D000F0AFFA0123201C01A90193FCF700
:1041C40055FB002801D000F0A5FA1023201C01A9FA
:1041D4000193FCF74BFB002801D000F09BFA11235C
:1041E400201C01A90193FCF741FB002801D000F039
:1041F40091FA1223201C01A90193FCF737FB002834
:1042040001D000F087FA201CFCF7AEFB002801D097
:1042140000F080FA201C07490522FCF721FA002847
:1042240001D000F077FA05B030BDC0465802002036
:1042340000240140A40200201FB5204C204B201C68
:104244002360FCF797F9002801D000F063FA0023FB
:1042540004216360A360E3606161A361E36123629D
:10426400C221E362636380230122FF315B05201CCA
:1042740022616262A1622263A363FCF7DFF8002873
:1042840001D000F047FA1023201C01A90193FCF788
:10429400EDFA002801D000F03DFA201CFCF764FB85
:1042A400002801D000F036FA201C06490522FCF74C
:1042B400D7F9002801D000F02DFA1FBD58020020C4
:1042C40000240140A4020020002208B5024B034848
:1042D4001A70FCF799F908BD170100205802002054
:1042E40010B5FFF7A9FF0024FFF7EEFF034B0448C6
:1042F4001B8803510434202CF6D110BDA4020020E5
:1043040018010020F8B5071C0024074DA600381C2E
:10431400715901F0B9FF002801D0705902E001344D
:10432400122CF2D1F8BDC0462000002008B5024886
:1043340000F00AFC08BDC046176C0008F0B52B4914
:1043440087B0041C01F0A0FF00284CD0201CFFF70C
:10435400D9FF051E47D0201C254905AAFFF7B2FE48
:10436400244B041C9D422AD1059B062B1ED1406878
:1043740001F034FE071CA06801F030FE061CE06862
:1043840001F02CFE051C206901F028FE03906069F1
:1043940001F024FE6B46EDB21B7BC2B2002F01D0AC
:1043A400002E05D1281C191C00F02CFD01250CE061
:1043B4000092381C311C2A1C00F0BCFCF6E70E4BA2
:1043C4009D42F3D1FFF7B2FFF0E7059B9D4205D272
:1043D400AB00E05801F01AFE0135F6E7002C02D0DC
:1043E400201C01F013FE07B0F0BDC0467470000835
:1043F400446C0008766C0008936C000810B5114BEF
:10440400114C0C22236096239B0163600023201C23
:10441400A360E3602361A36162616362FFF7CCFA86
:10442400002801D000F076F9084800F08DFB201C2C
:1044340007490122FFF732F8002801D000F06AF999
:1044440010BDC04600380140B0020020496C00088D
:1044540084090020074B084A1A600A225A608C32E9
:104464009A6000229A819A730132DA731A745A7428
:104474009A747047E40400202D72020030B51421B0
:1044840087B0051C0020FFF739FD01AC011C142284
:10449400201C01F0C5FD2B1C07CC07C3281C06CC2F
:1044A40006C307B030BD000070B5002400251348D2
:1044B40000F034FB291C201CFFF7D8FD00F02EFB74
:1044C4000F4800F02BFB0F4EA3191878FFF7ECFDF3
:1044D40000F024FB0C4800F021FB01220023A41867
:1044E4005D41142CE3D1002DE1D1281C321C211C88
:1044F400FFF780FDFFF735FD70BDC046CD6C0008A9
:10450400E66C0008E4040020926E0008F0B587B061
:1045140001ACFFF726FD201CFFF7B0FF1B48019EEE
:1045240000F0FCFA1A4D00212868FFF79FFD00F007
:10453400F5FA184800F0F2FA0021301CFFF796FD56
:1045440000F0ECFA144F381C00F0E8FA134800F0BD
:10455400E5FA00211420FFF789FD00F0DFFA381C8A
:1045640000F0DCFA2B689E4208D12B1C07CC07C351
:104574000B4806CC06C300F0D1FA04E0094800F069
:10458400CDFAFFF791FF07B0F0BDC046F16C00080B
:10459400E4040020E96C0008926E0008FF6C000837
:1045A400216D00083D6D00080722F0B54A4C4B4BC5
:1045B400E262E02223600023D200E2608022E36111
:1045C400A36063612361A362236263626363013353
:1045D400236304338BB09200FF334148A2616360CC
:1045E40000F09CFA201CFEF797FA0594002801D0ED
:1045F40000F090F880223B4B920259690125114347
:104604005961596990260A400792079A802259698C
:10461400D202114359615969102711400891089930
:104624005969314C114359615B69211C1A40099243
:10463400099B00232D48A3600333E360F6056560FE
:104644002560FCF721FD2A1C291C2848FCF752FE92
:10465400301C211C2760FCF717FD2A1C301C391C58
:10466400FCF748FE0223211C20482360FCF70CFDC4
:104674002A1C02211D48FCF73DFE1D48FFF7B0FB34
:104684001C4800F04BFA87235B0000931A491B4A2D
:10469400059801960297FFF7C7FB194C201C00F000
:1046A4003DFA184800F03AFAFFF73EFC164800F0CD
:1046B40035FA0020FFF75EFC201C00F02FFAFFF70C
:1046C40050FC124800F02AFAFFF720FF104800F0CF
:1046D40025FA0BB0F0BDC0460806002000300140AA
:1046E400596D0008001002403C01002000040048FD
:1046F400214B0008716D0008F80400206C060020AE
:10470400796D00087F6D00088E6D0008926D0008B9
:10471400A56D0008044808B504210122FCF7EAFD50
:10472400024800F0FBF9FEE700040048B06D000801
:10473400802370B55B0298B0159380230124002573
:1047440002265B030BA816930B940C9414961795EE
:10475400FDF73AFB80239B020493802304A80A9369
:10476400FDF72CFF07236846211C00930196029550
:104774000395FDF76BFD18B070BD00008022304B2F
:10478400F0B55969D20311435961596985B00A409A
:104794000192019A80225969D202114359615969DF
:1047A40080270A400292029A802259691203114317
:1047B40059615B6901261A400392039B0323214C30
:1047C400214DBF01281C211CE3606660A6602760A0
:1047D400FCF75AFC321C281C391CFCF78BFD042303
:1047E4001A4D211C281C2360FCF74EFC281C211C9C
:1047F4002760FCF749FC8023281CDB01211C236073
:10480400FCF742FC281C04210022FCF773FD281C41
:10481400391C0022FCF76EFD8021281C0022C901EE
:10482400FCF768FD002363600333E3608023281CE6
:104834001B02211CA6602360FCF726FC05B0F0BD1A
:104844000010024050010020000800480004004805
:10485400F8B52E4B2E49186801F0E0F82D4D2E4B7B
:104864002E4E2B600023471E281C6F60EE602B61C8
:10487400AB606B61FEF73CFC002801D0FFF74AFFF8
:1048840060230022264C281C2360211CEC33A260E8
:104894002261E2606261A2616360FEF787FC002826
:1048A40001D0FFF737FF281C0021FEF7F1FC002898
:1048B40001D0FFF72FFF1B4D1B4B281C2B6000233F
:1048C4006F60EE602B61AB606B61FEF711FC00283A
:1048D40001D0FFF71FFF602300222360281CEC3364
:1048E400211CA2602261E2606261A2616360FEF742
:1048F4005DFC002801D0FFF70DFF281C0021FEF706
:10490400C7FC002801D0FFF705FFF8BD1C000020FC
:104914000024F400D4070020004401409902000060
:10492400B80700207C0700200048014008B5021C9D
:1049340090210248FFF71AFA08BDC046100800206B
:1049440013B5FFF7F3FF6B46DC1D002303489021EA
:10495400221C2370FFF7EBF9207816BD1008002005
:10496400002313B501AC23706370FFF7DFFF054824
:104974009021221C0223FFF7E9F9207863780002D2
:10498400184316BD1008002008B50120FFF7D8FF12
:1049940008BD08B50020FFF7E3FF08BD08B50220F5
:1049A400FFF7DEFF08BD08B50320FFF7D9FF08BDF8
:1049B40008B5FFF7EEFFC00983B2DA050DD5012172
:1049C4001A1C0A208A435206524240420B40920E5D
:1049D4004243181C05235B4207E00A210A1C1806FF
:1049E400400E42430120184005235843101880B25A
:1049F40000B208BD08B502489021FFF78EF908BD42
:104A04001008002038B5394C394BFF222360394B4C
:104A1400201C63600123E3600023A26023616261C0
:104A2400E3612362FCF756FD002801D0FFF772FE14
:104A34000021201CFDF78CF92F4800F06FF8FFF7D8
:104A4400D9FF002801D02D4800E02D4800F066F879
:104A54002C4C201C00F062F8FFF796FF051C2A4836
:104A640000F05CF80021281CFFF700FB00F056F86A
:104A7400201C00F053F8FFF791FF051C234800F0B9
:104A84004DF80021281CFFF7F1FA00F047F8201C2C
:104A940000F044F8FFF77DFF051C1D4800F03EF8C8
:104AA4000021281CFFF7E2FA00F038F8201C00F07F
:104AB40035F8FFF778FF051C164800F02FF80021A1
:104AC400281CFFF7D3FA00F029F8201C00F026F880
:104AD400114800F023F8FFF76BFFC117FFF7C6FA80
:104AE40000F01CF8201C00F019F838BD1008002054
:104AF400005400401413A500D46D0008EA6D0008AA
:104B0400EF6D0008926E0008F36D0008FA6D00085E
:104B1400666F0008006E0008066E000810B5074BAB
:104B24009B7C002B08D0041C01F0A7FB211C82B243
:104B3400034B0448FEF7ACFE10BDC046E40400205D
:104B4400881300001409002010B5041C01F095FB23
:104B5400211C82B20648FEF75FFC002801D0FFF753
:104B6400D9FD044B1A78012AFBD100221A7010BD1A
:104B7400B00200206501002010B50748FFF7CEFF02
:104B8400064C201CFFF7CAFF0548FFF7C7FF201C8F
:104B9400FFF7D4FB10BDC046146E00084C0800207B
:104BA400926E000810B5104B104C0C222360E123C8
:104BB4009B0263600023201CA360E3602361A36164
:104BC40062616362FEF70EFC002801D0FFF7A2FDCC
:104BD400201CFEF7F1FE002801D0FFF79BFD0448DE
:104BE400FFF79CFF10BDC04600440040140900209C
:104BF400196E000808B50848084B036000230371C8
:104C040043714361836103330362FBF799FF002817
:104C140001D0FFF77FFD08BD880900200030024065
:104C240008B5FFF75DFB0822011C0248FBF7B3FF40
:104C340008BDC0468809002030B587B06A461423F1
:104C44000225D3701823124C557093701570201CD4
:104C540069460122FDF736FE002801D0FFF75AFD10
:104C6400002301A9201C01220D704B708B700B7264
:104C7400CB600B61FDF7B2FD002801D0FFF74AFDC0
:104C8400201C0021034AFDF783FE07B030BDC04657
:104C9400AC090020F232000000237F2210B5174C2B
:104CA400636023616361A361154BA260201C8032A1
:104CB400E2602360FDF73EFD002801D0FFF72AFDE6
:104CC400201C0021FDF76AFE0E4B984202D0FFF72C
:104CD400B3FF11E00C4C636A1B0102D50B48FFF7CC
:104CE4001DFF636A5B0102D50948FFF717FF8022A5
:104CF400636A52041343636210BDC046AC090020CA
:104D040000280040F232000000100240496E000802
:104D1400626E00088023064A5B00D16982B01943A1
:104D2400D161D26913400193019B02B07047C04620
:104D340000100240F0B587B004930CAB1B780392CB
:104D44000593002211230190029102998A4249D2CB
:104D54000720191C019C0A39091A661E89B2B2423D
:104D640008D3049C204D0441E40701D5292400E024
:104D740014246C540138ECD2191C0724083989B264
:104D8400481E80B2B24208D3039D174F2541ED0758
:104D940001D5292500E014253D54013189B2013C97
:104DA4009942EDD11C1C0834A1B200910725191CAD
:104DB400481E80B2B2420AD30B4FBC46059F2F4116
:104DC400FC0701D5292700E0142764462754013144
:104DD400009889B2013D8142EAD101321833D2B23E
:104DE4009BB2B2E707B0F0BDCC09002073B50E1C2E
:104DF400151C041C0093321C2B1C211CFFF79AFF6A
:104E040073BD000013B5041C0092044A0B1C01205E
:104E14005168221CFFF78EFF13BDC046E404002036
:104E240008B50B1C09021A04090E120EDBB2FFF7B7
:104E3400DDFF08BD54280AD80322131C4343810014
:104E4400411A0139C9B2D8B20902000418E0A928EC
:104E54000CD8031C0322553BDBB29800181A5343A9
:104E64000138C0B20004DBB218430AE00322563012
:104E7400C3B29800181A53430138C1B2D8B2000221
:104E84000843704770B52D4D2D4E0021321C281C4F
:104E940001F0CFF80020011C021CFFF7B3FF294BDF
:104EA4002949186800F0BAFD284B0138284C1860CD
:104EB400284BE06023600023201C6661636023614B
:104EC400A360FEF715F9002801D0FFF723FC602347
:104ED40000222149201C0B602B788A604B60CA6039
:104EE4000A614A618A61FEF761F9002801D0FFF77F
:104EF40011FC201C00212A1C114BFEF7EFF900289D
:104F040001D0FFF707FC0020011C021CFFF77AFF09
:104F1400802112480902FCF7E7F9114C051E012D06
:104F240005D11048FFF7FAFDE573042304E00E48A9
:104F3400FFF7F4FD0123E373237470BDCC09002053
:104F4400380E00001C00002000350C006801002011
:104F54000418002000040040B807002000040048A2
:104F6400E40400207B6E0008956E0008F0B587B05D
:104F7400FBF78AF9FFF7DCFBFFF76CFAFFF712FE89
:104F8400FFF738FEC048FFF7C9FDFFF7F7FBBF483E
:104F9400FFF7C4FDFFF732FABD48FFF7BFFDFFF787
:104FA40003FBBC48FFF7BAFDFFF76CFFBA48FFF7F5
:104FB400B5FDFFF7CDF8B948FFF7B0FDFFF722FDC7
:104FC400B748FFF7ABFDFFF767FEB648FFF7A6FD4E
:104FD400FFF73EFCB448FFF7A1FDFFF79BFEB34883
:104FE400FFF79CFDB248FFF799FD80210025B148E9
:104FF4008901FCF785F90A20FBF764F9AE4BAF4C45
:105004001D702378AB4202D0FFF7B6FD2570AC4D7E
:10501400EB7B2C1C002B00D100E12B7C0026012B08
:1050240022D163689E42E0D2E37B0125002B15D098
:1050340063689D4212D8E37B002B0CD01423A8197B
:105044005843C0B2FFF7F6FE011C281CFFF7E8FE28
:105054000A20FBF737F90135EDB2E9E70A200136FA
:10506400FBF730F9F6B2DCE7022B38D10025636890
:105074005B0800939D421ED214276F43FFB2381C75
:10508400FFF7D8FEFF26011C00983040401BFFF7B5
:10509400C7FE6368381C5B081E40FFF7CBFE761919
:1050A4000136011C301CFFF7BBFE0135C820FBF79D
:1050B40009F9EDB2DBE7002663685B089E4294D2EF
:1050C400751C281C0021FFF7ABFE20790021801BF2
:1050D400FFF7A6FEC820FBF7F5F8EEB2ECE7032BCA
:1050E4002BD1012563689D4200D97EE714206843D3
:1050F400C0B2FFF79FFE011C281CFFF791FE052D8F
:1051040003D9A81F0021FFF78BFE63689D420ED1CF
:105114000026A819C0B206380021FFF781FE013627
:10512400C820FBF7CFF8072EF3D10735EDB2C8201E
:105134000135FBF7C7F8EDB2D4E7042B5FD10326A2
:10514400FFF76EFD69687143490800F0EDFCCCB2CD
:10515400FFF766FDAF2100F0E7FC022C00D8341CF9
:1051640028230193272901D9CBB20193FFF758FDD6
:10517400C3B20293FFF754FDC3B20393FFF750FD8C
:105184000125C3B204934E4B5B68E3189D4200D9DA
:105194002BE72E1C281B864226DD002E22DD601BF9
:1051A4003018C3B2211C0298009300F037FC009B16
:1051B400211C5843C7B2039800F030FC009B3F0405
:1051C4005843C1B209020F430498211C059700F00B
:1051D40025FC009BF7B25843059BC1B21943381C08
:1051E400FFF71EFE013ED5E7A54202D30021FFF7DB
:1051F40017FE01980135FBF765F8EDB2C3E7052BFF
:1052040000D0F2E62F48FFF789FCFFF709FD0021E3
:10521400FEF72CFFFFF782FC2B48E4E62948FFF752
:105224007DFC0024FFF750F80025291C201CFEF704
:105234001DFFFFF773FC2548FFF770FC244B620049
:10524400D05A002180B2FEF711FFFFF767FC214816
:10525400FFF764FC01220023A4185D41052CE4D16E
:10526400002DE2D11C48FFF759FCFFF7A1FBC11741
:10527400FEF7FCFEFFF752FC1348FFF74FFCC82073
:10528400FBF720F8B1E6C046AE6E0008BC6E00081D
:10529400CB6E0008D96E0008ED6E0008FF6E0008A2
:1052A4000D6F00081C6F00082A6F00083B6F000890
:1052B400496F0008000800486501002038010020FB
:1052C400E4040020747000085E6F0008606F00083A
:1052D400A4020020626F0008656F00080122014BE0
:1052E4001A70704765010020002230B50A4B0B4943
:1052F4001C780A700A480B4B0A2C06D119781A70CC
:10530400425401200849087005E01A78551C1D70A4
:10531400012384540B7030BD8409002065010020F2
:105324004C08002064010020380100200122014BB8
:105334001A70704717010020704708B5FFF7EAF9A3
:1053440008BD7047704708B5FFF7E4F908BD0000D1
:10535400F0B5584B8DB0071E9F4277D18022564B33
:1053640092025969012511435961596990201140EC
:10537400009100995969C005114359615969002682
:105384000A400192019A80229969D20111439961DC
:1053940099690A400292029A5A6907A92A435A61F2
:1053A4005B6909952B400393039B80239B00079320
:1053B400FF3BFF3B08935B190A930B95FBF764FED5
:1053C4008023902007A9DB00C00507930B95FBF70A
:1053D4005BFE3A4C3A4B201C23601023636070330D
:1053E400A660E36026616661A661E661FBF742FCA4
:1053F4003C666762334B344C23608023E360603B3C
:10540400A3618023201C9B01E3616660A660266182
:105414006661FBF72FFC291C03220A207C66676265
:10542400FBF7EEFA0A20FBF71DFB291C02220A20D7
:10543400FBF7E6FA0A20FBF715FB1B20291C2A1CA4
:10544400FBF7DEFA1B20FBF70DFB30E01F4B984205
:105454002DD18022184B92025969012411435961BC
:10546400596990201140049104995969C005114368
:1054740059615969114005910599D9691143D96157
:10548400DB6907A91A400692069B04230793023B93
:1054940008931B190A9309940B94FBF7F5FD9020CC
:1054A4000823C00507A907930B94FBF7EDFD0DB086
:1054B400F0BDC046B002002000100240A40100204C
:1054C4001C000240300002406C010020140900203E
:1054D40010B5214CA04226D18021204BC901DA68A5
:1054E40090200A43DA60D9681D4AC0050A40802129
:1054F400DA608900FBF780FE90208021C005C90096
:10550400FBF77AFE606E002801D0FBF7DBFB206E10
:10551400002801D0FBF7D6FB0A20FBF7ADFA0A20DE
:10552400FBF7AAFA16E00F4B984213D18021902082
:105534000A4B89021A69C0050A431A6119690A4AA1
:105544000A401A610421FBF757FE90200821C00588
:10555400FBF752FE10BDC046B0020020001002400E
:10556400FFBFFFFF14090020FFFFFDFF70B5464B8E
:105574008CB0041E9C4243D10225444B1026DA69A8
:1055840043482A43DA61DA692A400092009A802269
:10559400596992021143596159690A400192019A69
:1055A40001225969114359615B6907A913400293A8
:1055B400029B032309920B9207960A930895FBF723
:1055C40063FD80233348C3608133FF330361E13BD0
:1055D400FF3B83618023466000269B01C3612E4B01
:1055E40086600360466120624462FBF743FB0B2044
:1055F400291C321CFBF704FA0B20FBF733FA40E0BA
:10560400264B98421BD18022204B92029969114368
:10561400996199690A400392039A80225969D202D6
:10562400114359615B691A400492049B01220223CD
:105634000992D21808930B930A92FE331CE0184B7C
:1056440098421ED18023114ADB029169194391616A
:10565400916919400591059951691943516152693C
:10566400134006930122069B022309920893D21841
:105674000B93FF330A92FF33054807A90793FBF7FF
:1056840003FD0CB070BDC046041800200010024099
:10569400000400481402002044000240D407002003
:1056A4007C07002010B50268224B8AB09A423ED192
:1056B4008022214B92025969902011435961596902
:1056C40000241140019101995969C00511435961A0
:1056D40059691140029102995969114359615969F3
:1056E4000A400392039A80229969520111439961F5
:1056F4009B6905A91A400492049B202305931E3B31
:1057040006930793013308930994FBF7BDFC90209B
:105714004023C00505A905930994FBF7B5FC902027
:105724008023C00505A905930994FBF7ADFC0AB0D5
:1057340010BDC04600300140001002408023F0B587
:10574400364C9B02626997B01A4362616269061C17
:105754001A400092009A626909A81A436261626958
:10576400012513400193019B8023A2699B001A43E6
:10577400A261A269902713400293029BFCF7C8FE22
:10578400102309A809930F93153B0E93FCF71CFBF8
:105794006369FF052B436361636900242B40039312
:1057A400039B0323381C04A9059304950694FBF773
:1057B4006BFC022304A90493381C5B19059306941B
:1057C400FBF762FC164F174B381C3B608023FB60D1
:1057D400DB183B618023DB007B612023BB618023DA
:1057E4009B01FB617C60BC60FBF76CFA381CFBF727
:1057F40041FA291C221CF76309207E62FBF700F999
:105804000920FBF72FF9211C221C0C20FBF7F8F8C8
:105814000C20FBF727F917B0F0BDC046001002407A
:10582400DC01002008000240802110B5041C9020F7
:105834000C4B8900DA68C0050A43DA60D9680A4A61
:105844000A40DA600121FBF7D7FCE06B002801D0A5
:10585400FBF738FA0920FBF70FF90C20FBF70CF9DA
:1058640010BDC04600100240FFFDFFFF202330B5ED
:1058740091B0099309A8103B0D93FCF79FFE802279
:105884001B4BD20259690124114359615969194DBD
:105894001140019101995969281C114359615969B1
:1058A4000A400292029A8022D96992031143D96173
:1058B400DB6904A91A400392039B402304932E3B03
:1058C40005930F3B079306940894FBF7DDFB8023B5
:1058D400281C04A904930894FBF7D6FB0421221C7A
:1058E4001720FBF78DF81720FBF7BCF811B030BD7B
:1058F4000010024000040048802310B5164C5B05DC
:10590400E26996B01A43E261E26913400193019B94
:10591400FCF750FA04230993002309A812930133D6
:105924000B93FCF751FA002801D0FEF7F3FE802315
:105934005B020293802302A85B000393FCF73EFE04
:10594400002801D0FEF7E6FE8022236A12021343E8
:10595400236216B010BDC046001002404023054A21
:1059640082B0516919435161526913400193019BFB
:1059740002B07047001002407047FEE7704770475E
:1059840008B5FAF791FC08BD10B5044C206EFBF77E
:1059940055FA606EFBF752FA10BDC046B002002003
:1059A40008B50248FEF7CFF808BDC046B002002093
:1059B40008B5024B186AFBF741FA08BD0418002029
:1059C40008B50248FAF7E2FE08BDC04658020020B6
:1059D40008B5024BD86BFBF731FA08BD580200201A
:1059E40010B504210548FBF78BFC054C201CFBF784
:1059F4006FFF201CFCF776F910BDC0460004004878
:105A0400100800207047704702B4714649084900E5
:105A1400095C49008E4402BC7047C046002243081A
:105A24008B4274D303098B425FD3030A8B4244D362
:105A3400030B8B4228D3030C8B420DD3FF220902A4
:105A440012BA030C8B4202D31212090265D0030B63
:105A54008B4219D300E0090AC30B8B4201D3CB0359
:105A6400C01A5241830B8B4201D38B03C01A52419B
:105A7400430B8B4201D34B03C01A5241030B8B429D
:105A840001D30B03C01A5241C30A8B4201D3CB0288
:105A9400C01A5241830A8B4201D38B02C01A52416D
:105AA400430A8B4201D34B02C01A5241030A8B4270
:105AB40001D30B02C01A5241CDD2C3098B4201D388
:105AC400CB01C01A524183098B4201D38B01C01A06
