:020000040800F2
:1000000000400020D1010008E1370008E337000874
:1000100000000000000000000000000000000000E0
:10002000000000000000000000000000E5370008AC
:100030000000000000000000E7370008E937000872
:10004000A5240008A5240008A5240008A52400086C
:10005000A5240008A5240008A5240008A52400085C
:10006000A5240008A5240008F13700081938000865
:10007000A5240008A5240008A5240008A52400083C
:10008000A5240008A5240008A5240008A52400082C
:10009000A5240008A5240008A5240008A52400081C
:1000A000A5240008A5240008A52400080938000894
:1000B000A5240008A5240008A5240008A5240008FC
:1000C00073B500F0C9F83049304B081C0B600024B0
:1000D000191C2F4A13602F4B2F4DE318AB4204D24B
:1000E0002E4D2D5904341D60F5E700682C4B9842C5
:1000F00003D112682B4B9A4200D0FEE72A4A2B4BC1
:10010000116019602A492B48814202D2002001C1A6
:10011000F9E71268002A02D11D68002D00D0FEE721
:1001200000F09EF8684601A900F08EF8224A234BA1
:10013000161C9B1A9C10A54204DAAB00F358984792
:100140000135F8E71E4A0025161C1E4B9B1A9C1011
:10015000A54204DAAB00F35898470135F8E7009858
:10016000019902F081FF184B051C1E1C174CE41A64
:10017000A410002C04DD013CA300F3589847F8E7D5
:10018000281C00F03FF8C04600000020BABADECAC2
:10019000D000002000000020D4000020104D0008F6
:1001A0007856341232547698D400002098180020E3
:1001B000D40000209C18002004020008040200085B
:1001C00004020008040200080402000804020008F7
:1001D00008B5FFF775FF00BEFEE704207146084230
:1001E00002D0EFF3098001E0EFF308807146044A82
:1001F000104700BEFEE700BEFEE700BEFEE7704708
:04020000F3010008FE
:10020400FEE700000C4A08B51168031C002901D15F
:100214000A4911600321106803338B430849C3184A
:100224008B4206D903F0FAFD0C23036001204042FF
:1002340000E0136008BDC046D80000209C180020D0
:10024400003C002001230360014B0B607047C04653
:100254000400002008B502F0B9F808BD08B502F0A2
:10026400E5F808BD10B5041C00F064FFFA2189000C
:1002740003F0E2FA00F078F80120211C4042002249
:1002840000F02CF8002010BD1021064A08B51368B0
:1002940003200B431360FFF7E5FF00F0C9FB0020C8
:1002A40008BDC04600200240024A136801331360AF
:1002B4007047C046E0000020014B18687047C046F4
:1002C400E000002013B50190FFF7F6FF041CFFF7D0
:1002D400F3FF019B001B9842F9D313BD70B589014C
:1002E400002815DA0F23C0B20340083B124A9B08CA
:1002F40003249B009B18FF222040A040141C844030
:10030400DD691140A54381402A1C0A43DA6112E0E9
:1003140084080A4B0326A400E418FF233040B040AD
:100324001E1CC0258640AD0062591940B24381406D
:10033400131C0B43635170BD00ED00E000E100E0CD
:100344001F2318401E3B8340181C014B1860704744
:1003540000E100E01F2318401E3B8340181C014BA2
:10036400D867704704E100E0094A431E0120934224
:100374000DD8C020074A084953600B6A00061B02C7
:100384001B0A03430B62002007239060136070472D
:10039400FFFFFF0010E000E000ED00E0031C30B5BB
:1003A4000120002B1FD09C1CE27FD2B2002A01D175
:1003B4001918CA7702221868E27701680A4A5D6848
:1003C40011409A682A43DD682A431D692A435D69FE
:1003D4002A439D692A43DD692A430A4302600020B7
:1003E40058630123E37730BD0FC0FFFF70B50123CD
:1003F40000287AD0841CE27F191C022A75D0036875
:100404003B4D1A688A431A6000221A605A609A6047
:10041400DA600232AB421DD036491E328B4219D00B
:10042400354A93420BD0354A93420BD0344A934217
:100434000BD0344A93420BD0802292040AE08022EB
:10044400920007E08022920104E08022920201E0FF
:10045400802292032C494A600822AB421DD0254ECB
:100464007832B34219D0244A93420BD0234A9342A0
:100474000BD0234A93420BD0224A93420BD08022C2
:1004840012050AE08022120107E08022120204E031
:100494008022120301E0802212044A600422AB424B
:1004A4001DD0144D3C32AB4219D0134A93420BD0A9
:1004B400124A93420BD0124A93420BD0114A9342F0
:1004C4000BD08022D2040AE08022D20007E08022EE
:1004D400D20104E08022D20201E08022D203002370
:1004E4004A6043630130E377C377181C70BDC0468C
:1004F400080002401C000240300002404400024058
:10050400580002406C00024000000240F0B5022591
:10051400471CFE7F2C1C012E21D001264419FE7796
:10052400E57704682568B543256063604368102B4C
:1005340002D1A260E16001E0A160E26002222368CE
:1005440013432360236892181343236023680432FF
:10055400134323602368073A134323600024201CB9
:10056400F0BD000070B503688A4D8B4E041C2968E9
:100574000822B3421DD089487832834219D0884A70
:1005840093420BD0874A93420BD0874A93420BD0B5
:10059400864A93420BD0802212050AE0802212017F
:1005A40007E08022120204E08022120301E080228C
:1005B4001204114236D008221968114232D0196847
:1005C40091431960B3421DD0744978328B4219D0DB
:1005D400734A93420BD0734A93420BD0724A9342AC
:1005E4000BD0724A93420BD0802212050AE080227B
:1005F400120107E08022120204E08022120301E0CB
:10060400802212046A600122636B13436363033222
:10061400A31CDA770022631CDA77236B934201D0A0
:10062400201C9847236829680422B3421DD05B48E4
:100634003C32834219D05A4A93420BD0594A9342CE
:100644000BD0594A93420BD0584A93420BD0802284
:10065400D2040AE08022D20007E08022D20104E022
:100664008022D20201E08022D203114233D004213D
:100674001A680A422FD01A68920602D41A688A436A
:100684001A600422B3421DD044493C328B4219D033
:10069400434A93420BD0434A93420BD0424A93427B
:1006A4000BD0424A93420BD08022D2040AE080222B
:1006B400D20007E08022D20104E08022D20201E0CD
:1006C4008022D2036A601122A31CDA77E36A002B2A
:1006D40001D0201C9847236829680222B3421DD008
:1006E4002E481E32834219D02D4A93420BD02D4AF4
:1006F40093420BD02C4A93420BD02C4A93420BD0FA
:10070400802292040AE08022920007E08022920173
:1007140004E08022920201E080229203114238D048
:1007240002211A680A4234D01A68920602D41A685E
:100734008A431A600222B3421DD018491E328B42EA
:1007440019D0174A93420BD0164A93420BD0164A3B
:1007540093420BD0154A93420BD0802292040AE0B4
:100764008022920007E08022920104E0802292021B
:1007740001E0802292036A600122636B6363A31C1D
:10078400DA77A3180022DA77A36A934201D0201CF7
:10079400984770BD00000240080002401C0002405F
:1007A4003000024044000240580002406C00024005
:1007B400F0B50B6887B0029300230191029ADA40E6
:1007C40000D19CE001229A40029C1440009400D184
:1007D40093E0019A54681022271C9743022F0ED1EC
:1007E40007250F211D40AD00A940DA0892008218A8
:1007F400166A8E4301990969A9400E43166202687C
:100804005E0094460322151CB5406146ED43224028
:10081400B24029400A43013F0260012F0FD8019AD8
:100824008768D2682F40B2403A43826001229A40DE
:1008340047689743E206D20F9A403A434260C2683F
:100844001540019A9268B2401543C560E20054D540
:1008540003210F1C1F408C46B9000F2701268F402F
:10086400284A95693543956192699D0832400592FD
:10087400059A254AAD00AD18AA68BA439027039299
:10088400FF050022B84211D0321C204EB0420DD0D8
:100894001F4E9218B04209D01E4E6246B04205D097
:1008A4001D4A8218574257410526F21B8A40039974
:1008B4000A430099AA600E1C184ACD4317683E43A8
:1008C400E10301D43E1C2E4016605768009E3E434F
:1008D400A10301D43E1C2E4056609768009E3E43FF
:1008E400E10201D43E1C2E409660D668009F374337
:1008F400A10201D42E40371CD76001335EE707B054
:10090400F0BDC04600100240000001400004004851
:1009140000080048000C004800F0FFB70004014044
:100924000023F0B585B00291029ADA4061D0012229
:100934009A4094466146029A0A40019257D003268F
:10094400341C5A009440E2430F250168DC0811402E
:10095400A40001600419216A2F1C03910721194086
:1009640089008F40391C039F8F4327626446816846
:10097400114081604168A1431C1C3440A400A5407F
:100984004160C1680A40C26099081B4A89008918FD
:100994008F6800222F40BC469027FF05B84211D033
:1009A400164F0132B8420DD0154F0132B84209D06A
:1009B400321C144EB04205D0134A8218564272417A
:1009C4000526B21AA240944511D18A68AA438A60C6
:1009D40001990E4AC94314680C40146054680C40D1
:1009E400546094680C409460D4682140D160013311
:1009F4009AE705B0F0BDC04600000140000400487D
:100A040000080048000C004800F0FFB70004014053
:100A140000690840411E8841C0B27047002A01D0D5
:100A2400816100E0816270474369594041617047C8
:100A340070470000F0B5036885B0041CDB0703D4DD
:100A440023689B075ED4A8E00C23C14D6A681A4052
:100A5400042A0BD06A681340082B0ED1C0236A689D
:100A64005B02134080225202934206D12B689B03FF
:100A7400E6D56368002BE3D191E12B68B54FB64E00
:100A84003B402B602B6833402B60FFF715FC019033
:100A94002A68AF4B920308D5FFF70EFC019BC01ADE
:100AA400AE4B9842F4D90320FAE16268012A12D0CD
:100AB400002A09D11A6817401F601A6816401E6080
:100AC400FFF7FAFB061C19E0052A0AD180211A68EF
:100AD400C9020A431A6080211A6849020A431A604B
:100AE400CCE11A6817401F601A6816401E60C5E101
:100AF400FFF7E2FB994B801B9842D4D82B689B03E9
:100B0400F6D49DE70C23924D6A681A420BD06A68AA
:100B14001340082B16D1C0236A685B02134080225D
:100B2400120293420ED12B689B0703D5E368012B75
:100B340000D034E1F8212B6822698B43D20013439F
:100B44002B602AE0E3680122002B17D02B681343A3
:100B54002B60FFF7B1FB061C2B687D499B0705D46E
:100B6400FFF7AAFB801B6428F6D99CE7F8200B68E2
:100B740022698343D20013430B600EE02B68934336
:100B84002B60FFF799FB061C2B689B0705D5FFF725
:100B940093FB801B6428F7D985E723681B0703D4DC
:100BA40023685B072DD530E0236A0122684D002BB2
:100BB4000ED06B6A13436B62FFF77EFB061C6B6AF5
:100BC4009B07EDD4FFF778FB801B6428F7D96AE70D
:100BD4006B6A93436B62FFF76FFB061C6B6A9B07A0
:100BE400DED5FFF769FB801B6428F7D95BE7FFF7C5
:100BF40063FB5A4B801B984200D954E72B6A9B072E
:100C0400F5D52368DB0663D4ACE08023504D5B0547
:100C1400EA69534E1A43EA61EA6913408022039356
:100C2400039B3368520013433360FFF745FB071CF3
:100C34003368DB0505D4FFF73FFBC01B6428F7D9F5
:100C440031E701222B6A93432B622B6A03329343CD
:100C54002B62FFF731FB061C2A6A3D4B920706D52F
:100C6400FFF72AFB3D4B801B9842F5D91BE7A2688E
:100C7400012A02D1196A0A431DE00121002A0AD17E
:100C84001A6A8A431A621A6A03318A431A62FFF79C
:100C940013FB061C18E0052A07D104201A6A024334
:100CA4001A621A6A11431962F6E01A6A8A43042125
:100CB4001A621A6A8A431A62EEE0FFF7FDFA274BBA
:100CC400801B984200D9EEE62B6A9B07F5D498E77F
:100CD40062691F4D0423012A1AD1696B0B436B63AC
:100CE4006B6B1A436A63FFF7E7FA061C6B6B1849D0
:100CF4009B0705D4FFF7E0FA801B6428F6D9D2E6F7
:100D0400F8204B6BA2698343D20013434B6329E061
:100D140005320AD1F8216A6B9A436A636B6BA26944
:100D24008B43D20013436B631CE06A6B13430122B1
:100D34006B636B6B93436B63FFF7BEFA061C6B6BC1
:100D44009B070FD5FFF7B8FA801B6428F7D9AAE6EA
:100D540000100240FFFFFEFFFFFFFBFF88130000AF
:100D64000070004023689B0603D4626A002A3CD1C9
:100D740067E00C234B4D6A681A409A4209D06A68AE
:100D84001340082B0DD1C0226B68520213409342CA
:100D940007D16B6BDB03E8D5E369012BE5D00120B8
:100DA4007EE0E369002B10D080226B6B5202134368
:100DB4006B63FFF781FA061C6B6BDB03D5D4FFF77B
:100DC4007BFA801B6428F7D96DE66A6B364B1340B7
:100DD4006B63FFF771FA061C6B6BDB03C5D5FFF77A
:100DE4006BFA801B6428F7D95DE60C232D4D6968E6
:100DF4000B40082BD3D02D4B022A30D12A68134044
:100E04002B60FFF759FA061C2A68264B92011AD464
:100E14000F21DA6A8A43216B0A43DA62E16AA06A23
:100E24005A68084322490A40802102435A601A68DA
:100E340049040A431A60FFF73FFA041C2B689B011C
:100E440007D500202CE0FFF737FA801B6428DBD994
:100E540029E6FFF731FA001B6428EFD923E62A6854
:100E640013402B60FFF728FA041C2B689B01E8D57C
:100E7400FFF722FA001B6428F7D914E6FFF71CFADF
:100E8400061C2B689B0300D5DAE5FFF715FA094B1E
:100E9400801B9842F5D906E6FFF70EFA061CADE66C
:100EA40005B0F0BD00100240FFFFFEFFFFFFFFFE94
:100EB400FF7FC2FF881300000123F7B57B4A0E1C95
:100EC4001168041C1940171C8E4277D91168994384
:100ED4003143116012681340B34201D00120E3E0B2
:100EE4000268930706D5F02071494B688343A068D4
:100EF40003434B60D3070BD423685B0700D4CFE0D4
:100F04006B496C4B4A681340E26813434B60C7E07B
:100F14006368674D012B03D12A6892030FD4DDE780
:100F2400022B03D12A68920109D4D7E7032B03D1FA
:100F34006A6BD20303D4D1E72A689207CED5032182
:100F44006A688A4313436B60FFF7B6F96368061C4B
:100F5400012B0CD10C236A681340042BCCD0FFF76F
:100F6400ABF9554B801B9842F4D903209CE0022B2B
:100F74000BD10C236A681340082BBDD0FFF79CF9F2
:100F84004D4B801B9842F4D9EFE7032B11D10C236E
:100F94006A6813400C2BAFD0FFF78EF9464B801BC9
:100FA4009842F4D9E1E7FFF787F9434B801B984255
:100FB400DBD80C236A681A42F5D19DE702689307CF
:100FC40006D5F0203A494B688343A06803434B603D
:100FD400D3070AD401223B68934333433B603B6805
:100FE4001A40B24200D079E786E76368304D012B9E
:100FF40003D12A68920310D470E7022B03D12A6824
:1010040092010AD46AE7032B03D16A6BD20304D496
:1010140064E72A68920700D460E703216A688A4378
:1010240013436B60FFF748F963680190012B0CD1FF
:101034000C236A681340042BCCD0FFF73DF9019BC5
:10104400C01A1D4B9842F3D98FE7022B0CD10C2305
:101054006A681340082BBDD0FFF72EF9019BC01A14
:10106400154B9842F3D980E7032B14D10C236A68FB
:1010740013400C2BAED0FFF71FF9019BC01A0E4B87
:101084009842F3D971E7FFF717F9019BC01A0A4B8D
:10109400984200D969E70C236A681A42F3D199E7A8
:1010A4000320FFF7DFF80020FEBDC0460020024009
:1010B40000100240FFF8FFFF8813000030B5194C00
:1010C40089B0211C1022684602F0B8FE211C04AD30
:1010D40010311022281C02F0B1FE0C2212494B6878
:1010E4001A40082A03D00C2A19D1104818E068467F
:1010F4009A02120F845C0F22C96A80200A40A95CFC
:10110400C022520213404002834206D0934204D1CB
:10111400064802F091FB604302E00548F9E7044801
:1011240009B030BDDC48000800100240006CDC024D
:1011340000127A0008B5FFF7C1FF054B054A5B684A
:101144001B061B0FD35CD840034B186008BDC04678
:1011540000100240FC4800081C00002008B5FFF7FE
:10116400E9FF044B044A5B685B055B0FD35CD84022
:1011740008BDC04600100240FC480008F0B585B028
:10118400041C0E1C171C1D1CFFF796F80190226806
:1011940093683340BB4242D0C023DB009E4206D159
:1011A400002F04D1137B02A9DBB2CB71CB796B1C6A
:1011B400EED0002D0AD1E02123685A688A435A6090
:1011C400822261685200914214D106E0FFF774F85C
:1011D400019BC01AA842DAD3EDE78021A268090274
:1011E4008A4203D08021C9008A4203D140211A686F
:1011F4008A431A608022A06A9201904206D11A683A
:101204000849114019601A6802431A60231C01221C
:101214005D331A7000235C342370032000E0002047
:1012240005B0F0BDFFDF0000F7B5041C0E1C0192F1
:101234001D1CFFF741F8071C22689368019933408D
:101244008B4236D06B1CF8D0002D0AD1E0212368E4
:101254005A688A435A60822261685200914213D1CB
:1012640005E0FFF729F8C01BA842E5D3EEE780218B
:10127400A26809028A4203D08021C9008A4203D1AC
:1012840040211A688A431A608022A06A920190421F
:1012940006D11A680849114019601A6802431A6095
:1012A400231C01225D331A7000235C342370032055
:1012B40000E00020FEBDC046FFDF000038B50D1C75
:1012C400C021002249012B1C041CFFF757FF021EFA
:1012D40006D1201C80212B1CFFF7A6FF002804D078
:1012E40020230320226E1343236638BDF8B501235F
:1012F40000285DD0051C5D352B78041CDBB2002B67
:1013040004D1021C5C32137002F01CFA0223402147
:101314002B702368E0681A6800268A43E0211A606B
:10132400C900884205D9F0221201904206D1321C2C
:1013340006E080225201884201D101E0321CA662FB
:10134400266B002E05D1884201D9022100E001213B
:1013540021636768A668A1693E4327693E436769BC
:101364003E43E7693E43276A3E43A76A3E438027DC
:10137400BF000F403E431E60266B022E04D180271F
:101384001E683F013E431E60666A090C3043666B6B
:1013940006430420014031430A435A60E26A1A6159
:1013A400D969044A0A40DA610023012223662A70BB
:1013B400181CF8BDFFF70000F0B5041C87B01F1C13
:1013C400029103920C9EFEF777FF231C5C3301907D
:1013D40000931B780220012B00D131E10123009AF4
:1013E400051C1370221C5D321378DBB2012B00D074
:1013F4001FE102991D1C002900D11AE1039900295B
:1014040000D116E1002F00D113E10433137000233F
:101414002366231C802208332164DF87A31DDF8712
:10142400A06A029BE787A363A7872368920190427F
:1014340006D11A688349114019601A6802431A6078
:10144400E022E168D200914201D8012F03D9586803
:101454007D4A024003E080205A6840010243402054
:101464005A601A68024202D11A6802431A60251CA3
:10147400E0230835DB00994246D9E38F002B30D0B6
:1014840022689168890714D5A16B013B09889BB236
:10149400D160A16BE3870231A163002B09D18023C2
:1014A400A16A9B01994204D18021136849010B432D
:1014B4001360EB8F002B0BD022689368DB0707D5F2
:1014C400236CD2681A8002332364EB8F013BEB87D1
:1014D400731CD2D0FEF7F0FE019BC01AB042CCD3ED
:1014E4006CE0EB8F002BE4D18023A26A9B019A422B
:1014F40000D086E056E021688A68920708D4E98F14
:10150400002925D1731C42D1E38F002BF3D145E090
:10151400A26B012B06D91288023BCA60A26B02326D
:10152400A26305E0531CA36313780B73E38F013BA1
:10153400E387E38F002BE2D18023A26A9B019A42C6
:10154400DDD180212268490113680B431360D6E77B
:1015540022689368DB07D5D5236C01290FD9D1689C
:10156400198002332364EB8F023B9BB2EB87012B80
:10157400C8D88021536849010B435360C2E7591C02
:101584002164127B1A70EB8F013BEB87BAE7FEF7FD
:1015940093FE019BC01AB042B6D30FE0EB8F002B31
:1015A400ADD1A1E70121201C0A1C331CFFF73CFE2E
:1015B400002805D00223226E13432366032538E056
:1015C40004AA951DF022E16823681201914202D118
:1015D400DB689BB213E01B7B276B2B802B88022FCD
:1015E4000FD10121201C0A1C331CFFF71DFE00280B
:1015F40003D0236E1F432766E0E723681B7B2B8001
:101604002B88226800259368DB0606D50223216E09
:1016140001350B4323660D4B9360201C311CFFF7EF
:101624004DFE002801D020232366236E002B00D01A
:10163400012501235D3423700023281C009A1370B4
:1016440007B0F0BDFFDF0000FFEFFFFFEFFF00007A
:10165400012270B57324036A93430362036A4268E8
:101664008569A5430C6825430224A3438C6823435E
:10167400144CA04208D0144EB04205D0134EB042D0
:1016840002D0134EB04216D10826B343CE6833437A
:101694000426B343A04208D00B4CA04205D00B4C07
:1016A400A04202D00A4CA04205D10A4C4E69224005
:1016B4008C693443224342604A6885614263036211
:1016C40070BDC046002C0140004001400044014070
:1016D40000480140FFFCFFFF026A194B30B513407C
:1016E40003627323046A4268C5699D430B681D4302
:1016F400144B23408C6824022343134CA04207D18B
:10170400124C2340CC6824022343114C234005E0AF
:10171400104CA04202D0104CA0420DD10F4C2240DC
:101724004C69240122438C692401224342604A68A3
:10173400C561C263036230BD094CA042F6D1EDE736
:10174400FFFEFFFFFFFDFFFF002C0140FFF7FFFF3F
:10175400FFFBFFFF0040014000440140FFCFFFFFBB
:1017640000480140026A144B70B513400362066AD4
:10177400124C0A684368C569254014022543104A7F
:101784008C683240240322430E4CA04208D00E4CF5
:10179400A04205D00D4CA04202D00D4CA04204D171
:1017A4000C4C23404C69A401234343604B68C5613E
:1017B4000364026270BDC046FFEFFFFFFF8CFFFFB2
:1017C400FFDFFFFF002C01400040014000440140C6
:1017D40000480140FFBFFFFF704710B5446A012372
:1017E400221C39321370226A90420DD0636A9842E7
:1017F40001D1022308E0A36A984201D1042303E043
:10180400E36A984201D108232376201CFFF7E4FF02
:101814000023237610BD7047406A08B5031C0122DB
:1018240039331A70FFF7F7FF08BD00001E4A10B5E0
:101834000368904206D08024E405A04202D01B4CE9
:10184400A0420CD17024A3434C682343904212D08D
:101854008024E405A0420ED0144CA0420BD0144CBA
:10186400A04208D0134CA04205D0134CA04202D091
:10187400124CA04203D1124C2340CC682343036092
:101884008B68C3620B688362904208D0094B98420C
:1018940005D0094B984202D0084B984201D10B69FC
:1018A40003630123436110BD002C01400004004088
:1018B4000020004000400140004401400048014035
:1018C400FFFCFFFF38B50123002814D0051C39356F
:1018D4002B78041CDBB2002B04D1021C38321370A9
:1018E40001F0E0FE0223211D2B702068FFF79EFF0C
:1018F40001232B700023181C38BD00001022036A3A
:1019040030B593430362036A174C426885692C40DF
:101914000D682D022C432025AB438D682D012B43EC
:10192400124DA84207D18025AB43CD682D012B432E
:101934004025AB4305E00E4DA84202D00D4DA84210
:101944000DD10D4D2A404D69AD002A438D69AD007E
:101954002A4342604A6884618263036230BD074D52
:10196400A842F6D1EDE7C046FF8CFFFF002C0140F2
:101974000040014000440140FFF3FFFF00480140E4
:10198400F8B5061C022438363578231C012D59D0AD
:10199400071C013B393733703C700C2A4ED8041CA9
:1019A400101C0D1C01F03EFF074A4A4A164A4A4AD7
:1019B400294A4A4A38002068FFF74AFE082123686A
:1019C4009A690A439A619A6904398A439A619969BE
:1019D4002A690FE02068FFF791FF8021236809013D
:1019E4009A690A439A619969174A0A409A612A696D
:1019F400996912020A439A6120E02068FFF76CFE9D
:101A040008212368DA690A43DA61DA6904398A4306
:101A1400DA61D9692A690FE02068FFF7A3FE802103
:101A240023680901DA690A43DA61D969064A0A4076
:101A3400DA612A69D96912020A43DA6101233B7027
:101A440000233370181CF8BDFFFBFFFF10B5012401
:101A54008C408A40036AA3430362036A1A43026206
:101A640010BD000070B5061C041C022039360D1C84
:101A7400317881426DD03078C0B2012805D1002A76
:101A840001D1002B65D102213170111C0C2D42D8DB
:101A9400281C01F0C7FE0740404015404040234049
:101AA40040403100206A2B4A82622B4A026322683A
:101AB4003432FEF72BFD802122688900D36828E0A8
:101AC400606A244A8262244A026322683832FEF73A
:101AD4001DFD80212268C900D3681AE0A06A1D4A4E
:101AE40082621D4A026322683C32FEF70FFD8021A8
:101AF40022680901D3680CE0E06A164A8262164A39
:101B0400026322684032FEF701FD80212268490108
:101B1400D3680B43D36001222068291CFFF796FF8A
:101B240023680E4A93420ED00D4A93420BD00D4ABD
:101B3400934208D00C4A934205D001211A68002030
:101B44000A431A6005E080215A6C09020A435A6468
:101B5400F3E770BDDF1700081D180008002C0140D2
:101B640000400140004401400048014070B5012498
:101B7400002812D0061C0223693633700368051C42
:101B84001A686835A24300241A601C605C609C607B
:101B940001F03AFD6C6034702C70201C70BD0000A4
:101BA400131C021C70B56932041C1078012803D080
:101BB40015780220222D2ED1012000292BD0002BB4
:101BC40029D0251C68352E780018012E23D0013821
:101BD4002870201C5030E164038043800020E066BC
:101BE4001078222801D1103000E012201070206EED
:101BF400094A8262094AC262094A02632268283297
:101C0400FEF784FC40228021002023681A629A682F
:101C14000A439A60287070BDAD1C0008DF1C0008E0
:101C24002F1D0008131C021C70B569320E1C11789C
:101C3400041C012903D01178022012292CD101207F
:101C4400002E29D0002B27D0251C683529780018B0
:101C5400012921D001212970211C583166650B808E
:101C64000021E1661178122901D1203100E02221FE
:101C74001170606E094A21688262094A2431C26285
:101C8400084A0263321CFEF741FC4021002022680E
:101C940093680B439360287070BDC046E91C00082C
:101CA400231D00082F1D000808B50368426A19683F
:101CB40020230B400CD1111C52310B80802113685E
:101CC4009A688A439A601A6840390A431A6002E0A3
:101CD400101C00F0BBFF08BD704708B5406AFFF751
:101CE400FBFF08BD026808B511682022436A0A4058
:101CF40010D1191C40205A310A8019688A6882431D
:101D04008A601A1C69321178322901D1203900E025
:101D140001211170181C00F09FFF08BD704708B521
:101D2400406AFFF7FBFF08BD7047406A08B5021C14
:101D340000235A321380083A1380031C01226933AA
:101D44001A70C36E0F321343C366FFF7EDFF08BD6D
:101D540070B5041C0568C369A16800692A68084352
:101D640061690843494918430A4002432A60696883
:101D7400474A206A0A40E1680A43A1696A60AA687E
:101D8400084344490A400243AA60434A95420AD19F
:101D9400424A116B03220A404149885C80221202A4
:101DA400934253D11FE03F4A954215D1C02080266B
:101DB40080213A4A8002126B760202400902B24242
:101DC40025D002D8002A17D031E08026B602B242CC
:101DD40023D0824217D02AE0334A95420CD0334AAA
:101DE400954224D108E0082825D801F01BFD0924D8
:101DF4000E241224242418008022120293422ED18D
:101E0400FFF7ACF907E08B422CD1294809E08B425B
:101E14002AD1FFF753F9400003E08B422BD18020F5
:101E24004002616801F008FD83B2002005E08022D1
:101E34001202934227D1012000230F221D1C1340BC
:101E4400954321685B102B43CB601DE008281AD80A
:101E540001F0E8FC051908190A1919191100FFF70E
:101E64007DF903E0134801E0FFF728F9616801F008
:101E7400E3FC80B204E080206168000201F0DCFC35
:101E8400E860002000E0012070BDC046F369FFEF68
:101E9400FFCFFFFFFFF4FFFF0038014000100240B6
:101EA4000C4900080044004000480040004C004039
:101EB4000024F40000127A00436A30B5DA0706D52C
:101EC4000168284A4C682240846A22434A609A077F
:101ED40006D50168244A4C682240C46A22434A60F9
:101EE4005A0706D50168214A4C682240046B2243F4
:101EF4004A601A0706D501681D4A4C682240446BA3
:101F040022434A60DA0606D501681A4A8C682240E0
:101F1400846B22438A609A0606D50168164A8C6847
:101F24002240C46B22438A605A0610D50168134AC2
:101F34004D68046C2A4022434A6080225203944232
:101F440005D14C680E4A2240446C22434A601B0669
:101F540006D501680B4B4A681340826C13434B60EF
:101F640030BDC046FFFFFDFFFFFFFEFFFFFFFBFF8D
:101F7400FF7FFFFFFFEFFFFFFFDFFFFFFFFFEFFF2D
:101F8400FFFF9FFFFFFFF7FFF7B51D1C041C0E1C8E
:101F94000192FEF791F9019B071C002B36D12268B0
:101FA400D3693340B3420FD06B1CF9D0002D0FD04E
:101FB400FEF782F9C01BA842F1D909E06B1C05D1D8
:101FC400D3693340B342F9D0002021E0002D18D169
:101FD4008021236803201A688A431A601A686039CA
:101FE4008A431A6019680B4A0A4001211A609A68E8
:101FF4008A439A60231C6933197000236834237060
:1020040006E0FEF759F9C01BA842E1D82268D7E7D9
:10201400FEBDC046FFFEFFFFF7B5051C0193693501
:102024002B78041C0E1C012B03D02B780220222BAE
:102034004DD10120002E4AD0002A48D0271C6837F1
:102044003B780018012B42D001233B700023E36648
:102054002B78222B01D1103300E012232B70231C88
:1020640050331A805A80231C52331A88002A1ED0F7
:10207400013A1A80201C80210022019BFFF784FF73
:10208400002801D0032022E08023A16822685B019C
:10209400994208D12369002B05D133880236DB0528
:1020A400DB0D1385DFE7337801361385DBE7201C6E
:1020B4004021019BFFF768FF0028E3D12B78322BE6
:1020C40001D1103B00E001232B7000233B70FEBDC7
:1020D400002310B5184AC3660368041C93420AD04F
:1020E400164A934207D0231C012200206933683426
:1020F4001A7020701EE01B681B0704D423681B6839
:102104005B07F0D50BE08021FA23201C8903002211
:102114009B00FFF739FF0028F0D003200AE080215C
:10212400FA23201CC90300229B00FFF72DFF00287F
:10213400F3D1D8E710BDC046003801400044004048
:1021440038B5002801D101202DE0051C69352B7814
:10215400041CDBB2002B04D1021C6832137001F0A2
:1021640093F90223012122682B701368201C8B43EE
:102174001360FFF7EDFD0128E5D0636A002B02D060
:10218400201CFFF799FE2368074A5968201C0A405F
:102194002A215A609A688A439A601A6829390A433C
:1021A4001A60FFF795FF38BDFFB7FFFF031C70B53A
:1021B40069331978021C122903D01B780220322BB0
:1021C40025D1151C52352B881168002B08D180208D
:1021D4000A6882430A600A68403802430A6015E0CC
:1021E40080249668D06C6401A64209D11469002C3D
:1021F40006D104880230E405E40D0C85D06403E0C4
:10220400441CD46402780A85581E2880002070BDBE
:102214004021036810B51A688A431A60021C6932A7
:102224001178322902D12223137004E00124996821
:10223400A1439960147000F009FD002010BD000056
:10224400031C021C70B55C33693219881378222B85
:1022540003D013780224322B34D180258668436D51
:1022640004686D01AE4208D10569002D05D1A48C26
:10227400214019800233436504E05D1C4565A48C4C
:1022840021401970011C00245A310B88013B9BB278
:102294000B80A34216D1036820341968A143196046
:1022A4001178322902D11223137008E01C68064900
:1022B4002140012419609968A1439960147000F0C9
:1022C400CBFC0024201C70BDFFFEFFFF70470122E1
:1022D400036810B5D969041C114209D01968C905ED
:1022E40006D51A62C16E1143C166011C69310A70B8
:1022F4000222D96911420BD001219868084207D003
:1023040004201A62E26E0243E266221C69321170F2
:102314000422D96911420BD001219868084207D0E0
:1023240002201A62E26E0243E266221C69321170D4
:102334000822D96911420AD001219868084206D0BE
:102344001A62E36E1343E366231C69331970E36E68
:10235400002B02D0201CFFF7E7FC802223685203E5
:10236400D96911420AD09968490207D51A62231C17
:10237400012269331A70201CFFF7A8FF202322686A
:10238400D16919420AD012681A4207D0201CFFF7FB
:1023940057FF0821226893690B43936180232268C5
:1023A400D169194205D012681A4202D0201CFFF7E5
:1023B400FDFE40232268D169194205D012681A42F1
:1023C40002D0201CFFF724FF10BD00000121114B97
:1023D4001A680A431A6058680F4A02405A6018681B
:1023E4000E4A02401A6018680D4A02401A60586882
:1023F4000C4A02400F205A60DA6A8243DA62186B90
:10240400094A02401A635A6B8A435A6300229A604B
:102414007047C046001002400CB8FF08FFFFF6FEEC
:10242400FFFFFBFFFFFFC0FF2CFEFCFFF8B50C23F2
:10243400164E174D72681340042B01D0082B02D09E
:10244400144B2B6018E00F2374687268F16AC0277C
:1024540019408023A4027F02240F3A400234013140
:102464005B029A4203D0BA4201D10B4800E009480A
:1024740001F0E2F944432C607368084A1B061B0F01
:10248400D35C2A68DA402A60F8BDC04600100240D6
:102494001C00002000127A00006CDC020C000020FA
:1024A400FEE70000014B18607047C046E4000020BE
:1024B40073B50D4C0D4D061C297820680022FEF7DB
:1024C400ADFA0B4B1868002808D064220092094A20
:1024D400B3B21168084A1268FEF76EFF29782068C3
:1024E4000122FEF79BFA73BDF4000020EC000020EB
:1024F400FC000020F80000200001002008B5034B78
:102504001B68002B00D0984708BDC046E40000209B
:10251400F8B50C1C144E154D3460154C2B6022601C
:10252400144B069A08A91A60079A134B134F1A60A2
:102534000978134B38601970101C89B20122FEF718
:102544006DFA3B680B4F002B02D10E48FFF7D6FF04
:102554002A683068002101F07AFC3A68206800217A
:1025640001F075FCF8BDC046F8000020F000002022
:1025740000010020E8000020F4000020FC000020FE
:10258400EC0000201049000807B5064A031C106837
:10259400002806D064220092034A9BB21268FEF718
:1025A4000BFF07BDFC00002000010020062208B537
:1025B400034B01201B681A70FFF77AFF08BDC04661
:1025C400F8000020052208B5044B03201B681A708C
:1025D400FFF76EFF024B1B68587808BDF800002017
:1025E40000010020032208B5074B1B681A70020C77
:1025F4005A70020AD8709A70081DFFF759FF034BEE
:102604001868043008BDC046F8000020000100200E
:10261400AB2208B5034B01201B681A70FFF748FF73
:1026240008BDC046F800002007B59022094B0620DB
:102634001B681A7000225A709A70DA70FFF738FF1C
:10264400FF20054B1B685A791B7902401840000291
:1026540010430EBDF80000200001002007B59F22A2
:10266400094B04201B681A70FFF722FFFF21074B58
:102674001A68507893780840D2780B401B04000203
:102684001206184310430EBDF8000020000100207C
:102694001FB5FFF7C9FF0190FFF7E0FFFF2201AB71
:1026A4001C78010A030C1140144009021A40120458
:1026B4002143000E11430306081C184304B010BD47
:1026C4000123021C13B5440881061A4023401B024F
:1026D400090F09041A43C0090A430306101C1843CE
:1026E40016BD07B5FFF76EFFFFF7EAFFC0B200287B
:1026F400F8D107BD13B5041CFFF758FFFFF762FFBD
:10270400FFF7DEFF000AC0B20028F5D00122044B17
:1027140002201B681A705C70FFF7CAFE13BDC04626
:10272400F800002013B5041CFFF740FFFFF74AFF31
:10273400FFF7C6FF000AC0B20028F5D02022094BDB
:1027440004201B681A70220C5A70220A9A70DC70DA
:10275400FFF7AEFEFFF736FFFFF7B2FFC0B2002867
:10276400F8D113BDF8000020F0B5051C0F1C87B08C
:102774000392FFF71BFFFFF725FFFFF7A1FF000AF6
:10278400C0B20028F5D0281CFFF7CCFFFFF70EFFDE
:10279400FFF718FFFFF794FF000AC0B20028F5D036
:1027A4000222134C134E236830681A702A0C5A7094
:1027B400DD702A0A104D9A7029780022FEF72EF94E
:1027C4000E4B1868002807D0642300930C4B216833
:1027D4001A680423FEF7F0FD381C0399FFF7D4FEB2
:1027E400297830680122FEF719F907B0F0BDC04618
:1027F400F8000020F4000020EC000020FC00002081
:102804000001002073B5FFF75BFF002401AE0190C7
:10281400050A1448FFF772FE211C307800F0C2F854
:10282400EDB2FFF76BFE1048FFF768FE211C281C71
:1028340000F0B8F8FFF762FE0C48FFF75FFE211CBA
:10284400B07800F0CDF8FFF759FE0948FFF756FEBF
:10285400211C281C00F0A6F8FFF750FE0548FFF7DE
:102864004DFE73BD344900083A4900084249000846
:102874004A490008924B000813B501AC0190124874
:10288400FFF73CFE207800F0C3F8FFF737FE0F484F
:10289400FFF734FE607800F0BBF8FFF72FFE0C481A
:1028A400FFF72CFEA07800F0B3F8FFF727FE0948E5
:1028B400FFF724FEE07800F0ABF8FFF71FFE0648B0
:1028C400FFF71CFE13BDC046524900085A490008D0
:1028D4006449000870490008924B0008F8B50C1CC4
:1028E400FFF780FE0023071CA34212D21D1C1035E3
:1028F400A3420ED0F85C5E1C00F08AF8FFF7FEFDE0
:10290400AE4201D0331CF3E70248FFF7F7FD2B1C5E
:10291400EAE7F8BD924B0008F8B5041C0D1C1D48ED
:10292400FFF7ECFD0021201C00F05AF8FFF7E6FD4C
:102934001948FFF7E3FD0021601900F051F8FFF793
:10294400DDFD1648FFF7DAFD80239B009D4219D96F
:1029540000276E0A760236198021EB1B8900201CA1
:102964008B4205D9FFF7BAFF80239B00FF1803E0D1
:10297400191CFFF7B3FF2F1C80239B00E418B442FB
:10298400EAD103E0201C291CFFF7A8FF0448FFF745
:10299400B5FDF8BD7A49000890490008924B00083B
:1029A40095490008002370B5061C0D1C0B4CE373FD
:1029B4000F34301C291C0A22002300F0CFFF013CF5
:1029C40030322270301C291C0A22002300F0C6FF7A
:1029D400061C0D1C0843ECD1201C70BD17010020FF
:1029E4001FB50202120E084C00920204030E120ECE
:1029F400C0B2019202901021201C044A01F0FAFA9C
:102A0400201C04B010BDC046040100209E490008EB
:102A140010B5044C031C0321201C034A01F0EAFAFC
:102A2400201C10BD14010020AA490008F0B587B08D
:102A34000392019101F012FB0421071C012001F013
:102A4400E1F90199051C05AA381C01F075FB012365
:102A5400061C00240093002E19D0009B9C4206D132
:102A64006300281CE100009301F0A6FA051CA300F2
:102A7400EB18301C029301F0F1FA029B01991860E3
:102A840005AA002001F058FB0134061CE3E7002CE2
:102A940004D1281C01F0C8F9251C04E0281CA1005D
:102AA40001F08AFA051C039B381C1C6001F0BCF978
:102AB400281C07B0F0BD000008B50348042101221A
:102AC400FDF7ACFFFEE7C0460004004810B5074B15
:102AD4009B7C002B08D0041C01F0DDFA211C82B27F
:102AE400034B0448FFF798FA10BDC046FC100020C1
:102AF4008813000094130020074B084A1A600A2226
:102B04005A608C329A6000229A819A730132DA7385
:102B14001A745A749A747047FC100020CB71020026
:102B240030B5142187B0051C0020FFF75BFD01AC14
:102B3400011C1422201C01F081F92B1C07CC07C3B3
:102B4400281C06CC06C307B030BD000070B50024B5
:102B540000251348FFF7BAFF291C201CFFF722FFAA
:102B6400FFF7B4FF0F48FFF7B1FF0F4EA319187812
:102B7400FFF74EFFFFF7AAFF0C48FFF7A7FF01225C
:102B84000023A4185D41142CE3D1002DE1D1281CAD
:102B9400321C211CFFF7E8FDFFF7A3FD70BDC04602
:102BA400784A0008914A0008FC100020924B000863
:102BB400F0B587B001ACFFF794FD201CFFF7B0FF20
:102BC4001B48019EFFF782FF1A4D00212868FFF77A
:102BD400E9FEFFF77BFF1848FFF778FF0021301C60
:102BE400FFF7E0FEFFF772FF144F381CFFF76EFF8C
:102BF4001348FFF76BFF00211420FFF7D3FEFFF704
:102C040065FF381CFFF762FF2B689E4208D12B1C1E
:102C140007CC07C30B4806CC06C3FFF757FF04E0F5
:102C24000948FFF753FFFFF791FF07B0F0BDC04617
:102C34009C4A0008FC100020944A0008924B0008AB
:102C4400AA4A0008CC4A0008E84A00080122014BBD
:102C54001A7070474401002038B500240F4D104805
:102C6400042101222C70FDF7D9FE0E4B0E49187871
:102C74000E4B1A780A2805D18C5401210C4A1C7079
:102C8400117004E0541C1C70012388542B700448F8
:102C940004210022FDF7C2FE38BDC04644010020D5
:102CA40000040048C6150020341000202D01002027
:102CB4002C01002010B5041C01F0EDF9211C82B296
:102CC4000648FEF76DFF002801D0FFF7F5FE044B20
:102CD4001A78012AFBD100221A7010BD10110020AD
:102CE40044010020F0B587B004920593002211231B
:102CF4000190039101998A424BD20724191C01982F
:102D04000A39091B461E89B2B24208D3049D224FD8
:102D14002541E80701D5292500E014257D54013C0F
:102D2400ECD2191C0725083989B24C1EA4B2B24250
:102D34000AD3194FBC46039F2F41F80701D5292711
:102D440000E0142760460755013189B2013D9942DC
:102D5400EBD1191C083189B202910725191C4C1EAC
:102D6400A4B2B2420AD3059F0B482F418446F80708
:102D740001D5292700E01427604607550131029840
:102D840089B2013D8142EAD101321833D2B29BB2F9
:102D9400B0E707B0F0BDC046FC010020F0B5264BFB
:102DA40085B05B680290019394461123002003913F
:102DB400019A90423DD207211A1C039C0A3A0C4105
:102DC400521A92B21D4DE40701D5292400E01424BF
:102DD400AC540139F0D21A1C0724083A92B2029D6D
:102DE400511E254189B2154EED0701D5292500E074
:102DF4001425013292B27554013C9A42EFD11D1C44
:102E0400191C07260835ADB2674637414C1EA4B2DB
:102E14000A4AFF0701D5292700E01427013189B2A6
:102E24001755013EA942EFD101301833C0B29BB20D
:102E3400BEE705B0F0BDC046FC100020FC01002038
:102E440008B50B1C09021A04090E120EDBB2FFF7B7
:102E540049FF08BD54280AD80322131C43438100A8
:102E6400411A0139C9B2D8B20902000418E0A928EC
:102E74000CD8031C0322553BDBB29800181A5343A9
:102E84000138C0B20004DBB218430AE00322563012
:102E9400C3B29800181A53430138C1B2D8B2000221
:102EA40008437047F8B5071C0024074DA600381CDA
:102EB400715901F0F7F8002801D0705902E001348B
:102EC400122CF2D1F8BDC0462000002008B50248FB
:102ED400FFF7F0FE08BDC046044B0008F0B55149A9
:102EE40089B0041C01F0DEF8002800D198E0201C11
:102EF400FFF7D8FF051E00D192E0201C4A4907AA1B
:102F0400FFF794FD494B041C9D4275D1079B062B8A
:102F14001FD1406800F070FF0090A06800F06CFFC3
:102F24000190E06800F068FF0290206900F064FFFF
:102F34000390606900F060FF009B0490002B02D0B6
:102F4400019B002B07D16B46187A197B1A7CFFF77B
:102F540025FF012556E01123002201998A42F8D267
:102F64000720191C009D0A39091A013D89B2AC4693
:102F7400AA4209D36D462D7B2D4E0541ED0701D59F
:102F8400292500E0142575540138EAD2191C0725B7
:102F9400083989B2481E80B2624509D36E46367A32
:102FA400234F2E41F60701D5292600E014263E546E
:102FB400013189B2013D9942ECD11D1C0835A9B2F9
:102FC40005910726191C481E80B2624509D36D4637
:102FD4002F7C174D3741FF0701D5292700E014271F
:102FE4002F540131059889B2013E8142EBD101325F
:102FF4001833D2B29BB2B0E70E4B9D42A9D1FFF772
:1030040065FFA6E7079B9D4205D2AB00E05800F0A0
:103014000BFF0135F6E7002C02D0201C00F004FF62
:1030240009B0F0BDD94C0008314B0008D74900085D
:10303400FC010020134A000810B50748FFF746FDBD
:10304400064C201CFFF742FD0548FFF73FFD201CFE
:10305400FFF744FF10BDC046364B00083410002073
:10306400924B0008F0B59BB0FDF70EF920230D93A9
:103074001F3B1493C0235B0217930123022419936B
:1030840000230DA816941893FDF7D4FC002801D052
:10309400FFF712FD07230B900C90012109A8099357
:1030A4000A94FDF709FF071EF2D1FFF725FD8023DF
:1030B400D54CDB03626980251A4362616269D34E91
:1030C40013400493049B80236269DB021A43626108
:1030D4006269AD0113400593059B802362691B035C
:1030E4001A4362616269CA4813400693069B01232E
:1030F400311C7360B3600233F3603560FDF758FB35
:103104000122291CC248FDF789FC0423C148311C53
:103114003360FDF74DFBBF48311C3560FDF748FBBC
:103124008023BC48DB01311C3360FDF741FB3A1CB2
:10313400B8480421FDF772FC291C3A1CB548FDF778
:103144006DFC80213A1CB348C901FDF767FC0123DB
:10315400B3600233F3608023AE481B02311C7760F6
:103164003360FDF725FBAC4DAC4B281C2B60E123F1
:103174009B026B600C23AF60EF602F61AF616F62E5
:103184006B61FEF7F3FC371C002881D1281CFEF785
:10319400D7FF061E00D07BE7A148FFF797FCA14D9F
:1031A400A14B281C2B6096239B016B600C23AE6003
:1031B400EE602E61AE616B616E62FEF7C1FF0028A6
:1031C40000D065E79948FFF775FD281C984901224E
:1031D400FEF728FD061E00D05AE7311C954A964892
:1031E40000F035FE321C301C311CFFF7D7FD934B29
:1031F4009349186800F020FB924B0138924D1860F7
:10320400924BE8602B608B4B281C6B616E602E61C7
:10321400AE60FEF757FB021E00D039E760238C49ED
:103224000B60854B88601B78C860086148618861C1
:10323400281C4B60FEF7A4FB011E00D028E7281CC5
:103244007D4A7C4BFEF70EFC002800D020E7814D20
:10325400814BE8612B600723EB62E023DB00EB602A
:1032640080239B00AB610123A86068612861A86288
:10327400286268626863FA202B630433FF3380009A
:103284006B60FDF71FF87548FFF720FC281CFEF75C
:103294002DF8002800D0FBE6802362699B021A43C4
:1032A40062616269002513400793079B802362696A
:1032B400DB021A436261626956481A400892089A0E
:1032C4006269391C1A4362616269012413400993DB
:1032D400099B03239026FB607C60BD603C60FDF786
:1032E40067FA221C4B48211CFDF798FB1023F605B6
:1032F400301C391C3B60FDF75BFA301C221C10218A
:10330400FDF78CFB02234348391C3B60FDF750FA60
:103314000221221C3F48FDF781FB5148FFF7C2F808
:103324001022504B504900934A48019602924F4A4A
:10333400FFF7EEF8FFF76CF9281CFFF7DBF9FFF74E
:10334400A7F90D90FFF798FAFFF73CF9FFF75AFA3F
:10335400FFF7C7F9FFF72CFC281C4021FFF7DCFA24
:1033640080212C480902FDF753FB414EA04209D1AC
:103374004048FFF7ABFB281C291C2A1CFFF70EFD55
:10338400F57308E03C48FFF7A1FBFF20011C021C79
:10339400FFF704FDF4733948FFF798FB80210025FB
:1033A4001B488901FDF740FB0A20FCF78BFF344BD7
:1033B400344C1D702378AB4202D0FFF73DFE2570DC
:1033C400F37B002BEAD0337C0025012BE6D1736814
:1033D4009D42E3D2F37B0124002B13D073689C42FB
:1033E40010D8F37B002B0BD01423681C20185843EF
:1033F4001438C0B2FFF72EFD011CE0B2FFF720FD28
:103404000134EBE70135E2E700100240300100200F
:1034140000080048000400489413002000440040C1
:103424003B4B00081011002000380140534B0008AA
:10343400C6150020380E0000FC0100201C000020EE
:1034440000350C00280100205C1800200004004016
:103454002C160020C815002000300140614B0008E4
:10346400D12A000812020000801100204816002012
:10347400FC1000207B4B0008954B0008AE4B000865
:10348400440100202C010020F0B5584B8DB0071EDC
:103494009F4277D18022564B9202596901261143EB
:1034A4005961596990201140009100995969C005EA
:1034B40011435961596900240A400192019A8022FA
:1034C4009969D2011143996199690A400292029A59
:1034D4005A6907A932435A615B69099633400393D9
:1034E400039B80239B000793FF3BFF3B08939B199F
:1034F4000A930B96FDF75CF98023902007A9DB0063
:10350400C00507930B96FDF753F93A4D3A4B281C27
:103514002B6010236B607033AC60EB602C616C61CA
:10352400AC61EC61FCF73AFF3D666F62334B344D9E
:103534002B608023EB60603BAB618023281C9B01E4
:10354400EB616C60AC602C616C61FCF727FF211CA3
:10355400321C0A207D666F62FCF7C0FE0A20FCF76D
:10356400EFFE211C221C0A20FCF7B8FE0A20FCF7FF
:10357400E7FE1B20211C321CFCF7B0FE1B20FCF7CD
:10358400DFFE30E01F4B98422DD18022184B92026F
:1035940059690124114359615969902011400491DA
:1035A40004995969C005114359615969114005913C
:1035B4000599D9691143D961DB6907A91A400692B3
:1035C400069B04230793023B08931B190A9309944F
:1035D4000B94FDF7EDF890200823C00507A9079385
:1035E4000B94FDF7E5F80DB0F0BDC04610110020B6
:1035F40000100240B80100201C00024030000240CC
:10360400800100209413002010B5214CA04226D143
:103614008021204BC901DA6890200A43DA60D96816
:103624001D4AC0050A408021DA608900FDF778F957
:1036340090208021C005C900FDF772F9606E002852
:1036440001D0FCF7D3FE206E002801D0FCF7CEFE9B
:103654000A20FCF77FFE0A20FCF77CFE16E00F4BE5
:10366400984213D1802190200A4B89021A69C0051F
:103674000A431A6119690A4A0A401A610421FDF7CA
:103684004FF990200821C005FDF74AF910BDC04646
:103694001011002000100240FFBFFFFF9413002010
:1036A400FFFFFDFF0221234B30B5DA6989B00A43DD
:1036B400DA61DA69051C0A400092009A802258698E
:1036C4009202104358615869102402400192019AF1
:1036D40001225869104358615B69174813400293EB
:1036E400029B0323049103A9059207920394069372
:1036F400FDF75EF880231148C3608133FF33036113
:10370400E13BFF3B83618023446000249B01C36150
:103714000B4B28620360846044614562FCF73EFE03
:10372400211C221C0B20FCF7D9FD0B20FCF708FE02
:1037340009B030BD001002400004004848010020D8
:103744004400024010B50268224B8AB09A423ED12E
:103754008022214B92025969902011435961596981
:1037640000241140019101995969C005114359611F
:103774005969114002910299596911435961596972
:103784000A400392039A8022996952011143996174
:103794009B6905A91A400492049B202305931E3BB0
:1037A40006930793013308930994FDF701F89020D9
:1037B4004023C00505A905930994FCF7F9FF90205F
:1037C4008023C00505A905930994FCF7F1FF0AB00D
:1037D40010BDC04600300140001002407047FEE7B3
:1037E4007047704708B5FCF75FFD08BD10B5044C81
:1037F400206EFCF7B7FE606EFCF7B4FE10BDC04649
:103804001011002008B50248FEF761FD08BDC0464E
:103814001011002008B5024B186AFCF7A3FE08BD7E
:103824005C18002002B4714649084900095C49004B
:103834008E4402BC7047C046002243088B4274D3B6
:1038440003098B425FD3030A8B4244D3030B8B429D
:1038540028D3030C8B420DD3FF22090212BA030CA6
:103864008B4202D31212090265D0030B8B4219D387
:1038740000E0090AC30B8B4201D3CB03C01A5241A7
:10388400830B8B4201D38B03C01A5241430B8B42EF
:1038940001D34B03C01A5241030B8B4201D30B03D8
:1038A400C01A5241C30A8B4201D3CB02C01A5241FF
:1038B400830A8B4201D38B02C01A5241430A8B42C2
:1038C40001D34B02C01A5241030A8B4201D30B02AB
:1038D400C01A5241CDD2C3098B4201D3CB01C01AC5
:1038E400524183098B4201D38B01C01A52414309CF
:1038F4008B4201D34B01C01A524103098B4201D3BD
:103904000B01C01A5241C3088B4201D3CB00C01A29
:10391400524183088B4201D38B00C01A52414308A1
:103924008B4201D34B00C01A5241411A00D20146C6
:10393400524110467047FFE701B5002000F00CF833
:1039440002BDC0460029F7D003B5FFF775FF0EBCD2
:103954004243891A1847C0467047C046002B11D10C
:10396400002A0FD1002900D1002802D00021C94328
:10397400081C07B4024802A14018029003BDC046C7
:10398400D9FFFFFF03B4684601B5029800F022F89E
:10399400019B9E4602B00CBC7047C046F0B583B094
:1039A400161C1F1C0090019100F076F8041C0D1CDD
:1039B400221C2B1C301C391C00F044F8009A019B7B
:1039C400121A8B410899201C0A604B60291C03B011
:1039D400F0BDC046F0B5141C83B01D1C00900191CD
:1039E40000F052F9221C2B1C061C0F1C00F02AF8B4
:1039F400009A019B121A8B410899301C0A604B6093
:103A0400391C03B0F0BDC0461C2101231B0498429D
:103A140001D3000C10391B0A984201D3000A08395B
:103A24001B09984201D30009043902A2105C401812
:103A34007047C046040302020101010100000000B6
:103A440000000000F0B54F46464605042D0C2C1C22
:103A5400C0B41704160C3F0C9946030C7C43754301
:103A64005F4373437D19260CAD199C46AF4203D9BD
:103A740080235B029846C4444B4651434343240489
:103A84002E0C240C2D0466442C1959188919201C59
:103A94000CBC90469946F0BDF0B544465F46564688
:103AA4004D46F0B41C1C85B0002900DAA9E00F1CB7
:103AB4000021061C8846101C191C002C00DA97E013
:103AC400341C3D1C82468946B94273D870D049469D
:103AD400504600F085F98346391C301C00F080F90B
:103AE4005B46181A031C8346203B9C4600D59CE089
:103AF40000230022514600920193634699400191AC
:103B040051468140019B0091BB4200D983E000D122
:103B14007EE0009A019B341C3D1CA41A9D4163461F
:103B2400002B00DA9AE0002600270296039701365C
:103B34009E400396012686400296002800D171E03B
:103B44000099019AD30799464B464E081E435708DD
:103B5400002301220CE0AF4201D1A6420AD8A41BE3
:103B6400BD4124196D410138A4185D41002806D0D7
:103B7400AF42F0D9013824196D410028F8D1202230
:103B8400029E039F5B46524236196F4199185AD4DC
:103B9400281CC8402C1C5B46DC40002968DB041C44
:103BA4008C40231C59468840021CB61A9F4103E0EE
:103BB400B0428CD90026002741464B1E9941002370
:103BC40000910193009A019B002554429D41331CAE
:103BD4006340181C3B1C6B40191C009B019CC018C3
:103BE400614105B03CBC90469946A246AB46F0BD47
:103BF4004346DB430C1C9846131C00215842A14148
:103C04005EE7002746428F4101214942884652E738
:103C1400B14200D87DE700260027029603970028CA
:103C240000D08DE7029E039FC6E720215346091A60
:103C3400CB400022191C0023009201934B46834081
:103C44000B4301935CE75A4620239B1A2A1C9A4093
:103C5400201C131C5A46D04018439BE720260027FB
:103C6400331A0026029603970127DF40039761E782
:103C74005B4620215D46C91A031CAC40CB40191C8D
:103C8400231C0B438EE7C046F0B545464E465746C7
:103C9400E0B4041C82B00D1C914698468B4262D855
:103CA4005FD04146484600F09BF8291C061C201CA6
:103CB40000F096F82023311A5B428A46C81865D46E
:103CC4004B4683401F1C4B468B401E1CAF4258D8AA
:103CD40055D0A41BBD41002800DA77E00022002360
:103CE4000092019301328240019201238B400093A0
:103CF40000293CD0FB079846404672087B080243E3
:103D0400012600270CE0AB4201D1A2420AD8A41A32
:103D14009D4124196D410139A4197D41002906D022
:103D2400AB42F0D9013924196D410029F8D1202280
:103D34000098019953465242001969419E183AD499
:103D44002F1CF7405346DD40002E29DB3C1CB440B9
:103D5400231C5446A7403A1C801A994100900191B3
:103D640005E082429DD90023002400930194009829
:103D7400019902B01CBC90469946A246F0BDA342EC
:103D8400A7D90022002300920193B1E720224B46D9
:103D9400521AD3401A1C43468B401F1C174392E708
:103DA400534620245646E41A3B1CB540E3401C1CF1
:103DB4002B1C2343CDE7524620239B1A2A1C9A40EE
:103DC400271C131C5246D7401F43BBE72023002265
:103DD400581A0023009201930132C240019284E7F1
:103DE40010B5002903D1FFF70FFE203002E0081CB4
:103DF400FFF70AFE10BDC04608B500210A2200F0F4
:103E040031FA08BD08B5031C0A1C03490868191CCB
:103E140000F025F808BDC046C8000020014B186812
:103E24007047C046C800002008B5034B011C186841
:103E340000F024F808BDC046C8000020002310B5D7
:103E4400934203D0CC5CC4540133F9E710BD031C86
:103E54008218934202D019700133FAE770474A433B
:103E640038B5111C141C00F04FF8051E03D00021B6
:103E7400221CFFF7ECFF281C38BD000030B50029D8
:103E84003ED004390B68002B00DAC9181D4A1368A8
:103E9400141C002B02D14B60116031E099420DD209
:103EA40008680A189A4203D11368C3180B60536850
:103EB4004B60216024E08A4203D8131C5A68002A0C
:103EC400F9D11D685C198C420BD10968691858181E
:103ED4001960904214D110685268091819605A6028
:103EE4000EE08C4202D90C23036009E008680C1828
:103EF400944203D114685268001908604A605960FA
:103F040030BDC046F4010020032370B5CC1C9C4393
:103F14000834051C0C2C01D20C2405E0002C03DA17
:103F24000C2300202B6042E08C42F9D3204A136812
:103F3400101C191C002913D00A68121B0DD40B2A5B
:103F440002D90A608B181FE08B4202D15A680260C2
:103F54001BE04A685A600B1C17E00B1C4968E9E730
:103F6400144E3368002B03D1281C00F031F8306064
:103F7400281C211C00F02CF8031C421CD0D0032266
:103F8400C61C964386420AD11C60181C07210B30BC
:103F94001A1D8843821A0AD05142995007E0311AF7
:103FA400281C00F015F8431CBAD0331CECE770BD94
:103FB400F4010020F001002008B5031C0A1C034989
:103FC4000868191C00F05CF908BDC046C800002050
:103FD40038B50023064C051C081C2360FCF712F9B5
:103FE400431C03D12368002B00D02B6038BDC0468E
:103FF400F80100200CB430B5174B9DB01D680029A2
:1040040004DA8B2301202B6040421FE0822302AAA2
:104014009B009381002302901061994200D04B1EB3
:104024009360536101235B42D3810C1C21AB111CAF
:10403400281C209A019300F0A9F9431C01DA8B2370
:104044002B60002C02D00023029A13701DB030BCE8
:1040540008BC02B01847C046C800002008B5034B8E
:10406400011C186800F004F808BDC046C800002010
:1040740070B5051C081C0E1C00F00DF8441C211C16
:10408400281CFFF741FF051E03D0311C221CFFF73B
:10409400D5FE281C70BD0023C25C0133002AFBD16D
:1040A400581E704710B50378021C002B05D10978FF
:1040B400181C00290FD00FE001321378002B08D010
:1040C4000023C85C002806D0D45C8442F4D10133B8
:1040D400F7E7181C00E0101C10BDF0B5041E0CD14D
:1040E4001468201E09D126E03778002F0CD0013641
:1040F400B842F9D1002B04D02C1C651C20780E1C6E
:10410400F2E71560237015E0002808D1106012E072
:104114000778B74207D00130002FF9D11D1C6B1C62
:104124002E78081CF4E7002E02D00021297000E04C
:10413400331C1360201CF0BD08B50123FFF7CDFF2D
:1041440008BD0000F0B51E1C444B87B01B680590E9
:1041540002930B1C039101921C78029A5D1C1219A4
:1041640050780822104001D02B1CF5E72D2C04D1E7
:104174009D1C5C780123009304E000902B2C01D15A
:104184005C789D1C002E02D0102E0AD160E0302CE9
:104194005CD120222B789343582B52D110266C7873
:1041A4000235009F311C7B1E9F412D4BFF18381C8C
:1041B400FFF7C8FB381C0491311CFFF73DFB0022BC
:1041C400071C131C029909194978480701D5303C8A
:1041D40007E00320084017D03721012800D0203100
:1041E400641AB44210DA511C0BD0BB4207D802D176
:1041F400049A944203DC73430122E31801E0012290
:1042040052422C780135DDE7181C511C0BD1009863
:10421400059A431E9841124BC01822231360019B38
:10422400002B0AD117E00099002900D05842019BC5
:10423400002B10D0039B002A00D06B1E019A136040
:1042440009E03024002EACD10826AAE70A26A8E704
:10425400302CA6D19DE707B0F0BDC046CC000020AD
:10426400FFFFFF7F38B5051C0C1C131C034A291CD7
:104274001068221CFFF766FF38BDC046C800002046
:10428400F8B5061C0C1C151C002904D1111CFFF7E1
:104294003BFE041C18E0002A03D1FFF7EFFD2C1CA1
:1042A40012E000F00EFBA8420ED2301C291CFFF7CE
:1042B4002BFE071E07D0211C2A1CFFF7BFFD301C54
:1042C400211CFFF7DBFD3C1C201CF8BDF0B58E68FB
:1042D40085B0071C0C1C03920193B34245D3902371
:1042E4008A89DB001A423DD00325096923680198B5
:1042F4005B1A029363695D43EB0F5D19029B6D10BA
:1043040001331B189D4200D21D1C381C53050FD5C8
:10431400291CFFF7F9FD061E13D0029A2169FFF745
:104324008DFDA289184B134080221343A38111E011
:104334002A1CFFF7A5FF061E0CD1381C2169FFF7C4
:104344009DFD0C23402201203B60A389404213437E
:10435400A38117E0029B2661F61826606561019E21
:10436400ED1AA560019BB34200D2019E321C206865
:10437400039900F092FA0020A3689B1BA3602368B2
:104384009E19266005B0F0BD7FFBFFFFF0B59FB01E
:10439400029005938B890E1C171C1B0610D50B6904
:1043A400002B0DD14021FFF7AFFD306030610028B4
:1043B40004D10C23029A01381360D0E040237361C6
:1043C400002306AD6B6120336B761033AB763C1C57
:1043D4002378002B03D1E31B049312D003E0252B95
:1043E400F9D00134F4E7049B0298311C3A1CFFF71E
:1043F4006DFF431C00D1ACE06A69049B944663449E
:104404006B612378002B00D1A3E0012200235242E8
:104414006A6002A95432521801342B60EB60AB601D
:104424001370AB654F4F2178381C052200F02AFA2F
:10443400002808D0C01B01278740381C2B68013492
:1044440018432860EEE72B68DA0604D553222021AE
:1044540002A8121811701A0704D553222B2102A89E
:104464001218117022782A2A01D0099B0EE0059AAD
:10447400111D12680591002A01DB099204E05242E1
:10448400EA60022213432B60013409E02278303AB7
:10449400092A04D80A214B4301349B18F6E70993EF
:1044A40023782E2B18D163782A2B09D1059B02344B
:1044B4001A1D1B680592002B0DDA01235B420AE0EA
:1044C400002301342278303A092A04D80A214B43C4
:1044D40001349B18F6E70793234F2178381C0322F5
:1044E40000F0D0F9002807D0C01B40278740381CB3
:1044F4002B6801341843286021781C480622671C65
:10450400297600F0BFF9002812D0194B002B06D1F0
:104514000722059B073393430833059314E005AB47
:1045240000930298291C321C124B00E000BF07E0E4
:1045340005AB00930298291C321C0E4B00F08AF83C
:104544000390039B013304D06B69039A9B186B613E
:104554003DE7B3890B985B0601D5012040421FB0AB
:10456400F0BDC046D54C0008DB4C0008DF4C000809
:1045740000000000D1420008F7B5171C01930A6936
:104584008B6800900C1C934200DA131C221C3B60C5
:1045940043321278002A01D001333B6023689B0622
:1045A40002D53B6802333B60062523681D401ED0BC
:1045B400231C43331B785A1E9341226892061CD550
:1045C4003020E1184031C870211C5A1C453109784B
:1045D400A21840320233D1700FE0221C012300984C
:1045E40001991932089EB047431C0ED00135E36887
:1045F4003A689B1A9D42F0DBDAE7221C0098019985
:104604004332089DA847431C02D10120404220E0C8
:1046140006232068E1683A6803400025042B03D18F
:104624008D1AEB43DB171D40A3682269934201DD19
:104634009B1AED180027AF420ADA221C01230098C6
:1046440001991A32089EB047431CDED00137F2E7C5
:104654000020FEBDF0B58BB006920A1C43320793CE
:10466400059004920A7E0C1C109B6E2A00D1A8E0CF
:1046740011D8632A22D009D8002A00D1B2E0582ADE
:1046840000D0C2E045310A707C4A4FE0642A1DD054
:10469400692A1BD0B9E0732A00D1A7E009D86F2A90
:1046A40029D0702A00D0B0E0202209680A43226091
:1046B40037E0752A1FD0782A33D0A6E00E1C1A687A
:1046C4004236111D196013683370A1E021681A681D
:1046D400080606D4490604D5111D19600023D55EC9
:1046E40002E0111D19601568002D3BDA2D23049A90
:1046F4006D42137036E021681A68080606D449062C
:1047040004D51568111D1960ADB202E0111D1960C0
:1047140015685A4B227E03930A276F2A1DD1082756
:104724001BE0221C782145321170554A1968039206
:10473400081D226818600D68100602D4500600D5C2
:10474400ADB2D30702D520231A4322601027002DCF
:1047540003D1202322689A432260231C002243337E
:104764001A7002E00A27454B03936368A360002B89
:1047740003DB0422216891432160002D02D1049EB1
:10478400002B0ED0049E281C391CFFF7DBF8039B7A
:10479400013E5B5C281C3370391CFFF74DF8051E85
:1047A400F1D1082F09D12368DB0706D56368226994
:1047B400934202DC3023013E3370049B9B1B236134
:1047C4002BE009681A68080607D4490605D5111DA7
:1047D40019601368A28A1A8004E0111D1960136815
:1047E40062691A600023049E236116E01A68111D91
:1047F400196016680021301C626800F043F8002834
:1048040001D0801B6060636803E0261C423632706E
:10481400012323610023049A1370079B05980093D6
:10482400211C069B09AAFFF7A7FE431C02D1012005
:10483400404221E0236905980699321C079DA84748
:10484400431CF4D023689B0705D4099BE068984275
:1048540012DA181C10E00025E368099A9B1A9D429D
:10486400F3DA221C0123059806991932079EB047F2
:10487400431CDCD00135EFE70BB0F0BDE64C00087B
:10488400F74C0008C9B28218904204D003788B42D6
:1048940002D00130F8E70020704710B5814208D2F9
:1048A4008B18984205D29B1A013A09D3995C81541A
:1048B400FAE70023934203D0CC5CC4540133F9E7F4
:1048C40010BD0B1F1A68101F002A04DA8918043956
:1048D4000B68D0180438704702030405060708095A
:1048E4000A0B0C0D0E0F1010010203040506070835
:1048F400090A0B0C0D0E0F10000000000102030446
:104904000102030406070809000408025350492061
:1049140068616E646C65206973207A65726F210D1D
:104924000A004F55545B005D3A200020494E5B005D
:104934005749503A20003B2057454C3A20003B2031
:104944004250423A20003B205352503A2000444502
:104954005649443A20003B204D414E49443A2000F8
:104964003B204D454D747970653A20003B2043410E
:104974005049443A20005072696E74696E67206D24
:10498400656D6F72792066726F6D200020746F20E0
:10499400000D0A646F6E650D0A00253032782530EB
:1049A4003278253032782530327800736574524776
:1049B40042436F756E7400736574436F6C6F72500D
:1049C40061747465726E006765745072696E7466A2
:1049D4004F6E0073657452474200676574524742D4
:1049E40000736574416E696D6174696F6E0067650B
:1049F400745247424D6178007365745254430067A2
:104A04006574436F6C6F725061747465726E006785
:104A14006574466C617368506172616D730073658F
:104A2400745072696E7466456E61626C6564006789
:104A3400657452544300676574416E696D617469AD
:104A44006F6E0067657454656D70006765744669C0
:104A5400726D7761726556657273696F6E00676512
:104A640074524742436F756E7400676574416E619A
:104A74006C6F6700666C6173685F6170706C69630A
:104A84006174696F6E506172616D735B005D2000CB
:104A94002C20666C617368204D43552076657273D3
:104AA400696F6E3A200053697A65206F6620666CE0
:104AB4006173685F6170706C69636174696F6E5073
:104AC4006172616D733A200053616D65204D4355E9
:104AD4002076657273696F6E206F6E20466C617309
:104AE400680D0A004E6577204D4355207665727334
:104AF400696F6E206465746563746564210D0A00D2
:104B040054657374696E67207468652077686F6C88
:104B14006520636F6D6D616E6420746861742069D3
:104B24007320746F6F206C6F6E67200A003B20093E
:104B34000A0042543A200054657374696E67205524
:104B44004152542040203233303430300D0A004179
:104B5400542B4E414D45466978656C0A0053746187
:104B64007274696E672053504920666C61736820C3
:104B7400696E69740D0A0053656C656374696F6EC0
:104B84002070696E206973206869676821210D0AA5
:104B94000053656C656374696F6E2070696E20697B
:104BA40073206C6F7721210D0A005374617274694C
:104BB4006E67206D61696E206C6F6F700D0A0067FF
:104BC4006574416E696D6174696F6E4F6E00430068
:104BD40000202020202020202020282828282820C9
:104BE40020202020202020202020202020202020C1
:104BF4002088101010101010101010101010101029
:104C04001004040404040404040404101010101018
:104C140010104141414141410101010101010101E2
:104C24000101010101010101010101011010101034
:104C340010104242424242420202020202020202B4
:104C44000202020202020202020202021010101008
:104C54002000000000000000000000000000000030
:104C64000000000000000000000000000000000040
:104C74000000000000000000000000000000000030
:104C84000000000000000000000000000000000020
:104C94000000000000000000000000000000000010
:104CA4000000000000000000000000000000000000
:104CB40000000000000000000000000000000000F0
:104CC40000000000000000000000000000000000E0
:104CD40000232D302B2000686C4C00656667454628
:104CE4004700303132333435363738394142434462
:104CF40045460030313233343536373839616263F2
:044D0400646566007C
:084D080094EDFF7F01000000A3
:104D100078563412DC000020000000000000000083
:104D200000000000010203040607080900127A00CF
:104D3000D7490008FC490008AF490008E5490008C8
:104D4000224A0008BB490008DE490008334A00082F
:104D5000624A0008F24900086E4A0008474A000803
:104D60003A4A0008C34B00084F4A0008CB490008E4
:104D7000034A0008134A0008000000000000000079
:104D80000000000000000000000000000000000023
:104D90000000000000000000D24B000800000000EE
:104DA0000000000000000000000000000000000003
:104DB00000000000000000000000000000000000F3
:104DC00000000000000000000000000000000000E3
:104DD000000000000000000068000020D44B000824
:044DE000325476983B
:04000005080000C12E
:00000001FF
