:020000040800F2
:1000000000400020D1010008794E0008E14E0008B0
:1000100000000000000000000000000000000000E0
:10002000000000000000000000000000FB4E00087F
:100030000000000000000000FD4E0008FF4E000818
:10004000AD370008AD370008AD370008AD37000800
:10005000AD370008AD370008074F0008AD3700087E
:10006000AD370008AD370008AD370008654F000810
:10007000AD370008AD370008AD370008AD370008D0
:10008000AD370008314F0008AD370008AD37000824
:10009000AD370008AD370008AD370008414F000804
:1000A000AD370008AD370008AD370008214F000814
:1000B000114F0008AD370008AD370008AD37000814
:1000C00073B500F0C9F83049304B081C0B600024B0
:1000D000191C2F4A13602F4B2F4DE318AB4204D24B
:1000E0002E4D2D5904341D60F5E700682C4B9842C5
:1000F00003D112682B4B9A4200D0FEE72A4A2B4BC1
:10010000116019602A492B48814202D2002001C1A6
:10011000F9E71268002A02D11D68002D00D0FEE721
:1001200000F09EF8684601A900F08EF8224A234BA1
:10013000161C9B1A9C10A54204DAAB00F358984792
:100140000135F8E71E4A0025161C1E4B9B1A9C1011
:10015000A54204DAAB00F35898470135F8E7009858
:10016000019904F043FB184B051C1E1C174CE41AA4
:10017000A410002C04DD013CA300F3589847F8E7D5
:10018000281C00F03FF8C04600000020BABADECAC2
:1001900088000020000000208C000020245F000860
:1001A00078563412325476988C000020D4160020F1
:1001B0008C000020D8160020040200080402000869
:1001C00004020008040200080402000804020008F7
:1001D00008B5FFF775FF00BEFEE704207146084230
:1001E00002D0EFF3098001E0EFF308807146044A82
:1001F000104700BEFEE700BEFEE700BEFEE7704708
:04020000F3010008FE
:10020400FEE700000C4A08B51168031C002901D15F
:100214000A4911600321106803338B430849C3184A
:100224008B4206D905F08EF90C230360012040426D
:1002340000E0136008BDC04690000020D8160020DE
:10024400003C002001230360014B0B607047C04653
:100254000400002008B503F03DFA08BD08B503F01A
:1002640069FA08BD10B5041C01F004FEFA218900E6
:1002740004F088FE00F040FA0120211C40420022D4
:1002840000F0F4F9002010BD1021064A08B51368E7
:1002940003200B431360FFF7E5FF01F05FFA002032
:1002A40008BDC04600200240024A136801331360AF
:1002B4007047C04698000020014B18687047C0463C
:1002C4009800002013B50190FFF7F6FF041CFFF718
:1002D400F3FF019B001B9842F9D313BD032203686B
:1002E40070B599680A40012A01D0002030E01968ED
:1002F400114202D1DA681204F7D5052299680A403E
:10030400012A0AD102219A68051C0A439A60032231
:100314001A60FFF7D1FF061C08E010220124436C89
:1003240013434364836C2343836410E001242B68E8
:100334009B682342D9D0FFF7BFFF801B0228F5D961
:1003440010226B6C13436B64AB6C2343AB64201CB3
:1003540070BD042238B503689968114201D10020A8
:100364001EE09968114206D09A68920703D41021BE
:100374009A680A439A60041CFFF79EFF051C2368D1
:100384009B685B07EBD5FFF797FF401B0228F6D964
:1003940010220120636C13436364A36C0343A364BE
:1003A40038BD0000F8B50123002800D18DE0436C6E
:1003B400041C002B05D1021C40328364137004F02A
:1003C4007DFB636CDB066DD40422236898681040BF
:1003D40068D1616C3E4A0A4002210A4362640322E6
:1003E40099680A40012A63D11968114202D1DA6876
:1003F40012045DD5D968374A266A0A40DA60A269D0
:1004040077039103E269D2031143626B551E6A1E9E
:100414009541E2682D030A4321693A43022900D138
:100424000420216B49000A43616A2A4302430129DB
:1004340004D1002E02D1802149020A43C220A16ABC
:10044400FF30814202D0E06A01430A43D968A56BB8
:100454001143D960802149058D4202D0691E0629C5
:1004640007D80721586988435861586929400143CE
:100474005961D968184B0B40934208D100230321DA
:10048400A364626C8A4302390A4362641DE0122247
:10049400636C9343023A134363640123A26C1A43CB
:1004A400A26412E01022636C1343636401230CE022
:1004B4001821DA688A43A1680A43DA601969626814
:1004C400890089081143196194E7181CF8BDC046D6
:1004D400FDFEFFFF1902FEFFE7FF3F8338B501254C
:1004E40000283BD00222436C041C13434364FFF7EF
:1004F40030FF051E08D1201CFFF7F0FE051E012D5C
:1005040029D00123636401E0012824D09F212368BA
:10051400201C5A688A435A601960D968104A0A40F4
:100524000721DA601A69920092081A615A698A43AB
:100534005A61196A0B4A0A401A629A6AD20CD204A6
:100544009A62094A094B11680B40136004F0E8FAF7
:100554000023A3646364002340342370281C38BD43
:1005640000023E8300F000F008270140FFFF3FFE39
:10057400F7B50023041C019340342278866B0233C0
:10058400012A62D00268013B956823706D0756D436
:100594002F484F680D6887423AD0AB40976A3B4377
:1005A400936280235B059E420FD0013E062E0CD938
:1005B4000723886851691940884206D051699943D4
:1005C4005161516903400B4353612B1C103B022BB7
:1005D40033D8204B80211A68102D03D0112D03D05D
:1005E400490402E0090400E0C9030A431A60102D1B
:1005F40023D1194B1949186804F0C4FC0A23584341
:100604000190019B002B18D0019B013B0193F8E75B
:10061400AB40916A99432B1C103B9162022B0CD87E
:100624000C4A1168102D03D0112D03D00C4B02E09D
:100634000C4B00E00C4B0B401360002303E0202123
:10064400426C0A43426400222270181CFEBDC0465C
:1006540001100000082701401C00002040420F0048
:10066400FFFFFFFEFFFF7FFFFFFFBFFF70B58901A4
:10067400002815DA0F23C0B20340083B124A9B0836
:1006840003249B009B18FF222040A040141C84409C
:10069400DD691140A54381402A1C0A43DA6112E056
:1006A40084080A4B0326A400E418FF233040B0401A
:1006B4001E1CC0258640AD0062591940B2438140DA
:1006C400131C0B43635170BD00ED00E000E100E03A
:1006D4001F2318401E3B8340181C014B18607047B1
:1006E40000E100E01F2318401E3B8340181C014B0F
:1006F400D867704704E100E0094A431E0120934291
:100704000DD8C020074A084953600B6A00061B0233
:100714001B0A03430B620020072390601360704799
:10072400FFFFFF0010E000E000ED00E0031C30B527
:100734000120002B1FD09C1CE27FD2B2002A01D1E1
:100744001918CA7702221868E27701680A4A5D68B4
:1007540011409A682A43DD682A431D692A435D696A
:100764002A439D692A43DD692A430A430260002023
:1007740058630123E37730BD0FC0FFFFF0B50225B6
:10078400471CFE7F2C1C012E21D001264419FE7724
:10079400E57704682568B543256063604368102BDA
:1007A40002D1A260E16001E0A160E260022223685C
:1007B400134323602368921813432360236804328D
:1007C400134323602368073A134323600024201C47
:1007D400F0BD000070B503688A4D8B4E041C296877
:1007E4000822B3421DD089487832834219D0884AFE
:1007F40093420BD0874A93420BD0874A93420BD043
:10080400864A93420BD0802212050AE0802212010C
:1008140007E08022120204E08022120301E0802219
:100824001204114236D008221968114232D01968D4
:1008340091431960B3421DD0744978328B4219D068
:10084400734A93420BD0734A93420BD0724A934239
:100854000BD0724A93420BD0802212050AE0802208
:10086400120107E08022120204E08022120301E058
:10087400802212046A600122636B134363630332B0
:10088400A31CDA770022631CDA77236B934201D02E
:10089400201C9847236829680422B3421DD05B4872
:1008A4003C32834219D05A4A93420BD0594A93425C
:1008B4000BD0594A93420BD0584A93420BD0802212
:1008C400D2040AE08022D20007E08022D20104E0B0
:1008D4008022D20201E08022D203114233D00421CB
:1008E4001A680A422FD01A68920602D41A688A43F8
:1008F4001A600422B3421DD044493C328B4219D0C1
:10090400434A93420BD0434A93420BD0424A934208
:100914000BD0424A93420BD08022D2040AE08022B8
:10092400D20007E08022D20104E08022D20201E05A
:100934008022D2036A601122A31CDA77E36A002BB7
:1009440001D0201C9847236829680222B3421DD095
:100954002E481E32834219D02D4A93420BD02D4A81
:1009640093420BD02C4A93420BD02C4A93420BD087
:10097400802292040AE08022920007E08022920101
:1009840004E08022920201E080229203114238D0D6
:1009940002211A680A4234D01A68920602D41A68EC
:1009A4008A431A600222B3421DD018491E328B4278
:1009B40019D0174A93420BD0164A93420BD0164AC9
:1009C40093420BD0154A93420BD0802292040AE042
:1009D4008022920007E08022920104E080229202A9
:1009E40001E0802292036A600122636B6363A31CAB
:1009F400DA77A3180022DA77A36A934201D0201C85
:100A0400984770BD00000240080002401C000240EC
:100A14003000024044000240580002406C00024092
:100A2400F0B50B6887B0029300230191029ADA4073
:100A340000D19CE001229A40029C1440009400D111
:100A440093E0019A54681022271C9743022F0ED179
:100A540007250F211D40AD00A940DA089200821835
:100A6400166A8E4301990969A9400E431662026809
:100A74005E0094460322151CB5406146ED432240B6
:100A8400B24029400A43013F0260012F0FD8019A66
:100A94008768D2682F40B2403A43826001229A406C
:100AA40047689743E206D20F9A403A434260C268CD
:100AB4001540019A9268B2401543C560E20054D5CE
:100AC40003210F1C1F408C46B9000F2701268F40BD
:100AD400284A95693543956192699D08324005928B
:100AE400059A254AAD00AD18AA68BA439027039227
:100AF400FF050022B84211D0321C204EB0420DD066
:100B04001F4E9218B04209D01E4E6246B04205D024
:100B14001D4A8218574257410526F21B8A40039901
:100B24000A430099AA600E1C184ACD4317683E4335
:100B3400E10301D43E1C2E4016605768009E3E43DC
:100B4400A10301D43E1C2E4056609768009E3E438C
:100B5400E10201D43E1C2E409660D668009F3743C4
:100B6400A10201D42E40371CD76001335EE707B0E1
:100B7400F0BDC046001002400000014000040048DF
:100B840000080048000C004800F0FFB700040140D2
:100B94000023F0B585B00291029ADA4061D00122B7
:100BA4009A4094466146029A0A40019257D003261D
:100BB400341C5A009440E2430F250168DC081140BC
:100BC400A40001600419216A2F1C03910721194014
:100BD40089008F40391C039F8F43276264468168D4
:100BE400114081604168A1431C1C3440A400A5400D
:100BF4004160C1680A40C26099081B4A890089188B
:100C04008F6800222F40BC469027FF05B84211D0C0
:100C1400164F0132B8420DD0154F0132B84209D0F7
:100C2400321C144EB04205D0134A82185642724107
:100C34000526B21AA240944511D18A68AA438A6053
:100C440001990E4AC94314680C40146054680C405E
:100C5400546094680C409460D4682140D16001339E
:100C64009AE705B0F0BDC04600000140000400480A
:100C740000080048000C004800F0FFB700040140E1
:100C8400002A01D0816100E08162704743695940C4
:100C94004161704708B5044B5A69024202D0586159
:100CA40003F00AFE08BDC0460004014030B50468E4
:100CB400064D606889052840039D890D2843034338
:100CC4000B4312041343636030BDC046009800FC1C
:100CD400F8B5041C0D1CFFF7EFFA2368061C9A698B
:100CE4000020D20637D5271C35373A78122A05D08A
:100CF4003A78522A02D03A78622A15D15A68920177
:100D040012D480215A68C9010A435A600CE0202297
:100D14009969114211D16A1CF9D0002D06D0FFF750
:100D2400CBFA801BA84201D82368F0E701233B706B
:100D340000233434237003200DE01021D961DA61DB
:100D44005968054A01200A405A600423A36300231A
:100D5400343438702370F8BD00E800FEF7B51D1C6C
:100D6400041C0F1C0192FFF7A7FA019B061C002B21
:100D74002AD12268391C936999430B1CDB0311D0D7
:100D84006B1CF7D0002D11D0FFF796FA801BA842F8
:100D9400EFD90BE06B1C07D1391C936999430B1CE9
:100DA400DB03F7D0002011E0002D08D1231C012221
:100DB40035331A70002334342370032006E0FFF720
:100DC4007BFA801BA842F1D82268E5E7FEBD70B526
:100DD400041C0D1CFFF770FA061C23689B699B0713
:100DE4001CD4201C291CFFF773FF002818D16B1C8E
:100DF400F3D0002D0CD12022A36B03201343A36353
:100E0400231C1F3A35331A7000233434237008E04E
:100E1400FFF752FA801BA842DFD9ECE7002000E07C
:100E2400012070BD70B5041C0D1CFFF745FA061CAB
:100E340023689B699B061AD4201C291CFFF748FFD2
:100E4400002816D1002D0CD12022A36B03201343BC
:100E5400A363231C1F3A35331A70002334342370E0
:100E640008E0FFF729FA801BA842E1D9ECE700204B
:100E740000E0012070BD000038B50123002844D0F3
:100E8400051C35352B78041CDBB2002B04D1021C65
:100E94003432137003F074FF022301212B70236892
:100EA4001A688A431A606168194A0A401A61996883
:100EB400184A0A409A60A268E168002A0AD0012907
:100EC40004D1802109020A439A6008E084200002C8
:100ED40002439A60022902D1802212015A605A68A0
:100EE4000D490A435A60616922691143A2691202D9
:100EF4000A43DA60E169226A0A4301211A601A6826
:100F04000A431A600023A3632970181C38BDC04625
:100F1400FFFFFFF0FF7FFFFF00800002F0B51D1C04
:100F2400031C85B03533029203931A78041CD2B2A1
:100F34000F1C0220012A7AD1029B002B01D101202F
:100F440075E0002DFBD02368996980231B020B40B8
:100F54006DD1211C34310E78012E68D00A70122212
:100F640003990A70A36380239B01FF2D09D9009381
:100F74008023201C391CED325B04FFF797FEFF260B
:100F84002AE000938023EAB2201C391C9B04FFF75B
:100F94008DFE2E1C20E0029A23681278013D013E4A
:100FA4009A62ADB2002E28D1002D28D0201C8021B9
:100FB400321C0A9BFFF7D2FE002837D1FF2D12D92D
:100FC40080230096201C391CFF225B04FFF76EFE71
:100FD400FF36029B01330293201C0A99FFF7F7FEA8
:100FE4000028D8D011E080230096EAB2201C391CD6
:100FF4009B04FFF75BFE2E1CEBE7002DE9D1201CC0
:101004000A99FFF70FFF002803D0A36B042B0DD11F
:1010140095E7202223683434DA615968054A0A4086
:101024005A600123039A1370207000E0032005B076
:10103400F0BDC04600E800FEF0B5171C021C85B0E8
:10104400039135321D1C1378041CDBB20220012BE2
:1010540079D1002F01D1012075E0002DFBD021684A
:101064008E69802109020E40B4466CD1211C3431B2
:101074000E78012E67D00B70222313706346A3638E
:1010840090239B01FF2D09D900938023201C0399F1
:10109400FF225B04FFF70AFEFF2627E0009380236C
:1010A400EAB2201C03999B04FFF700FE2E1C1DE0EE
:1010B4002368013D5B6A013E3B70ADB2002E28D12E
:1010C400002D28D0201C8021321C0A9BFFF746FEED
:1010D400002829D1FF2D12D980230096201C0399C2
:1010E400FF225B04FFF7E2FDFF360137201C0421D9
:1010F40000220A9BFFF732FE0028D9D014E0802397
:101104000096EAB2201C03999B04FFF7CFFD2E1C26
:10111400EBE7002DE9D1201C1921FFF783FE0028FD
:1011240004D0A36B042B96D003200CE02022236868
:10113400DA615968054A0A405A60231C0122353392
:1011440034341A70207005B0F0BDC04600E800FECB
:10115400F0B51D1C002385B00393031C00923533A6
:101164001E78041CF6B20220012E7BD12768BA69CE
:1011740080273F023A40944674D1271C34373A788A
:10118400012A6FD03E70187063460191A363019BDE
:10119400E1689B0522689B0D012901D1324901E0D8
:1011A400A02189010B435360FFF786F8071C2368CD
:1011B4009A69920604D510269A69324026D114E021
:1011C4009A69D206F7D4261C35363278032AF2D02F
:1011D4006A1CEDD0002D02D1012333703EE0FFF7ED
:1011E4006BF8C01BA842E2D9F6E7201C20212B1C77
:1011F400FFF7B4FD002834D120222368DA61231CD0
:101204001F3A353334341A7020702BE00022201C2E
:1012140020212B1CFFF7A2FD021E22D12368DE61D0
:101224002026DE610399481C0390009881420DD169
:1012340080205968C00101435960201C311C2B1CBB
:10124400FFF78CFD00280CD12368DE61039B009A14
:1012540093429CD3231C012235331A700023343467
:101264002370032005B0F0BD0020000270477047D2
:101274007047704770477047704700000368F7B5C0
:101284009A69041C92070ED49A6912060BD49A69BF
:10129400520608D49A69920605D49A69D20602D4F1
:1012A4009A69120750D57A2219680A407A2A4BD1D2
:1012B400251C35352A78322A46D1221C343211783D
:1012C400012941D0012111701021986908420DD0E3
:1012D400608DD961002833D00421A36B201C0B43FB
:1012E400A36300231370FFF7C7FF29E0082099695F
:1012F400014001D0D86123E020279869384210D0FA
:10130400FE261868B04380261860586836023043B9
:101314005860DF610123201C2B701170FFF7A8FFB8
:101324000EE09A6992070BD5628D002A08D0626A92
:10133400511C616212789A62638D013B9BB2638592
:10134400231C002234331A7023689A6992070CD440
:101354009A69120609D49A69520606D49A699206C1
:1013640003D49A69D20600D48CE0722219680A4028
:10137400722A00D086E0201C35300278122A03D06D
:101384000278522A00D07DE0221C343211780129DF
:1013940000D177E001211170996989070CD5626A3F
:1013A400511C616212789A62238D013B2385638DFF
:1013B400013B9BB2638561E080219D69294024D073
:1013C400208D00281CD1618D002919D05968638DA6
:1013D4008905890DFF2B08D9802300905B04201C0C
:1013E400FF22FFF763FCFF2308E08023628D9B0448
:1013F4000090D2B2201CFFF759FC638D23853DE099
:1014040000231370A36B402233E040279D693D40C5
:101414000CD0608D002805D180215A68C9010A4387
:101424005A602BE0A36B11703B4323E0202799699A
:10143400394016D019680E1CF2218E431E60DF61FC
:101444005F6892493940596001230370157003782D
:10145400201C522B02D1FFF70DFF0FE0FFF706FF10
:101464000CE010209D69054208D0D8611170042257
:10147400A36B1343A363201CFFF7FEFE231C00226F
:1014840034331A7023689A6952070ED49A69120683
:101494000BD49A69520608D49A69920605D49A69BB
:1014A400D20602D49A6912074ED57C2219680A40E2
:1014B4007C2A49D1251C35352A78422A44D1221C5C
:1014C4003432117801293FD001211170102198691B
:1014D40008420AD0D961002313700422A36B201C94
:1014E4001343A363FFF7C8FE2AE008219869084262
:1014F40001D0D96124E00421986901400CD0626ACA
:101504005B6A511C61621370238D013B2385638DDB
:10151400013B9BB2638513E02027986938420FD0C2
:10152400FC261868B0438026186058683602304399
:101534005860DF610123201C2B701170FFF799FEA6
:10154400231C002234331A7023689A6952070CD47E
:101554009A69120609D49A69520606D49A699206BF
:1015640003D49A69D20600D48EE0742219680A4022
:10157400742A00D088E0201C35300278222A03D057
:101584000278622A00D07FE0221C343211780129CB
:1015940000D179E0012704259969177029420CD0FC
:1015A400626A5B6AD11961621370238D013B2385E2
:1015B400638D013B9BB2638563E080219D69294073
:1015C40024D0208D00281CD1618D002919D05968A0
:1015D400638D8905890DFF2B08D9802300905B0456
:1015E400201CFF22FFF762FBFF2308E08023628DAB
:1015F4009B040090D2B2201CFFF758FB638D238517
:101604003FE000231370A36B402235E040269D6920
:1016140035400ED0608D002805D180215A68C9015B
:101624000A435A602DE01170321CA36B1A43131C39
:1016340023E020269969B446314015D01968D43680
:10164400B14319606146D9615E68104931405960FF
:10165400077015700378201C622B02D1FFF70BFE74
:101664000FE0FFF704FE0CE010209D69054208D04E
:10167400D86111700422A36B1343A363201CFFF7EA
:10168400FBFD002334342370F7BDC04600E800FEA0
:101694008021036849009A6910B50A4207D01A6884
:1016A400120604D50124826B22438263D96180210E
:1016B4009A69C9000A4207D01A68120604D5082498
:1016C400826B22438263D96180219A6989000A422C
:1016D40007D01A68120604D50224826B224382635F
:1016E400D9610B23826B1A4205D0031C01223533C6
:1016F4001A70FFF7C1FD10BD806B7047021C031CFC
:10170400022070B535321478844223D01478122C18
:1017140020D01478222C1DD01478322C1AD01478AE
:10172400422C17D01D1C34352C78012C12D01B6888
:1017340010701C68013884431C601E68064C3440D9
:101744001C601C68214319601968014319601070FA
:101754000020287070BDC046FFEFFFFF70470000F7
:101764008021034A490013680B4313607047C04645
:1017740000700040F0B5036885B0041CDB0703D497
:1017840023689B075ED4A8E00C23C14D6A681A4005
:10179400042A0BD06A681340082B0ED1C0236A6850
:1017A4005B02134080225202934206D12B689B03B2
:1017B400E6D56368002BE3D191E12B68B54FB64EB3
:1017C4003B402B602B6833402B60FEF775FD019086
:1017D4002A68AF4B920308D5FEF76EFD019BC01A31
:1017E400AE4B9842F4D90320FAE16268012A12D080
:1017F400002A09D11A6817401F601A6816401E6033
:10180400FEF75AFD061C19E0052A0AD180211A6840
:10181400C9020A431A6080211A6849020A431A60FD
:10182400CCE11A6817401F601A6816401E60C5E1B3
:10183400FEF742FD994B801B9842D4D82B689B033A
:10184400F6D49DE70C23924D6A681A420BD06A685D
:101854001340082B16D1C0236A685B021340802210
:10186400120293420ED12B689B0703D5E368012B28
:1018740000D034E1F8212B6822698B43D200134352
:101884002B602AE0E3680122002B17D02B68134356
:101894002B60FEF711FD061C2B687D499B0705D4C0
:1018A400FEF70AFD801B6428F6D99CE7F8200B6834
:1018B40022698343D20013430B600EE02B689343E9
:1018C4002B60FEF7F9FC061C2B689B0705D5FEF779
:1018D400F3FC801B6428F7D985E723681B0703D42E
:1018E40023685B072DD530E0236A0122684D002B65
:1018F4000ED06B6A13436B62FEF7DEFC061C6B6A48
:101904009B07EDD4FEF7D8FC801B6428F7D96AE75F
:101914006B6A93436B62FEF7CFFC061C6B6A9B07F2
:10192400DED5FEF7C9FC801B6428F7D95BE7FEF718
:10193400C3FC5A4B801B984200D954E72B6A9B077F
:10194400F5D52368DB0663D4ACE08023504D5B05FA
:10195400EA69534E1A43EA61EA6913408022039309
:10196400039B3368520013433360FEF7A5FC071C46
:101974003368DB0505D4FEF79FFCC01B6428F7D948
:1019840031E701222B6A93432B622B6A0332934380
:101994002B62FEF791FC061C2A6A3D4B920706D582
:1019A400FEF78AFC3D4B801B9842F5D91BE7A268E1
:1019B400012A02D1196A0A431DE00121002A0AD131
:1019C4001A6A8A431A621A6A03318A431A62FEF750
:1019D40073FC061C18E0052A07D104201A6A024386
:1019E4001A621A6A11431962F6E01A6A8A430421D8
:1019F4001A621A6A8A431A62EEE0FEF75DFC274B0C
:101A0400801B984200D9EEE62B6A9B07F5D498E731
:101A140062691F4D0423012A1AD1696B0B436B635E
:101A24006B6B1A436A63FEF747FC061C6B6B184921
:101A34009B0705D4FEF740FC801B6428F6D9D2E648
:101A4400F8204B6BA2698343D20013434B6329E014
:101A540005320AD1F8216A6B9A436A636B6BA269F7
:101A64008B43D20013436B631CE06A6B1343012264
:101A74006B636B6B93436B63FEF71EFC061C6B6B13
:101A84009B070FD5FEF718FC801B6428F7D9AAE63C
:101A940000100240FFFFFEFFFFFFFBFF8813000062
:101AA4000070004023689B0603D4626A002A3CD17C
:101AB40067E00C234B4D6A681A409A4209D06A6861
:101AC4001340082B0DD1C0226B685202134093427D
:101AD40007D16B6BDB03E8D5E369012BE5D001206B
:101AE4007EE0E369002B10D080226B6B520213431B
:101AF4006B63FEF7E1FB061C6B6BDB03D5D4FEF7CF
:101B0400DBFB801B6428F7D96DE66A6B364B134008
:101B14006B63FEF7D1FB061C6B6BDB03C5D5FEF7CD
:101B2400CBFB801B6428F7D95DE60C232D4D696837
:101B34000B40082BD3D02D4B022A30D12A681340F6
:101B44002B60FEF7B9FB061C2A68264B92011AD4B7
:101B54000F21DA6A8A43216B0A43DA62E16AA06AD6
:101B64005A68084322490A40802102435A601A688D
:101B740049040A431A60FEF79FFB041C2B689B016F
:101B840007D500202CE0FEF797FB801B6428DBD9E7
:101B940029E6FEF791FB001B6428EFD923E62A68A7
:101BA40013402B60FEF788FB041C2B689B01E8D5CF
:101BB400FEF782FB001B6428F7D914E6FEF77CFBD2
:101BC400061C2B689B0300D5DAE5FEF775FB094B71
:101BD400801B9842F5D906E6FEF76EFB061CADE6BF
:101BE40005B0F0BD00100240FFFFFEFFFFFFFFFE47
:101BF400FF7FC2FF881300000123F7B57B4A0E1C48
:101C04001168041C1940171C8E4277D91168994336
:101C14003143116012681340B34201D00120E3E064
:101C24000268930706D5F02071494B688343A06886
:101C340003434B60D3070BD423685B0700D4CFE086
:101C44006B496C4B4A681340E26813434B60C7E02E
:101C54006368674D012B03D12A6892030FD4DDE733
:101C6400022B03D12A68920109D4D7E7032B03D1AD
:101C74006A6BD20303D4D1E72A689207CED5032135
:101C84006A688A4313436B60FEF716FB6368061C9D
:101C9400012B0CD10C236A681340042BCCD0FEF723
:101CA4000BFB554B801B9842F4D903209CE0022B7C
:101CB4000BD10C236A681340082BBDD0FEF7FCFA45
:101CC4004D4B801B9842F4D9EFE7032B11D10C2321
:101CD4006A6813400C2BAFD0FEF7EEFA464B801B1C
:101CE4009842F4D9E1E7FEF7E7FA434B801B9842A8
:101CF400DBD80C236A681A42F5D19DE70268930782
:101D040006D5F0203A494B688343A06803434B60EF
:101D1400D3070AD401223B68934333433B603B68B7
:101D24001A40B24200D079E786E76368304D012B50
:101D340003D12A68920310D470E7022B03D12A68D6
:101D440092010AD46AE7032B03D16A6BD20304D449
:101D540064E72A68920700D460E703216A688A432B
:101D640013436B60FEF7A8FA63680190012B0CD152
:101D74000C236A681340042BCCD0FEF79DFA019B18
:101D8400C01A1D4B9842F3D98FE7022B0CD10C23B8
:101D94006A681340082BBDD0FEF78EFA019BC01A67
:101DA400154B9842F3D980E7032B14D10C236A68AE
:101DB40013400C2BAED0FEF77FFA019BC01A0E4BDA
:101DC4009842F3D971E7FEF777FA019BC01A0A4BE0
:101DD400984200D969E70C236A681A42F3D199E75B
:101DE4000320FEF73FFA0020FEBDC046002002405B
:101DF40000100240FFF8FFFF8813000030B5194CB3
:101E040089B0211C1022684603F0A2FB211C04ADFA
:101E140010311022281C03F09BFB0C2212494B6842
:101E24001A40082A03D00C2A19D1104818E0684631
:101E34009A02120F845C0F22C96A80200A40A95CAE
:101E4400C022520213404002834206D0934204D17E
:101E5400064803F097F8604302E00548F9E70448B0
:101E640009B030BD845D000800100240006CDC0243
:101E740000127A0008B5FFF7C1FF054B054A5B68FD
:101E84001B061B0FD35CD840034B186008BDC0462B
:101E940000100240A45D00081C00002008B5FFF7F4
:101EA400E9FF044B044A5B685B055B0FD35CD840D5
:101EB40008BDC04600100240A45D00080368F7B5E1
:101EC400051CDB0346D53B4C4268236A5340C022C1
:101ED400920013423ED08023E2695B051A43E2611B
:101EE400E269354E134080220193019B336852000E
:101EF40013433360FEF7E0F9071C3368DB0506D4AF
:101F0400FEF7DAF9C01B6428F7D9032051E08020DA
:101F1400226A236A111C400203432362206A274E6B
:101F2400274B3140034023622162930705D4236A7F
:101F34001E406B681E4326620CE0FEF7BDF9071CC9
:101F4400236A9B07F3D4FEF7B7F91E4BC01B9842D4
:101F5400F6D9DAE72B68DA0706D5032015490A6BA8
:101F64008243A86802430A639A0706D51149164AB0
:101F7400086B0240E86802430A639A0606D51020FB
:101F84000C490A6B8243286902430A639A0306D503
:101F9400802008490A6B8243A86902430A6300202F
:101FA4005B0506D5402203490B6B93436A691343CF
:101FB4000B63FEBD0010024000700040FFFCFFFFF9
:101FC400FFFFFEFF88130000FFFFFCFFA021026853
:101FD40038B5D368041C8B43D360FEF76DF9051C38
:101FE4002368DB689B0608D4FEF766F9FA23401BD6
:101FF4009B009842F4D9032000E0002038BD38B596
:102004000368DA68520601D5002012E00122524228
:10201400DA60041CFEF750F9051C2368DB685B06D4
:10202400F2D4FEF749F9FA22431B92009342F4D901
:10203400032038BD10B5041C0120002C3DD0637F63
:10204400DBB2002B03D12377201C02F0DDFE022338
:10205400CA2263772368201C5A62773A5A62FFF7D0
:10206400CEFF2368002805D0FF225A6204230120F2
:10207400637722E09968114A0A409A609A68616815
:102084000A4321690A4361690A439A60E268A168C4
:102094001A611A6909040A4380211A61DA688A43B9
:1020A400DA60196C064A0A401A641A6CA1690A4378
:1020B4001A64FF225A620123637710BDBFFF8FFFAA
:1020C400FFFFFBFF0023092803D90A380133C0B2FC
:1020D400F9E71B011843C0B2704700000223F7B5AB
:1020E400047F1F1C012C67D00D1C0121437703685A
:1020F40001779B683F31041C6E782878AF780B40D9
:10210400002A15D1002B00D12B72FFF7DBFF0190C1
:10211400301CFFF7D7FF061C381CFFF7D3FF2B7AC0
:1021240036021B041843019B1F043843064309E08D
:10213400002B00D12B7200043602064337432E7A5B
:1021440036043E43CA222368201C5A62773A5A62F4
:10215400FFF755FF2368071E06D0FF225A620423A7
:102164006377002323771EE01448154A06401E6057
:1021740099680A409A609A68E9680A4329690A4397
:1021840080219A60DA688A43DA609B689B060CD4E3
:10219400201CFFF71BFF002807D0FF2223685A6288
:1021A400042327776377012706E0FF2223685A6216
:1021B4000123637700232377381CFEBD7F7F7F00D4
:1021C400FFFFFBFF0223F7B5047F1E1C012C5AD02E
:1021D4000D1C012143770177041C6B78E878AF78F4
:1021E4002E78002A48D11032134203D093431A1C8C
:1021F4000A326A70FFF766FF01906878FFF762FFA2
:10220400051C381CFFF75EFF019B770307431E0480
:102214003E432F023743CA222368201C5A62773A6E
:102224005A62FFF7ECFE2268061E06D0FF235362B3
:10223400FB3B63770023237714E08021134B1F407B
:102244005760D3688B43D36093689B060CD4201CDF
:10225400FFF7BCFE002807D0FF2223685A6204233C
:102264002677637701260EE0FF2223685A62012352
:1022740063770023237706E000041B0203431F4314
:1022840075032F43C7E7301CFEBDC0463FFFFF0068
:102294000A2302095A43053318401018C0B2704784
:1022A400036870B5986A1E6880237F24DB03486046
:1022B4007504B0023340800E6D0E34401B0C087060
:1022C4004D708C700B72002A0BD10E1CFFF7E0FFCF
:1022D4003070281CFFF7DCFF7070201CFFF7D8FF5C
:1022E400B070002070BD70B53F2403685B681802AD
:1022F400DD041C401B04000EED0E5B0FC8704D7016
:102304008C700B70002A0BD10E1CFFF7C1FFF0700C
:10231400281CFFF7BDFF7070201CFFF7B9FFB070D9
:10232400002070BD036889005033C9180A607047E3
:10233400036889005033C91808687047F0B585B040
:10234400041C0E1C171C1D1CFDF7B6FF019022680F
:1023540093683340BB4242D0C023DB009E4206D187
:10236400002F04D1137B02A9DBB2CB71CB796B1C98
:10237400EED0002D0AD1E02123685A688A435A60BE
:10238400822261685200914214D106E0FDF794FF65
:10239400019BC01AA842DAD3EDE78021A2680902A2
:1023A4008A4203D08021C9008A4203D140211A689D
:1023B4008A431A608022A06A9201904206D11A6868
:1023C4000849114019601A6802431A60231C01224B
:1023D4005D331A7000235C342370032000E0002076
:1023E40005B0F0BDFFDF0000F7B5041C0E1C019220
:1023F4001D1CFDF761FF071C226893680199334097
:102404008B4236D06B1CF8D0002D0AD1E021236812
:102414005A688A435A60822261685200914213D1F9
:1024240005E0FDF749FFC01BA842E5D3EEE7802194
:10243400A26809028A4203D08021C9008A4203D1DA
:1024440040211A688A431A608022A06A920190424D
:1024540006D11A680849114019601A6802431A60C3
:10246400231C01225D331A7000235C342370032083
:1024740000E00020FEBDC046FFDF000038B50D1CA3
:10248400C021002249012B1C041CFFF757FF021E28
:1024940006D1201C80212B1CFFF7A6FF002804D0A6
:1024A40020230320226E1343236638BDF8B501238D
:1024B40000285DD0051C5D352B78041CDBB2002B95
:1024C40004D1021C5C32137002F044FB022340214D
:1024D4002B702368E0681A6800268A43E0211A609A
:1024E400C900884205D9F0221201904206D1321C5B
:1024F40006E080225201884201D101E0321CA6622A
:10250400266B002E05D1884201D9022100E0012169
:1025140021636768A668A1693E4327693E436769EA
:102524003E43E7693E43276A3E43A76A3E4380270A
:10253400BF000F403E431E60266B022E04D180274D
:102544001E683F013E431E60666A090C3043666B99
:1025540006430420014031430A435A60E26A1A6187
:10256400D969044A0A40DA610023012223662A70E9
:10257400181CF8BDFFF70000F0B5041C87B01F1C41
:10258400029103920C9EFDF797FE231C5C3301908D
:1025940000931B780220012B00D131E10123009A22
:1025A400051C1370221C5D321378DBB2012B00D0A2
:1025B4001FE102991D1C002900D11AE10399002989
:1025C40000D116E1002F00D113E10433137000236E
:1025D4002366231C802208332164DF87A31DDF8741
:1025E400A06A029BE787A363A787236892019042AE
:1025F40006D11A688349114019601A6802431A60A7
:10260400E022E168D200914201D8012F03D9586831
:102614007D4A024003E080205A6840010243402082
:102624005A601A68024202D11A6802431A60251CD1
:10263400E0230835DB00994246D9E38F002B30D0E4
:1026440022689168890714D5A16B013B09889BB264
:10265400D160A16BE3870231A163002B09D18023F0
:10266400A16A9B01994204D18021136849010B435B
:102674001360EB8F002B0BD022689368DB0707D520
:10268400236CD2681A8002332364EB8F013BEB87FF
:10269400731CD2D0FDF710FE019BC01AB042CCD3FC
:1026A4006CE0EB8F002BE4D18023A26A9B019A4259
:1026B40000D086E056E021688A68920708D4E98F42
:1026C400002925D1731C42D1E38F002BF3D145E0BF
:1026D400A26B012B06D91288023BCA60A26B02329C
:1026E400A26305E0531CA36313780B73E38F013BD0
:1026F400E387E38F002BE2D18023A26A9B019A42F5
:10270400DDD180212268490113680B431360D6E7A9
:1027140022689368DB07D5D5236C01290FD9D168CA
:10272400198002332364EB8F023B9BB2EB87012BAE
:10273400C8D88021536849010B435360C2E7591C30
:102744002164127B1A70EB8F013BEB87BAE7FDF72C
:10275400B3FD019BC01AB042B6D30FE0EB8F002B40
:10276400ADD1A1E70121201C0A1C331CFFF73CFE5C
:10277400002805D00223226E13432366032538E084
:1027840004AA951DF022E16823681201914202D146
:10279400DB689BB213E01B7B276B2B802B88022FFB
:1027A4000FD10121201C0A1C331CFFF71DFE002839
:1027B40003D0236E1F432766E0E723681B7B2B802F
:1027C4002B88226800259368DB0606D50223216E38
:1027D40001350B4323660D4B9360201C311CFFF71E
:1027E4004DFE002801D020232366236E002B00D049
:1027F400012501235D3423700023281C009A1370E3
:1028040007B0F0BDFFDF0000FFEFFFFFEFFF0000A8
:10281400012270B57324036A93430362036A426816
:102824008569A5430C6825430224A3438C6823438C
:10283400144CA04208D0144EB04205D0134EB042FE
:1028440002D0134EB04216D10826B343CE683343A8
:102854000426B343A04208D00B4CA04205D00B4C35
:10286400A04202D00A4CA04205D10A4C4E69224033
:102874008C693443224342604A688561426303623F
:1028840070BDC046002C014000400140004401409E
:1028940000480140FFFCFFFF026A194B30B51340AA
:1028A40003627323046A4268C5699D430B681D4330
:1028B400144B23408C6824022343134CA04207D1B9
:1028C400124C2340CC6824022343114C234005E0DE
:1028D400104CA04202D0104CA0420DD10F4C22400B
:1028E4004C69240122438C692401224342604A68D2
:1028F400C561C263036230BD094CA042F6D1EDE765
:10290400FFFEFFFFFFFDFFFF002C0140FFF7FFFF6D
:10291400FFFBFFFF0040014000440140FFCFFFFFE9
:1029240000480140026A144B70B513400362066A02
:10293400124C0A684368C569254014022543104AAD
:102944008C683240240322430E4CA04208D00E4C23
:10295400A04205D00D4CA04202D00D4CA04204D19F
:102964000C4C23404C69A401234343604B68C5616C
:102974000364026270BDC046FFEFFFFFFF8CFFFFE0
:10298400FFDFFFFF002C01400040014000440140F4
:1029940000480140FFBFFFFF03680120D9680143DD
:1029A400D9601A6802431A60002070477047704764
:1029B400704710B5446A0123221C39321370226A0D
:1029C40090420DD0636A984201D1022308E0A36AC1
:1029D400984201D1042303E0E36A984201D1082319
:1029E4002376201CFFF7E4FF0023237610BD7047F5
:1029F4000222036810B51969041C114213D0D96866
:102A0400114210D0053A1A619B69043202769B0781
:102A140002D0FFF7CCFF04E0FFF7C8FF201CFFF74C
:102A2400C7FF00232376042223681969114216D0B4
:102A3400D968114213D0093A1A61073222769A6989
:102A4400C0239B00201C1A4202D0FFF7B0FF04E011
:102A5400FFF7ACFF201CFFF7ABFF0023237608220F
:102A640023681969114214D0D968114211D0113A5E
:102A74001A61DB690D322276201C9B0702D0FFF716
:102A840096FF04E0FFF792FF201CFFF791FF00235D
:102A94002376102223681969114216D0D96811428D
:102AA40013D0213A1A6119322276DA69C0239B00C5
:102AB400201C1A4202D0FFF77AFF04E0FFF776FFEA
:102AC400201CFFF775FF0023237601222368196970
:102AD400114207D0D968114204D0033A1A61201C6C
:102AE40001F02EFF802223681969114208D0D968A9
:102AF400114205D0023AFF3A1A61201C00F007FA8D
:102B0400402223681969114207D0D968114204D0C0
:102B1400813A1A61201CFFF76AFF20222368196991
:102B2400114207D0D968114204D0413A1A61201CDD
:102B340000F0ECF910BD7047406A08B5031C01228F
:102B440039331A70FFF7F7FF08BD00001E4A10B5AD
:102B54000368904206D08024E405A04202D01B4CB6
:102B6400A0420CD17024A3434C682343904212D05A
:102B74008024E405A0420ED0144CA0420BD0144C87
:102B8400A04208D0134CA04205D0134CA04202D05E
:102B9400124CA04203D1124C2340CC68234303605F
:102BA4008B68C3620B688362904208D0094B9842D9
:102BB40005D0094B984202D0084B984201D10B69C9
:102BC40003630123436110BD002C01400004004055
:102BD4000020004000400140004401400048014002
:102BE400FFFCFFFF38B50123002814D0051C39353C
:102BF4002B78041CDBB2002B04D1021C3832137076
:102C040001F0E4FF0223211D2B702068FFF79EFFD3
:102C140001232B700023181C38BD38B5012300286C
:102C240014D0051C39352B78041CDBB2002B04D1DD
:102C3400021C3832137001F0E3FF0223211D2B70B4
:102C44002068FFF783FF01232B700023181C38BD75
:102C54001022036A30B593430362036A174C426837
:102C640085692C400D682D022C432025AB438D68CB
:102C74002D012B43124DA84207D18025AB43CD68CB
:102C84002D012B434025AB4305E00E4DA84202D055
:102C94000D4DA8420DD10D4D2A404D69AD002A437A
:102CA4008D69AD002A4342604A688461826303628D
:102CB40030BD074DA842F6D1EDE7C046FF8CFFFFBB
:102CC400002C01400040014000440140FFF3FFFF9D
:102CD40000480140F8B5061C022438363578231C18
:102CE400012D59D0071C013B393733703C700C2A35
:102CF4004ED8041C101C0D1C02F03AF9074A4A4A2B
:102D0400164A4A4A294A4A4A38002068FFF780FD91
:102D1400082123689A690A439A619A6904398A43A3
:102D24009A6199692A690FE02068FFF791FF802171
:102D3400236809019A690A439A619969174A0A4002
:102D44009A612A69996912020A439A6120E020680B
:102D5400FFF7A2FD08212368DA690A43DA61DA6918
:102D640004398A43DA61D9692A690FE02068FFF7D8
:102D7400D9FD802123680901DA690A43DA61D96936
:102D8400064A0A40DA612A69D96912020A43DA61F9
:102D940001233B7000233370181CF8BDFFFBFFFFB9
:102DA40010B501248C408A40036AA3430362036A7A
:102DB4001A43026210BD000010B5041C0122006811
:102DC400FFF7EEFF23680B4A934208D00A4A934266
:102DD40005D00A4A934202D0094A934204D1802181
:102DE4005A6C09020A435A6401211A6800200A43F2
:102DF4001A6010BD002C0140004001400044014015
:102E04000048014070B5061C041C022039360D1C14
:102E1400317881426DD03078C0B2012805D1002AC2
:102E240001D1002B65D102213170111C0C2D42D827
:102E3400281C02F09DF807404040154040402340C4
:102E440040403100206A2B4A82622B4A0263226886
:102E54003432FDF793FC802122688900D36828E08E
:102E6400606A244A8262244A026322683832FDF787
:102E740085FC80212268C900D3681AE0A06A1D4A33
:102E840082621D4A026322683C32FDF777FC80218E
:102E940022680901D3680CE0E06A164A8262164A85
:102EA400026322684032FDF769FC802122684901EF
:102EB400D3680B43D36001222068291CFFF770FFFD
:102EC40023680E4A93420ED00D4A93420BD00D4A0A
:102ED400934208D00C4A934205D001211A6800207D
:102EE4000A431A6005E080215A6C09020A435A64B5
:102EF400F3E770BDB72900083D2B0008002C014002
:102F040000400140004401400048014070477047C0
:102F140070B50124002812D0061C022369363370D0
:102F24000368051C1A686835A24300241A601C60F3
:102F34005C609C6001F080FD6C6034702C70201C1F
:102F440070BD70B5041C6934031C2078012803D0BB
:102F540025780220222D25D10120002922D0002A03
:102F640020D01D1C68352E780018012E1AD0013887
:102F74002870D964191C50310A804A800022DA660C
:102F84002278222A01D1103200E0122201210020ED
:102F94001B6822709A680A439A601A687F310A4350
:102FA40028701A6070BD000070B5041C6934031CDD
:102FB4002078012803D025780220122D48D1012041
:102FC400002945D0002A43D01D1C68352E780018EE
:102FD400012E3DD0013828705965191C58310A80DA
:102FE4004A8080219A6849018A4204D11A69002AD8
:102FF40006D1184910E0002A06D11A69002A01D125
:10300400FF2109E07F2107E0802149058A4206D19A
:103014001A69002AF6D03F211A1C5C321180002262
:10302400DA662278122A01D1203200E0222280219D
:1030340000201B6822701A6849000A431A609A68C3
:10304400FF390A439A601A681F310A4328701A60CC
:1030540070BDC046FF01000070B5041C0568C3695B
:10306400A16800692A68084361690843494918430B
:103074000A4002432A606968474A206A0A40E168B4
:103084000A43A1696A60AA68084344490A400243A2
:10309400AA60434A95420AD1424A116B03220A406C
:1030A4004149885C80221202934253D11FE03F4A77
:1030B400954215D1C020802680213A4A8002126BA5
:1030C400760202400902B24225D002D8002A17D063
:1030D40031E08026B602B24223D0824217D02AE0E1
:1030E400334A95420CD0334A954224D108E008284B
:1030F40025D801F03DFF09240E24122424241800AD
:103104008022120293422ED1FEF7C8FE07E08B42C2
:103114002CD1294809E08B422AD1FEF76FFE4000EA
:1031240003E08B422BD180204002616801F02AFF2A
:1031340083B2002005E080221202934227D10120AD
:1031440000230F221D1C1340954321685B102B4361
:10315400CB601DE008281AD801F00AFF05190819E8
:103164000A1919191100FEF799FE03E0134801E04A
:10317400FEF744FE616801F005FF80B204E08020A0
:103184006168000201F0FEFEE860002000E001201A
:1031940070BDC046F369FFEFFFCFFFFFFFF4FFFFF1
:1031A4000038014000100240B45D000800440040B3
:1031B40000480040004C00400024F40000127A0053
:1031C400436A30B5DA0706D50168284A4C682240BC
:1031D400846A22434A609A0706D50168244A4C68E7
:1031E4002240C46A22434A605A0706D50168214A2C
:1031F4004C682240046B22434A601A0706D50168D2
:103204001D4A4C682240446B22434A60DA0606D5C4
:1032140001681A4A8C682240846B22438A609A06A9
:1032240006D50168164A8C682240C46B22438A6022
:103234005A0610D50168134A4D68046C2A4022438B
:103244004A6080225203944205D14C680E4A2240BF
:10325400446C22434A601B0606D501680B4B4A683E
:103264001340826C13434B6030BDC046FFFFFDFF2B
:10327400FFFFFEFFFFFFFBFFFF7FFFFFFFEFFFFFEF
:10328400FFDFFFFFFFFFEFFFFFFF9FFFFFFFF7FFE2
:10329400F7B51D1C041C0E1C0192FDF70DF8019BD3
:1032A400071C002B36D12268D3693340B3420FD0B8
:1032B4006B1CF9D0002D0FD0FCF7FEFFC01BA842F9
:1032C400F1D909E06B1C05D1D3693340B342F9D07D
:1032D400002021E0002D18D18021236803201A68E2
:1032E4008A431A601A6860398A431A6019680B4A5B
:1032F4000A4001211A609A688A439A60231C693340
:10330400197000236834237006E0FCF7D5FFC01B56
:10331400A842E1D82268D7E7FEBDC046FFFEFFFF02
:10332400F7B5051C019369352B78041C0E1C012B81
:1033340003D02B780220222B4DD10120002E4AD01D
:10334400002A48D0271C68373B780018012B42D04C
:1033540001233B700023E3662B78222B01D1103329
:1033640000E012232B70231C50331A805A80231C34
:1033740052331A88002A1ED0013A1A80201C802158
:103384000022019BFFF784FF002801D0032022E0E4
:103394008023A16822685B01994208D12369002B2C
:1033A40005D133880236DB05DB0D1385DFE733787F
:1033B40001361385DBE7201C4021019BFFF768FFE2
:1033C4000028E3D12B78322B01D1103B00E00123FC
:1033D4002B7000233B70FEBD002310B5184AC36652
:1033E4000368041C93420AD0164A934207D0231C54
:1033F40001220020693368341A7020701EE01B68B3
:103404001B0704D423681B685B07F0D50BE08021FD
:10341400FA23201C890300229B00FFF739FF0028B0
:10342400F0D003200AE08021FA23201CC9030022E3
:103434009B00FFF72DFF0028F3D1D8E710BDC0464D
:10344400003801400044004038B5002801D1012073
:103454002DE0051C69352B78041CDBB2002B04D14C
:10346400021C6832137001F075FA022301212268EC
:103474002B701368201C8B431360FFF7EDFD0128AC
:10348400E5D0636A002B02D0201CFFF799FE236865
:10349400074A5968201C0A402A215A609A688A43BC
:1034A4009A601A6829390A431A60FFF795FF38BDF4
:1034B400FFB7FFFF031C70B569331978021C12298A
:1034C40003D01B780220322B25D1151C52352B88B2
:1034D4001168002B08D180200A6882430A600A68B8
:1034E400403802430A6015E080249668D06C640179
:1034F400A64209D11469002C06D104880230E405DF
:10350400E40D0C85D06403E0441CD46402780A857D
:10351400581E2880002070BD4021036810B51A6829
:103524008A431A60021C69321178322902D122239B
:10353400137004E001249968A1439960147001F0A8
:10354400C1F9002010BD0000031C021C70B55C33DF
:10355400693219881378222B03D013780224322B72
:1035640034D180258668436D04686D01AE4208D16C
:103574000569002D05D1A48C2140198002334365CF
:1035840004E05D1C4565A48C21401970011C0024D5
:103594005A310B88013B9BB20B80A34216D10368BE
:1035A40020341968A14319601178322902D11223F9
:1035B400137008E01C6806492140012419609968C9
:1035C400A1439960147001F093F90024201C70BD8C
:1035D400FFFEFFFF70470122036810B5D969041C80
:1035E400114209D01968C90506D51A62C16E114382
:1035F400C166011C69310A700222D96911420BD0DB
:1036040001219868084207D004201A62E26E02433E
:10361400E266221C693211700422D96911420BD06E
:1036240001219868084207D002201A62E26E024320
:10363400E266221C693211700822D96911420AD04B
:1036440001219868084206D01A62E36E1343E366C8
:10365400231C69331970E36E002B02D0201C01F087
:103664006DF9802223685203D96911420AD09968FE
:10367400490207D51A62231C012269331A70201CDF
:10368400FFF7A8FF20232268D16919420AD01268E3
:103694001A4207D0201CFFF757FF082122689369BC
:1036A4000B43936180232268D169194205D01268C3
:1036B4001A4202D0201CFFF7FDFE40232268D16984
:1036C400194205D012681A4202D0201CFFF724FFC9
:1036D40010BD00000121114B1A680A431A60586892
:1036E4000F4A02405A6018680E4A02401A6018686D
:1036F4000D4A02401A6058680C4A02400F205A6072
:10370400DA6A8243DA62186B094A02401A635A6B16
:103714008A435A6300229A607047C04600100240F0
:103724000CB8FF08FFFFF6FEFFFFFBFFFFFFC0FF23
:103734002CFEFCFFF8B50C23164E174D726813408F
:10374400042B01D0082B02D0144B2B6018E00F235C
:1037540074687268F16AC02719408023A4027F024A
:10376400240F3A40023401315B029A4203D0BA4238
:1037740001D10B4800E0094801F004FC44432C60EB
:103784007368084A1B061B0FD35C2A68DA402A6058
:10379400F8BDC046001002401C00002000127A0050
:1037A400006CDC020C000020FEE708B589B205239A
:1037B4000222FDF7CDFC43425841C0B208BD13B507
:1037C400041CFA208000009089B29BB2201CFDF7F3
:1037D40033FC002802D0201CFDF78EFF13BD7FB5FB
:1037E4000F24051C0E1C6C442270FA239B000093CA
:1037F400B1B2281C221C0123FDF790FB002803D042
:10380400281CFDF779FFF0E77FBD000007B5074AE4
:10381400031C1068002808D064220092044A9BB25A
:103824001168044A1268FEF7A7FE07BDB80000201D
:10383400B4000020B000002008B5044B0122197820
:10384400034B1868FDF71CFA08BDC046A800002009
:10385400A0000020014B18607047C0469C00002067
:1038640010B5041C064B00221978064B1868FDF7A6
:1038740007FA201CFFF7CAFFFFF7DEFF10BDC046A2
:10388400A8000020A000002008B5034B1B68002BF3
:1038940000D0984708BDC0469C000020F8B50C1C19
:1038A400144E154D3460154C2B602260144B069A4F
:1038B40008A91A60079A134B134F1A600978134B1F
:1038C40038601970101C89B20122FDF7D9F93B68E0
:1038D4000B4F002B02D10E48FFF7D6FF2A68306841
:1038E400002101F03EFE3A682068002101F039FE13
:1038F400F8BDC046B4000020AC000020B000002099
:10390400A4000020A0000020B8000020A80000208F
:10391400B85D0008052208B5044B03201B681A7023
:10392400FFF79EFF024B1B68587808BDB4000020C7
:10393400B0000020AB2208B5034B01201B681A70AD
:10394400FFF78EFF08BDC046B40000200123021C0F
:1039540013B5440881061A4023401B02090F0904C9
:103964001A43C0090A430306101C184316BD07B5C1
:10397400FFF7D0FFFFF7EAFFC0B20028F8D107BD78
:10398400002370B5061C0D1C0B4CE3730F34301C64
:10399400291C0A22002301F087FB013C30322270EB
:1039A400301C291C0A22002301F07EFB061C0D1C7E
:1039B4000843ECD1201C70BDBC00002030B52B4C5A
:1039C4002B4B85B0201C2360FCF788FD002801D018
:1039D40000F0CAF80422802362611B06C22200257B
:1039E40063600123FF32201CA560E5602361A561AB
:1039F400E56125626362A262E56223636563FCF7A5
:103A0400D1FCA84201D000F0AFF801958025032332
:103A14006D01201C01A902950393FCF7A9FD002860
:103A240001D000F0A1F80123201C019301A9023365
:103A340002950393FCF79CFD002801D000F094F854
:103A44001023201C01A90193FCF792FD002801D04A
:103A540000F08AF81123201C01A90193FCF788FDCA
:103A6400002801D000F080F805B030BDAC01002082
:103A74000024014010B5041C01F04EFE211C82B24A
:103A84000648FFF75EFA002801D000F06DF8044BF9
:103A94001A78012AFBD100221A7010BDF802002006
:103AA400CE00002010B5144B144C0C222360962336
:103AB4009B0163600023201CA360E3602361A36176
:103AC40062616362FFF724FA002801D000F04CF829
:103AD400201CFFF7B9FC002801D000F045F8201C99
:103AE40007490122FFF760FA002801D000F03CF8F2
:103AF4000448FFF7BFFF10BD00380140F802002062
:103B040068030020685E0008074B19780A2906D06C
:103B1400064A07481378C1540133137002E00122A6
:103B2400044B1A707047C04668030020CC00002084
:103B3400F8010020CD00002010B5074C074821787B
:103B440000F086FD0648022100F082FD0023054AAC
:103B54002370137010BDC046CC000020F801002073
:103B6400CB5D0008CD000020FEE7802370B55B022A
:103B740098B0159380230124002502265B030BA82B
:103B840016930B940C9414961795FDF7F3FD80236C
:103B94009B020493802304A80A93FEF78FF907235A
:103BA4006846211C0093019602950395FEF724F8BC
:103BB40018B070BD8023F0B51C4C1B03626989B03A
:103BC4001A43626162698026134001930125019BB7
:103BD4000323174FB601381C03A9069304950595D2
:103BE4000396FCF71DFF381C311C0022FDF748F832
:103BF40080236269DB021A43626162690024134014
:103C04000293029B0B4B03A9049304230A480393D6
:103C14000594FCF705FF291C221C0620FCF726FD51
:103C24000620FCF755FD09B0F0BDC0460010024067
:103C3400000800480000111000040048802110B55D
:103C440015488901FDF722F8144C2278D2B2002AD3
:103C540002D1101C111C13E02378012B03D1002185
:103C6400FF200A1C0CE02378022B03D10020FF2143
:103C7400021C05E02378032B04D10020FF22011C41
:103C840000F052FD23780133DBB22370042B01D101
:103C94000023237010BDC04600080048CF00002058
:103CA400404BF7B51868404901F06CF93F4E404B62
:103CB400FA24336000233F4F013838607060A40059
:103CC400301CF4603361B3607361FEF7A6FF002813
:103CD40001D0FFF749FF384D384B281C2B603B6857
:103CE400EC606B6000232B61AB606B61FEF795FFAA
:103CF400002801D0FFF738FF8023314CDB05236017
:103D04003B68201C6360FA239B00E360002323616B
:103D1400A3606361FEF781FF0194002801D0FFF7DF
:103D240023FF00276023274C301C211C3A1C2360EE
:103D3400A7602761E7606761A7616760FEF7CAFF54
:103D4400B84201D0FFF710FF281C211C0022676035
:103D5400FEF7C0FF002801D0FFF706FF00220198FC
:103D6400211C6260FEF7B6FF002801D0FFF7FCFEBD
:103D7400301C0021FFF720F8002801D0FFF7F4FEE3
:103D8400281C0021FFF718F8002801D0FFF7ECFEEB
:103D940001980021FFF710F8002801D0FFF7E4FE96
:103DA400F7BDC0461C000020005A6202A803002090
:103DB40000440140D00000200004002000480140DD
:103DC4006C030020E403002008B502489021FFF7AB
:103DD400ECFC08BD3C04002010B50F4B0F4CFF2237
:103DE40023600F4B201C63600123E3600023A26067
:103DF40023616261E3612362FDF73EF8002801D08C
:103E0400FFF7B2FE0021201CFDF778FCFFF7DCFF72
:103E1400044B187010BDC046005400403C04002000
:103E24001413A500D400002008B5021C90210248F8
:103E3400FFF7D5FC08BDC0463C040020002313B5A1
:103E440001AC23706370FFF7EFFF05489021221C3B
:103E54000223FFF7B4FC207863780002184316BDF0
:103E64003C04002008B50020FFF7E8FF08BD08B5B2
:103E7400FFF7F8FFC00983B2DA050DD501211A1C3A
:103E84000A208A435206524240420B40920E424359
:103E9400181C05235B4207E00A210A1C1806400E81
:103EA40042430120184005235843101880B200B241
:103EB40008BD000030B587B06A4614230225D370CC
:103EC4001823124C557093701570201C69460122FA
:103ED400FEF778F9002801D0FFF746FE002301A978
:103EE400201C01220D704B708B700B72CB600B6128
:103EF400FEF7F4F8002801D0FFF736FE201C00215D
:103F0400034AFEF70FFA07B030BDC046780400201C
:103F1400F232000000237F2210B5174C6360236146
:103F24006361A361154BA260201C8032E2602360B0
:103F3400FEF780F8002801D0FFF716FE201C0021B0
:103F4400FEF7F6F90E4B984202D0FFF7B3FF11E0EB
:103F54000C4B5A6A120102D501210B4A11705A6A9C
:103F6400520102D50121094A117080215A6A49047B
:103F74000A435A6210BDC04678040020002800405D
:103F8400F232000000100240D50000200801002099
:103F9400F0B5071C8BB0114E05AD04AC0391301C79
:103FA400291C0022FEF77CF9211C301C0022FEF79C
:103FB4009AF9A9782A786B78381C0091084901F09D
:103FC40089FBFA20E178C00009186278A378039885
:103FD4000091044901F07EFB0BB0F0BD7804002091
:103FE400765E0008825E0008F0B5071C87B00E4DAF
:103FF40001AC0E1C281C211C0022FEF751F9694655
:10400400281C0022FEF76FF9084D22786378291CDA
:10401400381C01F05FFB6B46301C9A78291C5B78D6
:1040240001F058FB07B0F0BD780400208E5E000854
:104034008023F0B5802701250326394CDB02626911
:1040440089B01A43626162697F0113400193354864
:1040540003A9019B0495059506960397FCF7E0FCDC
:104064003048391C0022FCF70BFE802362699B0256
:104074001A436261626990208024134002936400B1
:10408400C00503A9029B0495059506960394FCF7C5
:10409400C7FC90200022C005211CFCF7F1FD07227B
:1040A4002148224BC2620360E0221023D200C36184
:1040B4000023C260802283604361036183620362E0
:1040C4004362436305339200FF33826105634360B7
:1040D400FEF7ECF9002801D0FFF746FD144B6421EC
:1040E400186800F04FFF134B0138134C1860134B42
:1040F400606023600923E3600023201C2361A36024
:104104006361FEF76FFD002801D0FFF72DFD201C31
:10411400FEF742FC002801D0FFF726FD09B0F0BDF0
:104124000010024000040048AC04002000380040A5
:104134001C00002040010020140500200010004055
:10414400F7B5902580248026ED056400114F281CC6
:104154007601211C0122FCF793FD381C311C00223E
:10416400FCF78EFD381C311C0122FCF789FD642309
:1041740009490093094A613B0948FEF7FDF9281CE7
:10418400211C0022FCF77CFD281C211C0122FCF7C9
:1041940077FDF7BD000400481005002098040020B6
:1041A400AC040020F8B5041C2A4D10220021281C60
:1041B40001F0D7F9201C642100F0E4FE6426464394
:1041C400A61BF6B2071C0A21301C00F0DBFE0A22F3
:1041D400C3B252425343F4181F4B002C1DD0022487
:1041E4000021301C1C70FFF7CBFB221C011C1B4858
:1041F40001F0AEF90021381CFFF7C2FB0023011CBB
:10420400C856DAB2002803D00133102BF8D11A1C97
:10421400A81A023001F09CF9F8BD0322211C301CBD
:104224001A70FFF7ADFB0122011C0D4801F090F953
:10423400211C381CFFF7A4FB231C011CC856DAB24E
:10424400002803D00133102BF8D11A1CA81A03300C
:10425400E0E7C0469B0400203C0100209D040020B0
:104264009E040020C30704D504211B4A93788B4382
:104274009370830704D50821174A93788B4393706E
:10428400430704D51021144A93788B439370030792
:1042940004D52021104A93788B439370C30604D528
:1042A40040210D4A93788B439370830604D57F2372
:1042B400094A91780B409370430604D50421064AB9
:1042C40053788B43537040B2002804DA0821024A21
:1042D40053788B435370704710050020042108B5B0
:1042E400054B49429A780A439A705A7810310A4326
:1042F4005A70FFF7B7FF08BD10050020203808B535
:10430400552869D800F034FE2B68686868686868C6
:104314006868686868652D682F313335375F393BC5
:104324003D3F68686868686868416847684B4D68DD
:104334004F685368556868685B68685F6863686855
:104344006868686868686868686843454968686850
:10435400685168686868575968685D6868610020D2
:1043640038E0802036E03F2034E0062032E05B2055
:1043740030E04F202EE066202CE07D202AE007204C
:1043840028E07F2026E0672024E0772022E07C20BC
:1043940020E058201EE039201CE05E201AE079203D
:1043A40018E0712016E0762014E0042012E01E20AC
:1043B40010E038200EE054200CE05C200AE073206A
:1043C40008E0502006E06D2004E01C2002E03E20BE
:1043D40000E03020FFF782FF08BD0000032310B582
:1043E4000C4CA27861789A439943A270131C421E24
:1043F4006170032A0DD8022806D90123032800D0AE
:1044040002231943617004E0012800D00220034311
:10441400A37010BD1005002010B5144C2378032B95
:1044240001D90023237020780130C0B2FFF7D6FFF2
:1044340023780F4AD05C002801D040B205E00D4B30
:1044440030201B78002B00D12020FFF757FF0A4BA8
:104454001A78237801339A4202D18020FFF702FFB1
:10446400FFF76EFE23780133237010BD3B0100205B
:104474009B0400203D0100203C010020431E10B598
:10448400032B0DD808220123121A074C934000294C
:1044940002D06078034302E062789A43131C63708D
:1044A400FFF74EFE10BDC046100500200722F0B5F0
:1044B4003C4C3D4BE262E02223600023D200E260E8
:1044C4008022E361A36063612361A3622362636268
:1044D400636301332363043389B09200FF333348A9
:1044E400A261636000F074F8201CFDF7DFFF0594FF
:1044F400002801D0FFF738FB80222D4B9202596926
:10450400012511435961596902260A400692069A07
:1045140080225969D202114359615B6990271A407C
:104524000792079B0023234C2348A360211C0333D9
:10453400E360FF0526606560FCF772FA2A1C311CF3
:104544001D48FCF79DFB0E36381C211C2660FCF729
:1045540067FA2A1C381C311CFCF792FB211C1648F4
:104564002560FCF75DFA291C2A1C1348FCF788FB1C
:104574001248FFF76FF9124800F02AF887235B000E
:10458400009305980F49104A01970296FFF786F9A0
:10459400FFF7D0F9FFF7EBF90C4800F019F809B070
:1045A400F0BDC0466006002000300140975E000860
:1045B400001002404401002000040048D5450008D2
:1045C400AF5E0008C406002050050020B75E000856
:1045D40010B5041C01F0A0F8211C82B20648FEF7B5
:1045E400B0FC002801D0FFF7BFFA044B1A78012A67
:1045F400FBD100221A7010BDD407002058010020FE
:1046040010B5104B104C0C222360E1239B02636015
:104614000023201CA360E3602361A36162616362E1
:10462400FEF776FC002801D0FFF79EFA201CFEF767
:104634000BFF002801D0FFF797FA0448FFF7C8FFE3
:1046440010BDC04600440040D4070020C25E0008EC
:1046540008B5031C8AB20548191C3223FEF760FE14
:10466400002801D0FFF780FA08BDC046D407002017
:10467400F0B587B004930CAB1B780392059300222A
:1046840011230190029102998A4249D20720191CF0
:10469400019C0A39091A661E89B2B24208D3049CE5
:1046A400204D0441E40701D5292400E014246C546E
:1046B4000138ECD2191C0724083989B2481E80B28B
:1046C400B24208D3039D174F2541ED0701D5292593
:1046D40000E014253D54013189B2013C9942EDD1E9
:1046E4001C1C0834A1B200910725191C481E80B275
:1046F400B2420AD30B4FBC46059F2F41FC0701D59C
:10470400292700E01427644627540131009889B210
:10471400013D8142EAD101321833D2B29BB2B2E7F1
:1047240007B0F0BD6008002013B5041C0092044AD1
:104734000B1C01201168221CFFF79AFF13BDC04611
:104744002000002070B5204D204E0021321C281C72
:1047540000F007FF0021FF200A1CFFF7E5FF1C4BB8
:104764001C49186800F00EFC1B4B01381B4C1860E8
:104774001B4BE06023600023201C6661636023619F
:10478400A360FEF74AFA002801D0FFF7EDF9602391
:1047940000221449201C0B602B788A604B60CA608D
:1047A4000A614A618A61FEF795FA002801D0FFF791
:1047B400DBF9201C00212A1C044BFEF723FB0028F4
:1047C40001D0FFF7D1F970BD60080020380E000059
:1047D4001C00002000350C005C010020981600200D
:1047E4000004004044080020F7B500252C1CFBF70A
:1047F4004BFDFFF7BAF9FFF7DDF9FFF701FFFFF70C
:10480400DDF8FFF715FCFFF7E7FAFFF783FBFFF787
:1048140099FFFFF74BFEFFF743FAFFF743F92048F0
:10482400FFF7D6FE009564271E4B1B78002B03D19F
:104834000120FBF747FD01E0FFF77EF9013F002F60
:10484400F2D1194E1949301CFFF7CEFB0122009B0F
:1048540004205340191C0093FFF710FE134B0193DF
:10486400632C06D80134E4B2632C03D101235D40E8
:1048740000E03C1C002D0CD002220D4B311C1A70A0
:104884000C48921800F064FE301C0199FFF780FB7D
:10489400C9E7FFF7ECFA0A235843FFF783FCC2E7A2
:1048A400DA5E0008CD000020D600002009010020B7
:1048B4003C0100209B04002008B5042801D1FFF727
:1048C400BDF908BD064B984202D10122054B04E014
:1048D400054B984202D10122044B1A707047C0461E
:1048E400D407002058010020F8020020CE00002048
:1048F40038B50D4B984203D101220C4B1A7011E0CC
:104904000B4B98420ED1041C01250A4B1D70FFF776
:10491400FBF8201C08492A1CFEF746FB002801D09E
:10492400FFF722F938BDC046D40700205801002003
:10493400F8020020CE000020680300207047000029
:1049440008B5034B984201D1FFF766FD08BDC04688
:104954001405002030B5354B8BB098422DD18023FF
:10496400334A9B02516901241943516151699020D2
:10497400194001910199D169C0051943D161D269E6
:1049840005A913400293029B04230593023B06935B
:104994001B19089307940994FCF742F89020082304
:1049A400C00505A905930994FCF73AF81C200021D9
:1049B400221CFBF75BFE1C2034E01E4B984233D1D3
:1049C40080221B4B92025969902011435961596905
:1049D40001240A400392039A80229969D201114367
:1049E40099619B6902251A400492049B80239B00D1
:1049F4000593FE3BFF3BC00505A908930695079464
:104A04000994FCF70DF880239020DB00C00505A96C
:104A140005930994FCF704F81B2000212A1CFBF7DA
:104A240025FE1B20FBF754FE0BB030BDD40700203D
:104A340000100240F802002008B51B4B984215D123
:104A440080219020194B89021A69C0050A431A6112
:104A54001969174A0A401A610421FCF799F8902051
:104A64000821C005FCF794F81C2019E0114B98426A
:104A740018D180210D4BC901DA6890200A43DA600D
:104A8400D9680D4AC0050A408021DA608900FCF724
:104A94007FF890208021C005C900FCF779F81B201D
:104AA400FBF720FE08BDC046D407002000100240DA
:104AB400FFFFFDFFF8020020FFBFFFFF30B5164BDC
:104AC40089B0984226D18022144B92009969902093
:104AD40011439961996903250A400192019A802240
:104AE40059699202114359615B6900241A40029288
:104AF400029B0123C00503A9039304950594FBF7C6
:104B04008FFF90200223C00503A903930495059405
:104B1400FBF786FF09B030BDAC0100200010024055
:104B240008B5094B98420ED180219020074B89008B
:104B3400DA68C0050A43DA60D968054A0A40DA60CF
:104B44000121FCF725F808BDAC010020001002404B
:104B5400FFFDFFFF30B51A4B89B098422ED1802259
:104B64008025184BD2025969ED01114359615969E5
:104B740000240A400192019ADA6913482A43DA614F
:104B8400DB6903A92B400293029B80239B010393BF
:104B9400022304930593013306930794FBF740FF24
:104BA400094803A903950794FBF73AFF80230648B5
:104BB4001B0203A903930794FBF732FF09B030BD2E
:104BC400AC04002000100240000400480A4B07B562
:104BD400984210D11023094A1120D1691943D16197
:104BE400D2690321134001930022019BFBF73EFD90
:104BF4001120FBF76DFD07BD1405002000100240D5
:104C040070B5574B8EB0041E9C4245D10221554BC2
:104C14000325DA6900260A43DA61DA690A40009258
:104C2400009A8022586992021043586158690240E0
:104C34000192019A01225869104358615B699020DE
:104C440013400293029B40230A91C00509A90B92C9
:104C54000D9209930C95FBF7E3FE10234248436041
:104C64007033C3608133FF330361E13BFF3B8361F6
:104C740080239B01C3613D4B8660036046612062D3
:104C84004462FBF753FD0B20291C321CFBF7EEFC9E
:104C94000B20FBF71DFD61E0354B984217D18022B4
:104CA400304B920299691143996199690A400392C0
:104CB400039A80225969D202114359615B691A40EF
:104CC4000492049B80235B000993EE3B18E0294B7C
:104CD40098421ED18023234ADB02916919439161D2
:104CE40091691940059105995169194351615269B6
:104CF40013400693069B80239B000993EF3BFF3BE5
:104D04000A9300230B9303330C93013B0D931A482E
:104D140021E01A4B984221D10122124B9020D969EB
:104D2400C0051143D961D9690A400792079A8022C4
:104D340059699202114359615B691A400892089BB0
:104D440080231B02099312230A9300230B9303333A
:104D54000C93013B0D9309A9FBF762FE0EB070BDE5
:104D64009816002000100240600100204400024018
:104D7400A803002000040020000400486C03002065
:104D840010B51E4B8EB0984235D1202307A8079347
:104D9400103B0B93FDF792F88022194BD20259690C
:104DA400012411435961596916480A400092009A36
:104DB4008022D96992031143D961DB6902A91A409F
:104DC4000192019B402302932E3B03930F3B0593D7
:104DD40004940694FBF724FE80230A4802A9029354
:104DE4000694FBF71DFE17200421221CFBF73EFC52
:104DF4001720FBF76DFC0EB010BDC0463C0400202C
:104E0400001002400004004810B5184B96B09842B8
:104E14002AD18023164C5B05E2691A43E261E269F8
:104E240013400193019BFCF79BFC0423099300238B
:104E340009A8129301330B93FCF79CFC002801D0C2
:104E4400FEF792FE80235B020293802302A85B009C
:104E54000393FDF733F8002801D0FEF785FE802286
:104E6400236A12021343236216B010BD7804002093
:104E7400001002407047000003688EB0009343683E
:104E8400019383680293C36803930369049343699A
:104E9400059383690693C36907930A4B1B680893B8
:104EA400094B1B680993094B1B680A93084B1B6841
:104EB4000B93084B1B680D93074B1B680C9300BEA8
:104EC4000EB0704728ED00E02CED00E030ED00E07E
:104ED4003CED00E034ED00E038ED00E004207146E4
:104EE400084202D0EFF3098001E0EFF30880416942
:104EF400C2E700BEFEE77047704708B5FBF7D4F978
:104F040008BD08B50420FBF7C5FE08BD08B5024876
:104F1400FEF761FB08BDC046D407002008B502486F
:104F2400FEF759FB08BDC046F802002008B5024848
:104F3400FDF75EFD08BDC0461405002010B5042130
:104F44000548FBF7A3FE054C201CFCF797F9201C31
:104F5400FCF79EFB10BDC046000400483C04002042
:104F640008B5024B186AFBF735FC08BD98160020FB
:104F740002B4714649084900095C49008E4402BCE8
:104F84007047C046002243088B4274D303098B4206
:104F94005FD3030A8B4244D3030B8B4228D3030C05
:104FA4008B420DD3FF22090212BA030C8B4202D3A7
:104FB4001212090265D0030B8B4219D300E0090ACF
:104FC400C30B8B4201D3CB03C01A5241830B8B42D8
:104FD40001D38B03C01A5241430B8B4201D34B03C1
:104FE400C01A5241030B8B4201D30B03C01A524126
:104FF400C30A8B4201D3CB02C01A5241830A8B42AB
:1050040001D38B02C01A5241430A8B4201D34B0293
:10501400C01A5241030A8B4201D30B02C01A5241F7
:10502400CDD2C3098B4201D3CB01C01A52418309AB
:105034008B4201D38B01C01A524143098B4201D3E5
:105044004B01C01A524103098B4201D30B01C01A10
:105054005241C3088B4201D3CB00C01A524183088A
:105064008B4201D38B00C01A524143088B4201D3B7
:105074004B00C01A5241411A00D201465241104617
:105084007047FFE701B5002000F00CF802BDC046F0
:105094000029F7D003B5FFF775FF0EBC4243891A08
:1050A4001847C0467047C046002B11D1002A0FD1C3
:1050B400002900D1002802D00021C943081C07B4EC
:1050C400024802A14018029003BDC046D9FFFFFF69
:1050D40003B4684601B5029800F022F8019B9E468D
:1050E40002B00CBC7047C046F0B583B0161C1F1C40
:1050F4000090019100F076F8041C0D1C221C2B1C5E
:10510400301C391C00F044F8009A019B121A8B41A0
:105114000899201C0A604B60291C03B0F0BDC046EE
:10512400F0B5141C83B01D1C0090019100F052F9DD
:10513400221C2B1C061C0F1C00F02AF8009A019B51
:10514400121A8B410899301C0A604B60391C03B059
:10515400F0BDC0461C2101231B04984201D3000C5E
:1051640010391B0A984201D3000A08391B099842D6
:1051740001D30009043902A2105C40187047C046EC
:10518400040302020101010100000000000000000C
:10519400F0B54F46464605042D0C2C1CC0B417042C
:1051A400160C3F0C9946030C7C4375435F437343D1
:1051B4007D19260CAD199C46AF4203D980235B02AE
:1051C4009846C4444B465143434324042E0C240CB8
:1051D4002D0466442C1959188919201C0CBC9046BE
:1051E4009946F0BDF0B544465F4656464D46F0B488
:1051F4001C1C85B0002900DAA9E00F1C0021061C44
:105204008846101C191C002C00DA97E0341C3D1C45
:1052140082468946B94273D870D04946504600F058
:1052240085F98346391C301C00F080F95B46181A56
:10523400031C8346203B9C4600D59CE000230022AF
:105244005146009201936346994001915146814031
:10525400019B0091BB4200D983E000D17EE0009A1B
:10526400019B341C3D1CA41A9D416346002B00DAAB
:105274009AE0002600270296039701369E40039683
:10528400012686400296002800D171E00099019A17
:10529400D30799464B464E081E4357080023012264
:1052A4000CE0AF4201D1A6420AD8A41BBD41241987
:1052B4006D410138A4185D41002806D0AF42F0D9F1
:1052C400013824196D410028F8D12022029E039F41
:1052D4005B46524236196F4199185AD4281CC8406B
:1052E4002C1C5B46DC40002968DB041C8C40231C1E
:1052F40059468840021CB61A9F4103E0B0428CD93B
:105304000026002741464B1E99410023009101933A
:10531400009A019B002554429D41331C6340181C94
:105324003B1C6B40191C009B019CC018614105B0DB
:105334003CBC90469946A246AB46F0BD4346DB438F
:105344000C1C9846131C00215842A1415EE700271B
:1053540046428F4101214942884652E7B14200D872
:105364007DE70026002702960397002800D08DE7EA
:10537400029E039FC6E720215346091ACB40002210
:10538400191C0023009201934B4683400B43019365
:105394005CE75A4620239B1A2A1C9A40201C131CA3
:1053A4005A46D04018439BE720260027331A00268C
:1053B400029603970127DF40039761E75B462021AC
:1053C4005D46C91A031CAC40CB40191C231C0B437B
:1053D4008EE7C046F0B545464E465746E0B4041C39
:1053E40082B00D1C914698468B4262D85FD04146EC
:1053F400484600F09BF8291C061C201C00F096F877
:105404002023311A5B428A46C81865D44B46834030
:105414001F1C4B468B401E1CAF4258D855D0A41BB2
:10542400BD41002800DA77E00022002300920193B6
:1054340001328240019201238B40009300293CD029
:10544400FB079846404672087B0802430126002762
:105454000CE0AB4201D1A2420AD8A41A9D412419FE
:105464006D410139A4197D41002906D0AB42F0D920
:10547400013924196D410029F8D12022009801999D
:1054840053465242001969419E183AD42F1CF740E2
:105494005346DD40002E29DB3C1CB440231C5446FB
:1054A400A7403A1C801A99410090019105E082427C
:1054B4009DD900230024009301940098019902B01F
:1054C4001CBC90469946A246F0BDA342A7D900222F
:1054D400002300920193B1E720224B46521AD34095
:1054E4001A1C43468B401F1C174392E75346202443
:1054F4005646E41A3B1CB540E3401C1C2B1C2343BA
:10550400CDE7524620239B1A2A1C9A40271C131CC1
:105514005246D7401F43BBE720230022581A0023DA
:10552400009201930132C240019284E710B5002930
:1055340003D1FFF70FFE203002E0081CFFF70AFE3C
:1055440010BDC046014B18687047C0468400002057
:10555400002310B5934203D0CC5CC4540133F9E763
:1055640010BD031C8218934202D019700133FAE76C
:105574007047000030B500293ED004390B68002B79
:1055840000DAC9181D4A1368141C002B02D14B60A1
:10559400116031E099420DD208680A189A4203D189
:1055A4001368C3180B6053684B60216024E08A427F
:1055B40003D8131C5A68002AF9D11D685C198C425F
:1055C4000BD10968691858181960904214D11068F1
:1055D4005268091819605A600EE08C4202D90C23F3
:1055E400036009E008680C18944203D114685268F7
:1055F400001908604A60596030BDC0469C01002013
:10560400032370B5CC1C9C430834051C0C2C01D21C
:105614000C2405E0002C03DA0C2300202B6042E06C
:105624008C42F9D3204A1368101C191C002913D08A
:105634000A68121B0DD40B2A02D90A608B181FE0CA
:105644008B4202D15A6802601BE04A685A600B1C04
:1056540017E00B1C4968E9E7144E3368002B03D1AB
:10566400281C00F025F83060281C211C00F020F8CC
:10567400031C421CD0D00322C61C964386420AD186
:105684001C60181C07210B301A1D8843821A0AD08B
:105694005142995007E0311A281C00F009F8431CC4
:1056A400BAD0331CECE770BD9C01002098010020A7
:1056B40038B50023064C051C081C2360FAF7A2FD2C
:1056C400431C03D12368002B00D02B6038BDC04697
:1056D400A00100200EB410B59DB002A9029008618B
:1056E4000B48822488604861012040421FABC88176
:1056F400084804CBA400006801938C8100F09AF858
:105704000023029A13701DB010BC08BC03B01847E4
:10571400FFFFFF7F840000200023C25C0133002AC6
:10572400FBD1581E7047F8B5061C0C1C151C00292B
:1057340004D1111CFFF764FF041C18E0002A03D1F4
:10574400FFF718FF2C1C12E000F00FFBA8420ED24A
:10575400301C291CFFF754FF071E07D0211C2A1CEC
:10576400FFF7F6FE301C211CFFF704FF3C1C201C35
:10577400F8BD0000F0B58E6885B0071C0C1C0392C0
:105784000193B34245D390238A89DB001A423DD06A
:1057940003250969236801985B1A029363695D43D1
:1057A400EB0F5D19029B6D1001331B189D4200D253
:1057B4001D1C381C53050FD5291CFFF721FF061E9D
:1057C40013D0029A2169FFF7C3FEA289184B134034
:1057D40080221343A38111E02A1CFFF7A4FF061EB5
:1057E4000CD1381C2169FFF7C5FE0C23402201208F
:1057F4003B60A38940421343A38117E0029B2661C7
:10580400F61826606561019EED1AA560019BB342FE
:1058140000D2019E321C2068039900F092FA002005
:10582400A3689B1BA36023689E19266005B0F0BD86
:105834007FFBFFFFF0B59FB0029005938B890E1C90
:10584400171C1B0610D50B69002B0DD14021FFF747
:10585400D7FE30603061002804D10C23029A01384D
:105864001360D0E040237361002306AD6B612033E5
:105874006B761033AB763C1C2378002B03D1E31BEF
:10588400049312D003E0252BF9D00134F4E7049BF0
:105894000298311C3A1CFFF76DFF431C00D1ACE0A9
:1058A4006A69049B944663446B612378002B00D19E
:1058B400A3E00122002352426A6002A95432521822
:1058C40001342B60EB60AB601370AB654F4F2178F4
:1058D400381C052200F02AFA002808D0C01B012732
:1058E4008740381C2B68013418432860EEE72B6886
:1058F400DA0604D55322202102A8121811701A07BF
:1059040004D553222B2102A81218117022782A2AB6
:1059140001D0099B0EE0059A111D12680591002A19
:1059240001DB099204E05242EA60022213432B6035
:10593400013409E02278303A092A04D80A214B4379
:1059440001349B18F6E7099323782E2B18D163783A
:105954002A2B09D1059B02341A1D1B680592002BC2
:105964000DDA01235B420AE0002301342278303A45
:10597400092A04D80A214B4301349B18F6E70793FC
:10598400234F2178381C032200F0D0F9002807D0D7
:10599400C01B40278740381C2B68013418432860FB
:1059A40021781C480622671C297600F0BFF90028DC
:1059B40012D0194B002B06D10722059B07339343C2
:1059C4000833059314E005AB00930298291C321C9C
:1059D400124B00E000BF07E005AB00930298291CBE
:1059E400321C0E4B00F08AF80390039B013304D061
:1059F4006B69039A9B186B613DE7B3890B985B064F
:105A040001D5012040421FB0F0BDC046E65E00084B
:105A1400EC5E0008F05E0008000000007957000802
:105A2400F7B5171C01930A698B6800900C1C93420C
:105A340000DA131C221C3B6043321278002A01D086
:105A440001333B6023689B0602D53B6802333B600D
:105A5400062523681D401ED0231C43331B785A1E81
:105A64009341226892061CD53020E1184031C87059
:105A7400211C5A1C45310978A21840320233D170D6
:105A84000FE0221C0123009801991932089EB047A7
:105A9400431C0ED00135E3683A689B1A9D42F0DB43
:105AA400DAE7221C009801994332089DA847431C59
:105AB40002D10120404220E006232068E1683A68D0
:105AC40003400025042B03D18D1AEB43DB171D4043
